:020000040800F2
:10000000480700209D010008012700084F22000832
:10001000FD260008AD0C0008DD32000800000000DD
:100020000000000000000000000000003F27000862
:10003000B5100008000000003D2700084127000817
:10004000B7010008B7010008B7010008B7010008B0
:10005000B7010008B7010008B7010008B7010008A0
:10006000B7010008B7010008B7010008B701000890
:10007000B7010008B7010008B7010008B701000880
:10008000B7010008B7010008B7010008B701000870
:10009000B7010008B7010008B7010008B701000860
:1000A000B7010008B7010008B7010008B701000850
:1000B000B7010008B7010008B7010008B701000840
:1000C000B7010008B7010008B7010008B701000830
:1000D000B7010008A9320008CD320008B7010008B6
:1000E000B7010008B7010008B7010008B701000810
:1000F000B7010008B7010008B7010008B701000800
:10010000B7010008B7010008B7010008B7010008EF
:10011000B7010008B701000891280008B7010008DE
:10012000B7010008B7010008B7010008B7010008CF
:10013000B70100080000000000000000B70100083F
:10014000B7010008B7010008B7010008B7010008AF
:10015000B7010008B7010008B7010008B70100089F
:10016000B7010008B7010008B7010008B70100088F
:10017000B7010008B70100080000000000000000FF
:10018000B7010008B7010008DFF80CD000F0F4FA5E
:1001900000480047D5460008480700200648804729
:1001A00006480047FEE7FEE7FEE7FEE7FEE7FEE75C
:1001B000FEE7FEE7FEE7FEE72D28000889010008BC
:1001C0002DE9F05F0546002092469B46884606468C
:1001D000814640241BE0284641464746224600F01F
:1001E00034FA53465A46C01A914110D31146184664
:1001F000224600F01BFA2D1A67EB01084F462246F3
:100200000120002100F012FA17EB00094E41201ED8
:10021000A4F10104DFDC484631462A464346BDE8E6
:10022000F09F2DE9FE4F804681EA0300C00F0C4687
:10023000009021F0004123F00045B8EB0200A941F5
:1002400005D24046214690461C460B46024623F006
:100250000040104347D0270DC7F30A00C3F30A51EB
:100260000290401A019040286BDAC3F3130040F467
:10027000801B0098924620B10023D2EB030A63EB67
:100280000B0B01985946C0F14002504600F0CEF9E0
:1002900006460D4650465946019A00F0E6F910EB25
:1002A00008006141002487EA115284EAE7731A4387
:1002B00040D0009A62B3019A012A4FEA075215DC36
:1002C000001B61EB02014FF0004202EA0752CDE948
:1002D0000042001C41F5801132462B4600F0E6F941
:1002E00003B0BDE8F08F40462146F9E7001B61EB03
:1002F0000201001C41F5801300185B412018A2F593
:10030000001747EB030140EAD570B6196D4111E0C3
:100310006D084FEA360645EAC0754FEA0752001BE2
:1003200061EB0201001C41F5801149084FEA3000E1
:100330000019514132462B4603B0BDE8F04F00F0A2
:10034000A6B90098012240000023D0EB020263EB23
:10035000E073009821464FEAE074B8EB000061EBCF
:100360000401E9E783F000435BE781F0004158E7CF
:100370002DE9FE4F81EA030404F0004421F000411E
:1003800000944FF0000B23F0004350EA01045ED0CC
:1003900052EA03045BD0C3F30A54C1F30A552C4458
:1003A000A4F2F3340194A0FB0254C1F3130141F40D
:1003B0008011C3F3130343F4801301FB024400FBD9
:1003C000034E840A970A44EA815447EA8357A4FB00
:1003D000076802958D0A05FB07854FEA932C04FBFD
:1003E0000C542705029D4FEA065847EA1637B5EB2D
:1003F00008056EEB070C870E920E47EA811742EA5A
:100400008312A7FB0201B6EB0B0164EB00042B0D7A
:1004100043EA0C335E1844EB1C50DA465146E7FBC6
:100420000201C5F313044FEA0B3343EA14534FEAB6
:100430000432019C43EA0603A4F10C040294009CDC
:10044000CDE900B400F032F903B0BDE8F08F002030
:100450000146F9E72DE9F04D81EA030404F0004B71
:1004600021F0004514464FF0000A23F0004150EA05
:10047000050220D054EA01021DD0C5F30A570246F6
:10048000C5F31303C1F31300C1F30A5640F48015FA
:1004900043F48013A7EB0608101BD64608F2FD387C
:1004A00073EB050002D308F1010801E092185B41EB
:1004B000B8F1000F03DA00200146BDE8F08D0020FE
:1004C0004FF48011064684460EE0171B73EB0507B8
:1004D00005D3121B63EB050306434CEA010C4908E4
:1004E0004FEA300092185B4150EA0107EDD152EA21
:1004F000030012D082EA040083EA0501084305D014
:10050000101BAB4106D20122002306E000224FF06F
:10051000004302E06FF0010253101AEB06004CEBAF
:10052000085110EB0A0041EB0B01BDE8F04D00F063
:10053000AEB80EB5C10F80EAE0700844CA070021CA
:1005400040F233438DE80E000A460B4600F0AEF849
:1005500003B000BD0EB540F2334102910021CDE958
:1005600000110A460B4600F0A1F803B000BDC1F32C
:100570000A5210B5C1F3130140F2FF3341F4801168
:100580009A4201DA002010BD40F233439A42A2F2AF
:10059000334203DC524200F058F810BD904010BDC9
:1005A00030B5041E71F1000404DB4FF000444042FA
:1005B00064EB0101141E73F1000405DB1C464FF0CF
:1005C0000043524263EB04038B4208BF824230BDBA
:1005D00030B5041E71F1000404DB4FF000444042CA
:1005E00064EB0101141E73F1000405DB1C464FF09F
:1005F0000043524263EB0403994208BF904230BD6E
:1006000030B50B46014600202022012409E021FAE2
:1006100002F59D4205D303FA02F5491B04FA02F5DF
:100620002844151EA2F10102F1DC30BD202A04DBB2
:10063000203A00FA02F1002070479140C2F12003F5
:1006400020FA03F3194390407047202A04DB203A34
:1006500021FA02F00021704721FA02F3D040C2F1E2
:1006600020029140084319467047202A06DBCB1729
:10067000203A41FA02F043EAE07306E041FA02F35D
:10068000D040C2F12002914008431946704710B58E
:10069000141E73F1000408DA401C41F100019218A5
:1006A0005B411A4301D120F0010010BD2DE9F04D4E
:1006B00092469B4611B1B1FA81F202E0B0FA80F2A3
:1006C00020329046FFF7B2FF04460F4640EA0A0088
:1006D00041EA0B0153465A46084313D0114653EAE8
:1006E000010019D0C8F140025046FFF7AEFF0546A1
:1006F0000E46504659464246FFF798FF084305D03C
:10070000012004E020463946BDE8F08D0020054375
:1007100046EAE0762C4337430A986305E40AA0EBE7
:1007200008000022FD0A44EA47540A3002D500209E
:100730000146E9E7010510196941DDE9084500199D
:100740006941BDE8F04DA2E7C1F30A52C1F31301BC
:1007500040F2FF3341F480119A4202DA0020014650
:10076000704740F233439A42A2F2334202DC5242D3
:10077000FFF76BBFFFF75ABF064C074D06E0E06876
:1007800040F0010394E8070098471034AC42F6D3D8
:10079000FFF7FEFC684800088848000870B5C1F300
:1007A0000A5201F000450024C1F3130140F2FF3367
:1007B00041F480119A4201DA002070BD40F23343C7
:1007C0009A42A2F2334203DC5242FFF73EFF00E0BE
:1007D00090402C43F1D0404270BD000010B5002283
:1007E0004FF40061034800F09BFD3C2000F0B8F896
:1007F00010BD00000004024010B50122910209481A
:1008000000F08EFD00224FF48061064800F088FD64
:100810003C2000F0A5F801229102024800F080FD82
:1008200010BD00000004024070B52DED108BB0EE3D
:10083000408AF0EE608A00269FED3C0BB0EE40FA55
:10084000F0EE60FA002500249FED3A0B53EC102BDC
:1008500051EC180BFFF7A4FE06D251EC180B81F0F7
:10086000004141EC180B01263448007B18B1334895
:10087000007B032802D19FED329B14E02F48007BC0
:10088000012803D02D48007B042802D19FED2E9B28
:1008900009E02A48007B022803D02848007B05286D
:1008A00001D19FED2B9B2548007B38B12348007B6D
:1008B000012803D02148007B022802D14FF4805543
:1008C00001E04FF400652846FFF744FE41EC1E0BA3
:1008D00053EC182BFFF74CFD41EC1D0B9FED130B58
:1008E00053EC102BFFF7B6FD41EC1C0B53EC192B0E
:1008F000FFF7B0FD41EC1B0B9FED170B53EC102BDA
:10090000FFF78FFC41EC1A0BFFF731FE84B216B1F2
:10091000281B84B201E0281984B24FF6FF7000EA68
:1009200004142046BDEC108B70BD000000000000D8
:100930000000044000000000000000002000002033
:100940000000000000000040000000000000104017
:1009500048E17A14AE471140000000000000E03F7B
:1009600000BF011EA0F10100FBD1704710B50122AC
:100970001103124800F0D4FCFFF730FFFFF73CFFF3
:1009800003200F49087300F0CFF80E4800F08AF8F2
:10099000012000F0A5FB9FED0C0B094880ED000B3A
:1009A0004FF4802006498860886891ED001BB0EE06
:1009B000410AF0EE610A00F00BF810BD000402409D
:1009C0002000002005001000000000000000F03FA3
:1009D00070B52DED028BB0EE408AF0EE608A0446D1
:1009E0000025B0EE480AF0EE680AFFF71DFF054645
:1009F00044EA050000F056F8BDEC028B70BD10B55E
:100A0000044644F40004204600F04CF8012000F0B5
:100A100067FB00F001F810BD70B50025012211033D
:100A20001F4800F07DFCFF20FFF79AFF00224FF4E3
:100A300080511B4800F074FC01225103184800F05B
:100A40006FFC3C20FFF78CFF00241FE000224FF4D6
:100A50000051134800F064FC3C20FFF781FF4FF485
:100A600080410F4800F050FC00B16D1C3C20FFF7A6
:100A700077FF012251030A4800F052FC3C20FFF7A7
:100A80006FFF172C00DA6D00601CC4B2182CDDDB80
:100A900001221103024800F043FC284670BD00000B
:100AA0000004024070B5044600224FF480511D48F6
:100AB00000F036FC012251031A4800F031FC3C20C2
:100AC000FFF74EFF002525E001225103154800F0F5
:100AD00027FC3C20FFF744FF04F4000028B101226A
:100AE000D103104800F01CFC05E000224FF4004147
:100AF0000C4800F015FC3C20FFF732FF00224FF4B9
:100B00000051084800F00CFC3C20FFF729FF64006E
:100B1000681CC5B2182DD7DB01221103014800F073
:100B2000FFFB70BD0004024010B50349097B41F48E
:100B30004020FFF7B7FF10BD2000002070B504462D
:100B4000002544F4004040F0C0052946012000F093
:100B500067F870BD002105E000E0491C034A91429E
:100B6000FBD3401E0028F7D17047000000FF0100B2
:100B700010B504462046FFF7E1FF0520FFF7EAFF26
:100B8000002000F003F800B210BD00002DE9F04194
:100B900005460026002701F0F9FB902001F0C2FB7A
:100BA00001F046FC0446012C04D101F019FC19A007
:100BB00002F064FC284601F0B5FB01F039FC044664
:100BC000012C04D101F00CFC13A002F057FC01F041
:100BD00007FC01F0DBFB912001F0A4FB01F028FCF5
:100BE0000446012C04D101F0FBFB0CA002F046FCF2
:100BF000204601F065FB064601F02CFB204601F083
:100C00005FFB074601F026FB01F0EAFB47EA0620FE
:100C1000BDE8F081523120005232200052332000D2
:100C200070B506460D46002401F0B0FB902001F09F
:100C300079FB01F0FDFB0446012C04D101F0D0FB4F
:100C400016A002F01BFC304601F06CFB01F0F0FB3B
:100C50000446012C04D101F0C3FB11A002F00EFCEC
:100C6000280A01F05FFB01F0E3FB0446012C04D1EC
:100C700001F0B6FB0BA002F001FCE8B201F052FB60
:100C800001F0D6FB0446012C04D101F0A9FB06A01B
:100C900002F0F4FB01F0A4FB70BD0000573120000E
:100CA00057322000573320005734200000BFFEE7A2
:100CB00070B52DED0A8B0446E748007802280ADA61
:100CC0002078AA2807D1E4480078401CE24908703F
:100CD000BDEC0A8B70BDE048007802287EDBDE4860
:100CE0000078DD490978491CDB4A1170401E0B2849
:100CF00075D2DFE800F07406181D4395A8FDFCFBD3
:100D0000FA00207810B90020D449886020780128A2
:100D100002D14004D14988602078022802D14004E1
:100D2000CE49886095E12078CD4981F8280090E18E
:100D30002578E91705EB11710911A5EB01112E4674
:100D4000EA1705EB1272121102EB820201EB42006C
:100D5000FFF7EFFBC34A03C29FEDC30B53EC102B0D
:100D6000C04890ED000B51EC100BFFF731FC04D2A2
:100D70009FEDBF0BBB4880ED000B6AE12578E917BA
:100D800005EB11710911A5EB01112E46EA1705EBD0
:100D90001272121102EB820201EB4200FFF7C9FB53
:100DA000B54A03C29FEDB00B53EC102BB24890ED47
:100DB000000B51EC100BFFF70BFC04D29FEDAC0BBA
:100DC000AD4880ED000BAC4890ED000B53EC102BC0
:100DD000A44890ED000B51EC100B01E03AE134E136
:100DE000FFF71FFA41EC180B9FEDA40B53EC102BEF
:100DF000FFF730FB9A4A03C2994890ED001BB0EE12
:100E0000410AF0EE610A53EC102B964890ED001B5E
:100E100051EC110BFFF7A6FA914AC2E9060118E15D
:100E20002078C21700EB12721211A0EB02120146D9
:100E3000C31700EB13731B1103EB830302EB430295
:100E4000904B1A7005E120788F49087008460578A4
:100E5000E91705EB11710911A5EB0110FFF769FB0B
:100E600041EC1A0B9FED890B53EC102BFFF7F2FAB4
:100E700041EC180B84480678F11706EB1171081144
:100E8000FFF757FB41EC1C0B9FED820B53EC102B33
:100E9000FFF7E0FA41EC1A0B7A480078FFF75AFBAB
:100EA00041EC1B0B53EC1A2BFFF7BBF941EC190B70
:100EB00053EC182BFFF7B5F9694AC2E90201104655
:100EC00090ED021BB0EE410AF0EE610A9FED731B3C
:100ED00053EC112B51EC100BFFF762FB03D10020F8
:100EE0005F4981F828005E4803E06EE05AE01CE0AC
:100EF00008E090F8280020B99FED680B584880ED75
:100F0000020BA6E02078C21700EB12721211A0EBC0
:100F100002120146C31700EB13731B1103EB83038B
:100F200002EB43025F4B1A7093E020785E49087031
:100F300008460578E91705EB11710911A5EB0110B9
:100F4000FFF7F7FA41EC1A0B9FED500B53EC102B07
:100F5000FFF780FA41EC180B53480678F11706EBBF
:100F600011710811FFF7E5FA41EC1C0B9FED490BDD
:100F700053EC102BFFF76EFA41EC1A0B494800783E
:100F8000FFF7E8FA41EC1B0B53EC1A2BFFF749F97A
:100F900041EC190B53EC182BFFF743F9304AC2E927
:100FA000040156E02078C21700EB12721211A0EB78
:100FB00002120146C31700EB13731B1103EB8303EB
:100FC00002EB4302394B1A7043E02078384908702D
:100FD00008460578E91705EB11710911A5EB011019
:100FE000FFF7A7FA41EC1A0B9FED280B53EC102BDF
:100FF000FFF730FA41EC190B2D480678F11706EB94
:1010000011710811FFF795FA41EC1C0B9FED210BB4
:1010100053EC102BFFF71EFA41EC1A0B2348007813
:10102000FFF798FA41EC1B0B53EC1A2BFFF7F9F87A
:1010300041EC180B53EC192BFFF7F3F8084AC2E9FF
:10104000040100200449087003E0002002490870F0
:1010500000BF00BF00BF3BE63000002020000020A2
:10106000480000203800002000000000000026405A
:101070009A99999999992540400000200000000014
:10108000000000403100002032000020000000007D
:101090000000594000000000000024400000000053
:1010A0000000000033000020340000203500002044
:1010B000360000207047014691F83500022803D021
:1010C0008020486501207047052081F835000868B8
:1010D000006820F001000A6810600020F3E70000BB
:1010E00070B5044600F022F906462546681C10B18A
:1010F00004480078054400BF00F018F9801BA8429E
:10110000FAD370BD0C000020F8B502460B4600254E
:10111000002400200021DCE0012606FA01F51E680B
:1011200006EA0504AC4273D15E68022E02D05E6806
:10113000122E13D1CF0802F1200656F827004E07D1
:10114000F70E0F26BE40B0434F07FF0E1E69BE408C
:101150003043CF0802F1200646F8270010684F0000
:101160000326BE40B0431E7906F003064F00BE4082
:10117000304310605E68012E08D05E68022E05D0F4
:101180005E68112E02D05E68122E13D190684F0057
:101190000326BE40B0434F00DE68BE40304390603F
:1011A000506801268E40B0431E79C6F300168E406B
:1011B00030435060D0684F000326BE40B0434F001C
:1011C0009E68BE403043D0605E6806F08056B6F13F
:1011D000805F7DD100BF00260096404E366846F401
:1011E00080463E4F3E603E46366806F48046009696
:1011F00000BF00BF3A4E8F0856F827008E07370F02
:101200000F26BE40B043374EB24202D1002624E042
:101210005EE0354EB24201D101261EE0334EB242AD
:1012200001D1022619E0324EB24201D1032614E068
:10123000304EB24201D104260FE02F4EB24201D10E
:1012400005260AE02D4EB24201D1062605E02C4EBD
:10125000B24201D1072600E008268F073F0FBE40AB
:1012600030431F4E8F0846F82700264E3068A043B3
:101270005E6806F48036B6F5803F00D12043214EEB
:101280003060361D3068A0435E6806F40036B6F55F
:10129000003F00D120431B4E361D3060361D3068A4
:1012A000A0435E6806F48016B6F5801F00D1204387
:1012B000144E08363060361D3068A0435E6806F470
:1012C0000016B6F5001F00D120430E4E0C363060DC
:1012D000491C1029FFF420AFF8BD0000443802403B
:1012E00008380140000002400004024000080240AB
:1012F000000C02400010024000140240001802409E
:10130000001C0240003C0140024613690B400BB137
:10131000012000E00020704742694A404261704766
:101320000AB1816101E00B048361704701480068E4
:101330007047000004000020034800680349097852
:101340000844014908607047040000200C00002098
:1013500010B50D48006840F400700B49086008465D
:10136000006840F4806008600846006840F48070BF
:101370000860032000F0A6F8002000F007F800F055
:101380002BF8002010BD0000003C024070B5044660
:101390000E4800784FF47A71B1FBF0F00C490968FF
:1013A000B1FBF0F5284600F018FC08B1012070BD33
:1013B000102C07D200222146501E00F045F80548A7
:1013C000046001E00120F2E70020F0E70C000020BB
:1013D000000000200800002010B5032000F072F883
:1013E000002211466FF00B0000F02EF8002211468B
:1013F0006FF00A0000F028F8002211466FF0090093
:1014000000F022F800221146501F00F01DF80022C3
:101410001146101F00F018F800221146901E00F02F
:1014200013F800221146501E00F00EF810BD00BF48
:1014300000F01F02012191404209920002F1E022D6
:10144000C2F8001100BF70472DE9F05F80460D46DD
:101450001646002701F056F9074639462A46334614
:1014600001F00700C0F1070ABAF1040F02D94FF0EA
:10147000040A01E0C0F1070AD14600F1040ABAF1FA
:10148000070F02D24FF0000A01E0A0F1030AD44690
:101490004FF0010A0AFA09FAAAF1010A0AEA020A55
:1014A0000AFA0CFA4FF0010B0BFA0CFBABF1010B33
:1014B0000BEA030B4AEA0B042146404601F02AF9E5
:1014C000BDE8F09F00BF00F00702064B19684FF619
:1014D000FF031940044B0B4343EA0221014B1960FF
:1014E00000BF70470CED00E00000FA0570B504463F
:1014F0000D460CB9012070BD5848006800F00F007F
:10150000A84209D255490D700846006800F00F0046
:10151000A84201D00120EEE7207800F00200022866
:101520001DD1207800F00400042805D14C48006843
:1015300040F4E0504A490860207800F0080008288C
:1015400005D14748006840F4604045490860444878
:10155000006820F0F000A168084341490860207845
:1015600000F00100A8B36068012807D13C480838A2
:101570000068C0F34040B8B90120BCE760680228A9
:1015800002D06068032807D1354808380068C0F3E6
:10159000406048B90120AEE7314808380068C0F320
:1015A000400008B90120A6E72D48006820F003009C
:1015B000616808432A490860FFF7B8FE064609E05B
:1015C000FFF7B4FE801B41F28831884202D9032024
:1015D00091E707E02248006800F00C006168B0EB7A
:1015E000810FEDD11D48006800F00F00A84209D915
:1015F0001A490D700846006800F00F00A84201D09B
:10160000012078E7207800F00400042807D114486E
:10161000006820F4E050E168084311490860207830
:1016200000F00800082808D10D48006820F4604048
:10163000216940EAC1000A49086000F03DF8084904
:101640000968C1F30311074A515CC84006490860A4
:101650000020FFF79BFE00204DE70000003C024009
:10166000083802402C4700080000002001480068AC
:10167000704700000000002000B5FFF7F7FF0449A5
:101680000968C1F38221034A515CC84000BD0000D3
:10169000083802403C47000800B5FFF7E7FF04495F
:1016A0000968C1F34231034A515CC84000BD0000E3
:1016B000083802403C4700082DE9F0470024002587
:1016C0000026A1462548006800F00C0020B104283F
:1016D00005D008283AD105E0DFF8849039E0DFF83A
:1016E000849036E01D48001F006800F03F041B484E
:1016F000001F006800F4800078B11A481749091FDC
:101700000968C1F38811A0FB01700146224600233D
:101710003846FEF755FD05460EE011480F49091FF2
:101720000968C1F38811A0FB01700146224600231D
:101730003846FEF745FD05460848001F0068C0F31F
:101740000140401C4600B5FBF6F902E0DFF81090BE
:1017500000BF00BF4846BDE8F087000008380240DF
:101760000024F40040787D01F8B504460CB901204E
:10177000F8BD207800F00100002874D0F948006816
:1017800000F00C0004280DD0F648006800F00C00B2
:10179000082813D1F348001F006800F48000B0F55A
:1017A000800F0BD1EF4808380068C0F34040002894
:1017B00059D06068002856D10120D9E700BF606881
:1017C000B0F5803F08D1E7480838006840F4803021
:1017D000E449083908601EE06068B0F5A02F0DD11B
:1017E000E0480838006840F48020DE490839086085
:1017F0000846006840F4803008600CE0D94808389A
:10180000006820F48030D74908390860084600682D
:1018100020F48020086000BF606890B1FFF786FD6B
:10182000054606E0FFF782FD401B642801D903202E
:101830009EE7CC4808380068C0F340400028F1D04B
:1018400011E0FFF773FD054606E0FFF76FFD401B53
:10185000642801D903208BE7C24808380068C0F328
:1018600040400028F1D1207800F0020002285FD12A
:10187000BC48006800F00C0058B1BA48006800F09D
:101880000C0008281CD1B748001F006800F4800035
:10189000B0B9B44808380068C0F3400020B1E0682F
:1018A000012801D0012063E7AE480838006820F025
:1018B000F800216940EAC100AA490839086037E008
:1018C000E06800B30120A8490860FFF72FFD054636
:1018D00006E0FFF72BFD401B022801D9032047E754
:1018E000A04808380068C0F340000028F1D09D48A7
:1018F0000838006820F0F800216940EAC1009949E1
:101900000839086014E0002097490860FFF70EFDD1
:10191000054606E0FFF70AFD401B022801D9032017
:1019200026E7904808380068C0F340000028F1D14D
:10193000207800F0080008282CD16069A8B10120A7
:101940008A490860FFF7F2FC054606E0FFF7EEFC67
:10195000401B022801D903200AE782486C30006846
:10196000C0F340000028F1D014E000207F49086057
:10197000FFF7DCFC054606E0FFF7D8FC401B022819
:1019800001D90320F4E677486C300068C0F34000CA
:101990000028F1D1207800F00400042870D100263E
:1019A00070483830006800F0805090B900BF0020C7
:1019B00000906C483830006840F0805069493831F8
:1019C00008600846006800F08050009000BF00BF2B
:1019D00001266748006800F48070B0B96448006868
:1019E00040F4807062490860FFF7A0FC054606E0FD
:1019F000FFF79CFC401B022801D90320B8E65C4895
:101A0000006800F480700028F2D000BFA0680128B0
:101A100008D154486830006840F0010051496831ED
:101A200008601DE0A06805280DD14E4868300068A8
:101A300040F004004B49683108600846006840F0F7
:101A4000010008600CE047486830006820F00100A1
:101A50004449683108600846006820F004000860C6
:101A600000BFA068A8B1FFF761FC054609E0FFF7D9
:101A70005DFC401B41F28831884202D9032077E6A1
:101A800026E0384868300068C0F340000028EED0F7
:101A900013E0FFF74BFC054608E0FFF747FC401B4F
:101AA00041F28831884201D9032061E62D4868302F
:101AB0000068C0F340000028EFD1012E07D129486B
:101AC0003830006820F0805026493831086000BF67
:101AD000A069B8B32348006800F00C0008285ED065
:101AE000A069022846D100201F490866FFF71EFCA6
:101AF000054606E0FFF71AFC401B022801D9032027
:101B000036E6184808380068C0F340600028F1D174
:101B1000D4E907010843616A40EA81110122A06A01
:101B2000C2EB500041EA00412C20005D41EA006018
:101B30000C49091F086001200B490866FFF7F6FBF6
:101B4000054607E02DE0FFF7F1FB401B022801D915
:101B500003200DE6034808380068C0F34060002801
:101B6000F1D01EE00838024000004742800E474294
:101B70000070004000200C490866FFF7D7FB0546BF
:101B800006E0FFF7D3FB401B022801D90320EFE555
:101B900006480068C0F340600028F2D101E001204F
:101BA000E6E50020E4E5000000004742003802407E
:101BB000042808D14FF0E021096941F004014FF0F9
:101BC000E022116107E04FF0E021096921F00401F2
:101BD0004FF0E02211617047704770B5044625460A
:101BE000681EB0F1807F01D301200FE0681E4FF026
:101BF000E02148610F214FF0FF3000F08BFD002005
:101C00004FF0E021886107200861002070BD10B509
:101C1000FFF7E2FF10BD70477047024600BF92F821
:101C20003800012801D102207047012082F83800D5
:101C300000BF022082F839001068406820F0700070
:101C400013685860106840680B6818431368586040
:101C50001068806820F080001368986010688068C1
:101C60004B68184313689860012082F8390000BF60
:101C7000002082F8380000BF00BFD5E710B5044649
:101C80000CB9012010BD94F8390028B9002084F85F
:101C90003800204600F00CF8022084F83900211D9D
:101CA000206800F051FE012084F839000020E9E7A7
:101CB00008B50A4A016891420FD100BF0021009186
:101CC0000749096841F01001054A11601146096889
:101CD00001F01001009100BF00BF08BD00100040DE
:101CE0004038024001460868C06840F001000A68B8
:101CF000D0600868006840F001000A6810600020A9
:101D00007047704710B5044620680069C0F3400072
:101D1000D8B12068C068C0F34000B0B16FF00200D5
:101D200021680861012020762068806900F00300A6
:101D300018B12046FFF7E5FF05E0204600F0ADF8BA
:101D4000204600F0ABF80020207620680069C0F340
:101D50008000D8B12068C068C0F38000B0B16FF0D7
:101D6000040021680861022020762068806900F460
:101D7000407018B12046FFF7C4FF05E0204600F090
:101D80008CF8204600F08AF8002020762068006950
:101D9000C0F3C000D8B12068C068C0F3C000B0B1C3
:101DA0006FF0080021680861042020762068C0696F
:101DB00000F0030018B12046FFF7A3FF05E020461E
:101DC00000F06BF8204600F069F8002020762068CB
:101DD0000069C0F30010D8B12068C068C0F30010DB
:101DE000B0B16FF0100021680861082020762068EB
:101DF000C06900F4407018B12046FFF782FF05E08B
:101E0000204600F04AF8204600F048F800202076EE
:101E10002068006900F0010058B12068C06800F037
:101E2000010030B16FF0010021680861204600F028
:101E300036F820680069C0F3C01058B12068C06847
:101E4000C0F3C01030B16FF08000216808612046F7
:101E5000FFF7E1FE20680069C0F3801058B12068E8
:101E6000C068C0F3801030B16FF040002168086195
:101E7000204600F015F820680069C0F3401058B102
:101E80002068C068C0F3401030B16FF020002168B6
:101E900008612046FFF7C0FE10BD704770477047CD
:101EA000704770472DE9F0470446206805682068B0
:101EB000C668206847694FF00008C14605F00F0862
:101EC000B8F1000F0AD105F0200038B106F020006B
:101ED00020B1204600F07CFFBDE8F087B8F1000F8C
:101EE0006DD007F0010018B906F49070002866D094
:101EF00005F0010030B106F4807018B1E06B40F0DD
:101F00000100E06305F0040030B107F0010018B1F2
:101F1000E06B40F00200E06305F0020030B107F032
:101F2000010018B1E06B40F00400E06305F0080028
:101F300030B107F0010018B1E06B40F00800E06339
:101F4000E06B68B305F0200028B106F0200010B166
:101F5000204600F03DFF20684069C0F38019E06B27
:101F600000F0080010B9B9F1000F22D0204600F0AF
:101F70000FFF2068406900F04000B0B12068406960
:101F800020F0400021684861606B50B11748616BD8
:101F90000865606BFFF78FF810B1606B016D8847C3
:101FA0000CE02046FFF77DFF08E02046FFF779FFB1
:101FB00004E02046FFF775FF0020E0638CE705F0A2
:101FC000800030B106F0800018B1204601F002F91F
:101FD00082E705F0400030B106F0400018B120461D
:101FE00000F0E6FE78E700BF76E700007D2D0008F0
:101FF00010B504460CB9012010BDA06900B100E085
:1020000000BF94F8390028B9002084F83800204631
:1020100000F028F8242084F839002068C06820F4F3
:1020200000502168C860204600F020FF2068006949
:1020300020F49040216808612068406920F02A005F
:10204000216848612068C06840F400502168C86079
:102050000020E063202084F8390084F83A00002052
:10206000CAE7000010B586B00446254920688842BA
:102070001FD100BF002000902248006840F01000EF
:10208000204908600846006800F01000009000BF7A
:1020900000BF4FF4C0600190022002900120039025
:1020A000032004900720059001A91748FFF72CF89A
:1020B00023E01649206888421FD100BF002000900D
:1020C0001048001F006840F400300E49091F0860E6
:1020D0000846006800F40030009000BF00BF0C20EC
:1020E0000190022002900120039003200490072019
:1020F000059001A90448FFF707F806B010BD0000DD
:1021000000100140443802400000024000440040FA
:1021100010B5034693F83A00202829D101B10AB935
:10212000012010BD00BF93F83800012801D1022022
:10213000F7E7012083F8380000BF99629A85DA85B5
:102140000020D863222083F83A0000BF002083F8E3
:10215000380000BF1868406940F001001C686061E9
:102160001868C06840F490701C68E0600020D8E7F0
:102170000220D6E770472DE9F84304460D4616467F
:102180001F464FF0000994F8390020285CD105B1B2
:1021900016B90120BDE8F88300BF94F83800012883
:1021A00001D10220F6E7012084F8380000BF0020AA
:1021B000E063212084F83900FFF7B8F88146A6844F
:1021C000E6842BE0E08C401EE084A068B0F5805FE0
:1021D00016D14B46002280212046009701F02EF8B0
:1021E00008B10320D6E7A846B8F80000C0F30800FD
:1021F00021684860206908B9AD1C0FE06D1C0DE036
:102200004B46002280212046009701F017F808B1C4
:102210000320BFE715F8010B21684860E08C002817
:10222000D0D14B46002240212046009701F006F80D
:1022300008B10320AEE7202084F8390000BF002059
:1022400084F8380000BFA5E70220A3E7704700BF6D
:10225000FEE7000000B500200F4908600F48006845
:1022600020F440400D4908600846006840F4804072
:10227000086000200A49C1F89C02142000F012F8FE
:10228000012005490860022000F00CF800200449F4
:10229000C1F8980200BD000098824042000402404C
:1022A0000080404206E0102100BF0A1EA1F1010398
:1022B00099B2FAD1021EA0F10103D8B2F3D170474E
:1022C00070B5064600241448006820F440401249C6
:1022D0000860084600680860002519E000200F49E2
:1022E00008600520FFF7DEFF01200D49C1F89802C4
:1022F0006006040E0520FFF7D5FF08487C3800680B
:1023000008B1601CC4B20520FFF7CCFF681CC5B241
:10231000082DE3DB204670BD000402409882404255
:102320000080404230B504461548006820F4404023
:10233000134908600846006840F4804008600020A7
:1023400010490860002517E0E0090E49091D0860E2
:102350006006040E0520FFF7A5FF01200A49C1F819
:1023600098020520FFF79EFF00200649086005201F
:10237000FFF798FF681CC5B2082DE5DB30BD0000F3
:1023800000040240988240420080404200B511485B
:10239000006820F440400F4908600846006840F497
:1023A0008040086001200C4908600C49C1F898027F
:1023B0000420FFF777FF0020074908600420FFF79B
:1023C00071FF00200549C1F898020420FFF76AFF59
:1023D00000BD0000000402409C8240420080404258
:1023E00000B51048006820F440400E4908600846D7
:1023F000006840F48040086000200B4908600B49E9
:10240000C1F89C020420FFF74DFF01200649086037
:10241000FFF748FF01200549C1F89C020420FFF79F
:1024200041FF00BD000402409882404200804042CB
:1024300010B500241348006820F44040114908609A
:1024400008460068086001200F490860FFF72AFF6E
:1024500001200E49C1F89802FFF724FF08E0601C34
:1024600084B2B4F5FA7F03DDFFF7BAFF012010BD97
:102470000548803800680028F1D10349091F086029
:1024800000BFF4E7000402409C82404200804042CA
:1024900000B587B000BF002001904C48006840F0B4
:1024A00080004A4908600846006800F080000190FA
:1024B00000BF00BF00BF002001900846006840F048
:1024C000040008600846006800F00400019000BFA6
:1024D00000BF00BF002001900846006840F00100E6
:1024E00008600846006800F00100019000BF00BFCE
:1024F00000BF002001900846006840F0020008601C
:102500000846006800F00200019000BF00BF0122F1
:1025100003212F48FEF704FF012203212D48FEF777
:10252000FFFE00224BF6C0412A48FEF7F9FE0320C9
:1025300002900120039000200490059002A92448F5
:10254000FEF7E2FD04200290002003900120049099
:1025500002A91F48FEF7D8FD032002900120039036
:1025600000200490059002A91A48FEF7CDFD4FF413
:102570003C4002900120039000200490032005902D
:1025800002A91448FEF7C0FD4FF4804002900020DD
:102590000390049002A90F48FEF7B6FD2020029098
:1025A000002003900120049002A90A48FEF7ACFD28
:1025B000C020029011200390002004900320059079
:1025C00002A90448FEF7A0FD07B000BD3038024064
:1025D000000802400004024010B5002211463620D7
:1025E000FEF732FF3620FEF722FF002201212520D0
:1025F000FEF72AFF2520FEF71AFF002202212620DF
:10260000FEF722FF2620FEF712FF10BD1CB50F4873
:102610000F49086040F24730486000210C48816053
:102620006421C160FFF72AFB18B13C2109A000F02A
:1026300023FF00200090019069460548FFF7EDFA5E
:1026400018B1432103A000F017FF1CBD001000408B
:10265000880000202E2E2F5372632F74696D2E6315
:102660000000000010B50C480C4908604FF4E13040
:102670004860002109488160C16001610C2141610D
:1026800000218161C161FFF7B3FC18B1432104A0AF
:1026900000F0F2FE10BD000000100140C400002058
:1026A0002E2E2F5372632F75736172742E63000088
:1026B00010B50C480C4908604FF4E1304860002127
:1026C00009488160C16001610C2141610021816183
:1026D000C161FFF78DFC18B1562104A000F0CCFEBB
:1026E00010BD000000440040040100202E2E2F5396
:1026F00072632F75736172742E63000000BFFEE772
:102700007047000002480068C0F3022070470000D4
:102710000CED00E010B5002807DA0A07140E054A90
:1027200000F00F031B1FD45403E00A07130E024AE4
:10273000135410BD18ED00E000E400E0704770474E
:1027400010B5FEF7F9FDFFF762FA10BD10B592B0B3
:1027500000BF002000902F48006840F080502D49B5
:1027600008600846006800F08050009000BF00BF7D
:1027700000BF002000902848006840F480402649AF
:1027800008600846006800F48040009000BF00BF69
:10279000012006900004079002200C9041050D9145
:1027A00019210E914FF4A8710F910221109104216B
:1027B000119106A8FEF7D8FF18B1A82117A000F0C4
:1027C0005BFE0F20019002200290002003904FF446
:1027D000A05004904FF480500590052101A8FEF709
:1027E00085FE18B1B6210DA000F046FEFEF73EFFB3
:1027F0004FF47A71B0FBF1F42046FFF7EEF90420B4
:10280000FFF7D6F900221146501EFEF71DFE12B04A
:1028100010BD000040380240007000402E2E2F53A3
:1028200072632F6D61696E2E6300000014480068AA
:1028300040F47000124908601248006840F001003E
:102840001049086000200F49083108600D480068F1
:102850000D4908400B4908600C48091D0860081F15
:10286000006820F48020091F0860002005490C3111
:1028700008604FF00060024980390860704700002E
:1028800088ED00E000380240FFFFF6FE1030002423
:1028900010B524480068401C2249086008460068BA
:1028A0000521B0FBF1F201FB120010B901201E4915
:1028B00008701C4800680A21B0FBF1F201FB12000D
:1028C00010B9012019490870164800683221B0FB80
:1028D000F1F201FB120010B90120154908701148EE
:1028E00000686421B0FBF1F201FB120010B9012075
:1028F000104908700B4800684FF47A71B0FBF1F290
:1029000001FB120050B901200B49087001210B484E
:10291000FEF702FD01210A48FEF7FEFC0948FFF719
:10292000F1F910BD10000020140000201500002057
:1029300016000020170000201800002000040240AC
:102940000008024088000020002202682C4B9842B8
:102950000ED0B0F1804F0BD02A4B984208D02A4BB2
:10296000984205D0294B984202D0294B984201D178
:10297000012300E000231BB122F070024B681A43D0
:102980001F4B984220D0B0F1804F1DD01D4B984274
:102990001AD01D4B984217D01C4B984214D01C4B98
:1029A000984211D01B4B98420ED01B4B98420BD033
:1029B0001A4B984208D01A4B984205D0194B9842AE
:1029C00002D0194B984201D1012300E000231BB132
:1029D00022F44072CB681A4302608B68C3620B68B2
:1029E0008362074B984202D0094B984201D10123E0
:1029F00000E000230BB10B690363012343617047BF
:102A0000000001400004004000080040000C0040AD
:102A100000040140004001400044014000480140E2
:102A200000180040001C00400020004010B5044683
:102A3000207818B10020207000F07CFC10BD000050
:102A400030B52DED068B87B00446207800287CD069
:102A5000002020706D48806818B96DA000F00EFD50
:102A600010E06A488068B0F5003F03D16AA000F02A
:102A700005FD07E065488068B0F5802F02D168A0A9
:102A800000F0FCFC684890ED080B8DED040B90ED18
:102A9000060B8DED020B90ED020B8DED000B90ED12
:102AA000001BB0EE410AF0EE610A53EC102B5FA060
:102AB00000F0E4FC5C4890F82800012803D165A0F0
:102AC00000F0DCFC0FE0584890F8280018B963A02B
:102AD00000F0D4FC07E0544890F82800022802D106
:102AE00060A000F0CBFC0020FDF789FF0509294616
:102AF0005EA000F0C3FC4FF40030FDF780FF050935
:102B000029465DA000F0BAFC4FF48040FEF730F893
:102B10000546FDF70EFD41EC1A0B9FED5A0B53ECE9
:102B2000102BFDF797FC41EC190B9FED580B53EC64
:102B3000102BFDF71DFC41EC180B53EC182B55A086
:102B400000F09CFC4FF4A04000E05AE0FEF710F8C3
:102B50000546FDF7EEFC41EC1A0B9FED4A0B53ECDA
:102B6000102BFDF777FC41EC190B9FED480B53EC54
:102B7000102BFDF7FDFB41EC180B53EC182B48A074
:102B800000F07CFC4FF4C040FDF7F2FF0546FDF776
:102B9000D0FC41EC1A0B9FED3B0B53EC102BFDF7D7
:102BA00059FC41EC190B9FED390B53EC102BFDF741
:102BB000DFFB41EC180B53EC182B3CA000F05EFC43
:102BC0004FF4E040FDF7D4FF0546FDF7B2FC41ECC1
:102BD0001A0B9FED2C0B53EC102BFDF73BFC41EC3B
:102BE000190B9FED2A0B53EC102BFDF7C1FB41ECA9
:102BF000180B53EC182B30A000F040FC31A000F073
:102C00003DFC07B0BDEC068B30BD0000200000206D
:102C10004441302000000000444131200000000009
:102C2000444130312000000048000020416D703ADE
:102C3000252E3266204672713A252E326620596F53
:102C400066663A252E326620447574793A252E320E
:102C5000662000005479703A532000005479703A8D
:102C6000442000005479703A502000004F757430B1
:102C70003A256420000000004F7574313A25642025
:102C800000000000000000000000E040FA7E6ABC86
:102C900074931840433A25342E33665620000000C2
:102CA000563A25342E33665620000000463A253425
:102CB0002E33665620000000473A25342E336656E0
:102CC000200000000D0A000010B52DED0A8B00F069
:102CD00007FB1749C868FDF73DFC41EC1A0B144986
:102CE0004868FDF737FC41EC1C0B53EC1C2B9FEDA7
:102CF000110B51EC100BFDF7ADFB41EC1B0B53EC32
:102D00001A2BFDF7A7FB41EC190B9FED0C0B53ECB5
:102D1000102BFDF79FFB41EC180B53EC182B09A06F
:102D200000F0ACFB0EA000F0A9FBBDEC0A8B10BDBF
:102D30008800002000000000F4069441000000001C
:102D400000408F405468652074696D6562617365E9
:102D500020697320252E3166206D732E200D0A0008
:102D60002D2D2D2D2D2D2D2D2D2D2D2D2D2D2D2D93
:102D70002D2D2D2D2D2D2D2D200D0A0070B5054644
:102D8000AC6B0020E085E0842046FFF78AF870BD38
:102D90000168C96821F490710268D16001684969CD
:102DA00021F0010102685161202180F83A1070473A
:102DB00010B504462068C06820F040002168C86053
:102DC000202084F839002046FFF740FA002010BD8B
:102DD00070B5044694F83A00222844D1A068B0F5B2
:102DE000805F13D1A56A206940B920684068C0F3AC
:102DF00008002880A06A801CA06219E02068406852
:102E0000C0B22880A06A401CA06211E0206938B9D5
:102E100020684068C1B2A26A501CA062117007E02D
:102E20002068406800F07F01A26A501CA062117007
:102E3000E08D401E80B2E08598B92068C06820F41B
:102E400090702168C8602068406920F00100216806
:102E50004861202084F83A002046FFF78BF90020D3
:102E600070BD0020FCE70220FAE700002DE9F041E8
:102E7000044600252068056925F44055E0680543AF
:102E8000206805612068C56849F20C6085432169A6
:102E9000A068084361690843E16908430543206865
:102EA000C5602068456925F44075A0690543206820
:102EB0004561E069B0F5004F7ED1C4492068884281
:102EC00003D0C349206888425DD1FEF7E5FB00EBE3
:102ED000C00101EB001061684900B0FBF1F0642112
:102EE000B0FBF1F00601FEF7D7FB00EBC00101EBF0
:102EF000001061684900B0FBF1F7FEF7CDFB00EB75
:102F0000C00101EB001061684900B0FBF1F06421E1
:102F1000B0FBF1F000EBC00101EB0010A7EB80006B
:102F2000322101EBC0006421B0FBF1F000F0F800A9
:102F300006EB4006FEF7B0FB00EBC00101EB001012
:102F400061684900B0FBF1F7FEF7A6FB00EBC0019A
:102F500001EB001061684900B0FBF1F06421B0FBA7
:102F6000F1F000EBC00101EB0010A7EB8000322173
:102F700001EBC0006421B0FBF1F000F00700304429
:102F80002168886020E1FEF777FB00EBC00101EBD0
:102F9000001061684900B0FBF1F06421B0FBF1F072
:102FA0000601FEF769FB00EBC00101EB0010616850
:102FB0004900B0FBF1F700E045E0FEF75DFB00EBF8
:102FC000C00101EB001061684900B0FBF1F0642121
:102FD000B0FBF1F000EBC00101EB0010A7EB8000AB
:102FE000322101EBC0006421B0FBF1F000F0F800E9
:102FF00006EB4006FEF740FB00EBC00101EB0010C2
:1030000061684900B0FBF1F7FEF736FB00EBC00149
:1030100001EB001061684900B0FBF1F06421B0FBE6
:10302000F1F000EBC00101EB0010A7EB80003221B2
:1030300001EBC0006421B0FBF1F000F00700304468
:1030400021688860C0E061492068884203D06049F7
:10305000206888425CD1FEF71FFB00EBC00101EB4A
:10306000001061688900B0FBF1F6FEF715FB00EB7C
:10307000C00101EB001061688900B0FBF1F0642130
:10308000B0FBF1F000EBC00101EB0010A6EB8000FB
:10309000322101EB00106421B0FBF1F000F0F006EA
:1030A000FEF7FAFA00EBC00101EB0010616889003D
:1030B000B0FBF1F06421B0FBF1F006EB0016FEF777
:1030C000EBFA00EBC00101EB001061688900B0FB76
:1030D000F1F7FEF7E1FA00EBC00101EB00106168C7
:1030E0008900B0FBF1F06421B0FBF1F000EBC0010E
:1030F00001EB0010A7EB8000322101EB00106421EE
:10310000B0FBF1F000F00F003044216888605BE014
:10311000FEF7B2FA00EBC00101EB00106168890014
:10312000B0FBF1F6FEF7A8FA00EBC00101EB0010CE
:1031300061688900B0FBF1F06421B0FBF1F000EBB5
:10314000C00101EB0010A6EB8000322101EB001062
:103150006421B0FBF1F000F0F006FEF78DFA00EB11
:10316000C00101EB001061688900B0FBF1F064213F
:10317000B0FBF1F006EB0016FEF77EFA00EBC001A3
:1031800001EB001061688900B0FBF1F7FEF774FAFB
:1031900000EBC00101EB001061688900B0FBF1F0A9
:1031A0006421B0FBF1F000EBC00101EB0010A7EBD4
:1031B0008000322101EB00106421B0FBF1F000F03F
:1031C0000F00304421688860BDE8F08100100140A4
:1031D00000140140014691F8390021282CD188685B
:1031E000B0F5805F0FD10A6A1088C0F308000B6841
:1031F0005860086918B9086A801C086209E0086A02
:10320000401C086205E00B6A581C086218780B68BD
:103210005860C88C401E80B2C88458B90868C0681D
:1032200020F080000B68D8600868C06840F040005B
:103230000B68D860002070470220FCE72DE9F041C0
:1032400004460D4617469846069E21E0701CF8B1CC
:103250002EB1FEF76BF8A0EB0800B04218D9206839
:10326000C06820F4D0702168C8602068406920F0F0
:10327000010021684861202084F8390084F83A0070
:1032800000BF002084F8380000BF0320BDE8F081B3
:10329000206800682840A84201D1012000E00020F9
:1032A000B842D3D00020F1E710B50648FEF7FAFD8A
:1032B0000548FDF7FDFC012203490248FEF728FFFF
:1032C00010BD0000C40000200D00002010B5024811
:1032D000FEF7E8FD10BD00000401002000BFFEE77E
:1032E0009FED0D0B0E4880ED000B9FED0E0B80ED5A
:1032F000080B9FED090B80ED020B9FED0C0B80ED91
:10330000040B0020064981F828009FED080B0846B1
:1033100080ED060B70470000000000000000F03F49
:1033200048000020000000000000E03F0000000016
:103330000000000010B52DED0C8B9FED460BB0EE9C
:10334000408AF0EE608A454890ED021BB0EE410ADB
:10335000F0EE610A53EC102B9FED411B51EC110B69
:10336000FDF706F841EC190B3C4890F828000128BD
:1033700059D13D4890ED000B53EC102B51EC190B3B
:10338000FCF7F6FF41EC1D0B344890ED041BB0EE4A
:10339000410AF0EE610A53EC102B51EC1D0BFCF7C7
:1033A00040FF41EC1C0BB0EE4C0AF0EE6C0A00F052
:1033B0008FF8B0EE40BAF0EE60BA284890ED001BEE
:1033C000B0EE410AF0EE610A53EC102B51EC1B0BEE
:1033D000FCF7CEFF41EC1A0B204890ED061BB0EE37
:1033E000410AF0EE610A53EC102B51EC1A0BFCF77A
:1033F00018FF41EC180B1D49886881ED008BB0EE79
:10340000480AF0EE680AFDF7E3FA9FED190B53EC5A
:10341000102B154890ED000B51EC100BFCF701FF41
:10342000114A03C213E00D4890F8280070B90F4903
:1034300088680A4991ED001B0C4981ED001BB0EE34
:10344000410AF0EE610AFDF7C3FA00E000BFBDECEF
:103450000C8B10BD000000000000000048000020A0
:10346000A7E8482EFF211940780000202000002006
:103470007B14AE47E17A743F00BFFEE70FB4054B03
:1034800010B503A9044A029800F072FD10BC5DF863
:1034900014FB0000B94600088000002003B4019826
:1034A0004100009850EAC12018BF04204A0D18BFFF
:1034B00040F0010040F2FF72B2EB515F08BF40F0F4
:1034C0000200012808BF052002B07047000000007C
:1034D00010B52F499FED2C1B2DED020B84B00598E4
:1034E00020F000408842DCBF00209DED040B32DD5F
:1034F0002849884209D1049840B94FF0010000F0F2
:103500006FFC00F03DFC06B010BD05DB9DED040B2B
:1035100000F02AFC06B010BD68469DED040B00F0DB
:103520003BF810F0030011D0012818D09DED021BCC
:103530009DED000B02281AD000F04AFA51EC100B56
:1035400081F0004106B041EC100B10BD9DED021B57
:103550009DED000B012000F06FFB06B010BD9DED4E
:10356000021B9DED000B00F033FA06B010BD0120E8
:1035700000F062FB51EC100B81F0004106B041EC11
:10358000100B10BD00000000000000000000000053
:10359000FB21E93F0000F07F2DE9F14F04462DEDBE
:1035A000020B2DED088B8AB09FEDE70B80ED020B2F
:1035B000139EE74826F0004585420ADC9DED120B7C
:1035C000002084ED000B0AB0BDEC088B03B0BDE811
:1035D000F08FE0489FEDE0AB9FEDE1BBA84247DDF7
:1035E000E14F9FEDE39B9FEDE48B9DED120B53ECC0
:1035F0001A2B51EC100B002E1CDDFCF7B3FE41EC36
:10360000100BBD4208D053EC1B2B51EC100BFCF7F8
:10361000A9FEC4E900010BE053EC192B51EC100B8F
:10362000FCF7A0FE53EC182BFCF79CFEC4E900014C
:103630000120C8E7FCF7F5FD41EC100BBD4208D0B6
:1036400053EC1B2B51EC100BFCF7EBFDC4E9000114
:103650000BE053EC192B51EC100BFCF7E2FD53EC93
:10366000182BFCF7DEFDC4E900014FF0FF30AAE79C
:10367000C348A84279DB9DED120B51EC100B01F011
:103680000EF841EC180B9FEDC00B53EC102BFCF720
:103690006FFE9FEDBF1B53EC112BFCF7C2FDFDF736
:1036A0007DF80746FCF745FF41EC190B53EC1A2B4C
:1036B000FCF75EFE53EC182BFCF757FE41EC180BA1
:1036C00053EC1B2B51EC190BFCF752FEDFF8C8A290
:1036D00041EC100B4FEA15580125FA4453EC102B1E
:1036E00051EC180BFCF73EFE032DC4E900013DD060
:1036F000C1F30A5005EB4511A8EB000011398142D6
:1037000034DA0AEB051BB0EE48AA9BED000BF0EE95
:1037100068AA53EC102B51EC190BFCF729FE41EC75
:103720001B0B51EC1A0B53EC1B2BFCF71BFE41EC53
:10373000180B51EC1A0B53EC182BFCF713FE53EC3F
:103740001B2BFCF70FFE9BED020B41EC1A0B53EC0D
:10375000102B51EC190BFCF70BFE53EC1A2BFCF75A
:1037600001FE41EC100B6D1CB8E70EE0002EA8BF67
:103770003846BFF628AF94ED000B51EC100B81F0EA
:103780000041C4E9000178421DE7C6F3130040F48C
:10379000801EC6F30A50A0F2F530471100F01F0555
:1037A000C5F12000DDF848B0089000200690079091
:1037B0000520EC467949002D07EB0002794408BF4B
:1037C00051F8221009D051F8223001EB8201AB40B0
:1037D0004A68089922FA01F11943A1FB0E26A1FBC0
:1037E0000B131A449A4234BF0123002303EB06084B
:1037F0000CEB8003D3E901A60E448E4234BF0121B5
:10380000002192448A4411B1924502D903E09245C5
:1038100001D2012100E00021C3E901A641444CF896
:103820002010011EA0F10100C4DC029800F100503C
:10383000850F0298DDE903678000DDF81480FCF74E
:1038400078FE41EC1A0B3046FCF784FE9FED541BCA
:1038500053EC112BFCF78CFD41EC1B0B3846FCF7AD
:1038600079FE9FED511B53EC112BFCF781FD41ECD0
:10387000180B4046FCF76EFE9FED4D1B53EC112BD1
:10388000FCF776FD41EC190B51EC180B53EC192B9E
:10389000FCF7C7FC53EC1B2BFCF7C3FC53EC1A2BB7
:1038A000FCF7BFFCCDE90801002008909DED080B56
:1038B00053EC1A2B51EC100BFCF754FD53EC1B2B63
:1038C000FCF750FD53EC182BFCF74CFD53EC192B77
:1038D000FCF74BFD9FED381B53EC112BFCF748FD1B
:1038E0009FED370B41EC180B53EC102B9DED080BA3
:1038F00051EC100BFCF73CFD53EC182BFCF791FC42
:103900009FED310B41EC180B53EC102B9DED080B88
:1039100051EC100BFCF72CFD53EC182BFCF781FC41
:1039200041EC100B139810F0004F06D06D4251EC93
:10393000100B81F0004141EC100B284684ED000B88
:1039400041E6000000000000000000000000000050
:10395000FB21E93F7CD9024000004054FB21F93FA4
:103960003163621A61B4D03DFB21F93F00000000D1
:103970000000601A61B4D03D7370032E8A19A33B16
:10398000FB2139410000000083C8C96D305FE43F6E
:10399000000000000000E03F9A100000E80F000067
:1039A000000000000000103E000000000000103C7D
:1039B000000000000000103A182D4454FB21F93D8E
:1039C0003326A611460B113C00000054FB21F93DA3
:1039D00010B52DED040B2DED088B82B0B0EE419AA1
:1039E000F0EE619A0B9820F000449FED4BABB4F1E0
:1039F000795F11DA9DED0A0B51EC100BFCF7CEFE4E
:103A0000002801BFB0EE4A0AF0EE6A0A02B0BDEC2F
:103A1000088B04BF04B010BD9DED0A0B53EC102BB6
:103A200051EC100BFCF7A4FC41EC180B3C480621B0
:103A3000B0EE480AF0EE680A784400F081F853ECE2
:103A4000182B51EC100BFCF793FC9DED0A0B41EC8D
:103A50001B0B53EC192B51EC100BFCF789FC41ECC0
:103A6000190B53EC1B2B51EC180BFCF781FC53EC9E
:103A7000192BFCF777FC9FED2C0B41EC190B53EC49
:103A8000102B51EC180BFCF773FC41EC100B284881
:103A9000844210DA53EC192B51EC100BFCF762FC4A
:103AA00053EC1A2BFCF761FC41EC100B02B0BDEC9F
:103AB000088B04B010BD1F48A042BCBF9FED1E1B69
:103AC0008DED001B06DBA4F5001001900020009096
:103AD0009DED001B51EC100B53EC112BFCF742FC3D
:103AE0009DED000B41EC180B53EC102B51EC1A0B15
:103AF000FCF738FC41EC1A0B53EC192B51EC180B6A
:103B0000FCF730FC53EC1A2BFCF72FFC41EC100BAC
:103B1000CCE7000000000000000000000000F03FC3
:103B20000C0D000000000000000000000000E03F5D
:103B30003333D33F0000E93F000000000000D23FD4
:103B400070B504462DED028B4D1E00EBC500B0EEA6
:103B5000408AF0EE608A90ED000B35F0060017D039
:103B600053EC182B51EC100BFCF702FC41EC100B42
:103B70006D1E04EBC50090ED001B51EC100B53ECD7
:103B8000112BFCF74EFB41EC100B35F00600E7D192
:103B9000022D36D0042D1CD0062D1CBFBDEC028B8F
:103BA00070BD53EC182B51EC100BFCF7E1FB94EDBE
:103BB0000A1B53EC112BFCF734FB53EC182BFCF7CE
:103BC000D7FB94ED081B53EC112BFCF72AFB41ECBF
:103BD000100B53EC182B51EC100BFCF7C9FB94EDB8
:103BE000061B53EC112BFCF71CFB53EC182BFCF7BA
:103BF000BFFB94ED040B53EC102BFCF712FB41ECD4
:103C0000100B53EC182B51EC100BFCF7B1FB94ED9F
:103C1000021B53EC112BFCF704FB53EC182BFCF7A5
:103C2000A7FB94ED001B53EC112BFCF7FAFABDEC4B
:103C3000028B41EC100B70BD31B504462DED040B29
:103C40002DED0A8BB0EE41BAF0EE61BA0B989DED06
:103C50000A0B20F00040B0F1795F0DDA51EC100B47
:103C6000FFF71CFC042808BF00F09AF89DED0A0B32
:103C7000BDEC0A8B05B030BD53EC102B51EC100B92
:103C8000FCF776FB41EC180B9DED0A0B53EC182B5F
:103C900051EC100BFCF76CFB41EC190B2C48B0EE0F
:103CA000480AF0EE680A05217844FFF749FF9FEDC6
:103CB0002ACBB0EE40AAF0EE60AA9CB353EC1C2BCA
:103CC00051EC190BFCF754FB41EC1C0B53EC1A2B79
:103CD00051EC190BFCF74CFB9FED210B41EC190B40
:103CE00053EC102B51EC1B0BFCF742FB53EC192B44
:103CF000FCF738FB53EC182BFCF73AFB53EC1B2B6F
:103D0000FCF730FB53EC1C2BFCF72CFB9DED0A1B46
:103D100053EC112BFCF729FBBDEC0A8B05B041ECF1
:103D2000100B30BDFFE753EC1A2B51EC180BFCF7CE
:103D30001FFB53EC1C2BFCF774FA53EC192BFCF70C
:103D400017FB9DED0A1B53EC112BFCF76AFAE3E716
:103D5000940B000000000000495555555555C5BF4E
:103D6000000000000000E03F10B553EC102B51ECB8
:103D7000100BFCF756FA41EC100B10BD00000000D0
:103D80009FED050B10B553EC102B51EC100BFCF70D
:103D900061FB41EC100B10BD0000000000000000B2
:103DA0009FED050B10B553EC102B51EC100BFCF7ED
:103DB000DFFA41EC100B10BD000000000000001005
:103DC00002E008C8121F08C1002AFAD170477047E4
:103DD000002001E001C1121F002AFBD17047000042
:103DE0000149086070470000840000202DE9FF5F52
:103DF00082B00021DDE90430020DDDF840B003435C
:103E000018D044F61050A2F2FF3242431514119814
:103E100001281FD0A5EB0B00401C5FEA000A4FF001
:103E200000064E4FDFF83891B046504615D5CAF11E
:103E3000000413E0119801244AA3012801D16FEA7C
:103E40000B010298119AC0E90031C0E9024206B0A4
:103E5000BDE8F09FCBF10000DFE704460021404AB7
:103E6000491842EB0450CDE9001012E0E00707D0FA
:103E700032463B4640464946FCF77AFA8046894638
:103E800032463B4610461946FCF772FA06460F4684
:103E90006410002CEAD1DDE90401DDE90023BAF168
:103EA000000F06DAFCF764FA42464B46FCF760FA6C
:103EB00005E0FCF7CFFA42464B46FCF7CBFA044646
:103EC0000E460022284BFCF783FB03D84FF0FF304F
:103ED000014607E00022254B20463146FCF7A1F9B8
:103EE000FCF732FC102409E0002C0ADB0A22002334
:103EF000FCF766F9039B30321A55641E50EA010242
:103F0000F2D1641C039AC4F111031444119A012ADA
:103F100003D0012208430DD10AE0084304D0002059
:103F20004FF0110B119072E7A3EB0B056D1E0DE026
:103F30005B4504DD4FF0000205F1010504E003DA02
:103F40004FF00002A5F10105002AECD0029811996A
:103F5000C0E90231C0E9004579E7000000001440E3
:103F60000000F03F300000000000F0430000E03FA0
:103F70002DE9FF4F95B09B468946064600250FE286
:103F8000252877D100242746F84A0121059400E02E
:103F9000044316F8013F203B01FA03F01042F7D129
:103FA00030782A2811D06FF02F033078A0F130023A
:103FB000092A16D8059A44F0020402EB820203EBA8
:103FC00042021044761C0590EFE759F8042B059245
:103FD000002A03DA504244F40054059044F00204ED
:103FE000761C30782E2816D116F8010F44F0040400
:103FF0002A280DD06FF02F023078A0F13003092B62
:1040000009D807EB870302EB4303C718761CF3E7D5
:1040100059F8047B761C30786C280FD006DC4C28CD
:1040200017D068280DD06A2814D104E0742810D065
:104030007A280FD10DE044F400140AE044F480140F
:1040400001E044F440147278824202D104F58014F5
:10405000761C761C307866280BD013DC582877D075
:1040600009DC002875D04528F6D04628F4D047282A
:104070001AD19DE118E0632835D0642879D06528ED
:1040800012D195E1702873D008DC6728F1D0692837
:104090006FD06E280DD06F2806D1B5E073282CD0D4
:1040A000752875D0782874D05A46179990476D1C9A
:1040B00075E1C4F30250022809D003280DD0D9F8C5
:1040C000001004280DD00D6009F1040967E1D9F84A
:1040D0000010EA17C1E90052F6E7D9F800100D8088
:1040E000F2E70D70F0E719F8041B8DF800100020BE
:1040F0008DF80100EA46012003E059F804AB4FF0C7
:10410000FF3061074FF0000102D40DE008F101011A
:104110008846B9420FDA8045F8DB1AF80810002902
:10412000F4D108E008F1010188468142FADB1AF86F
:1041300008100029F6D105985B46A0EB0807214638
:104140003846179A00F094FA284400EB080507E077
:104150004DE029E10DE01AF8010B5A4617999047F6
:10416000B8F10108F7D25B4621463846179A13E1A9
:1041700042E00A220092C4F302524FF0000A022ADF
:1041800008D059F804CB032A4FEAEC710AD00DE0AD
:1041900029E02AE009F1070121F00702F2E802C153
:1041A000914609E00FFA8CFC4FEAEC71042A03D126
:1041B0004FFA8CFC4FEAEC71002907DA0A4600211D
:1041C000DCF1000C61EB02012D2202E0220504D596
:1041D0002B228DF80420012203E0E20701D02022E7
:1041E000F7E7904659E00A2102E010220DE0102185
:1041F0004FF0000A00910BE010224FF0000A44F04B
:1042000004040827009203E008224FF0000A0092FD
:10421000C4F30252022A05D059F804CB0021032A24
:1042200008D009E009F1070121F00702F2E802C114
:10423000914605E01FFA8CFC042A01D10CF0FF0C1A
:104240004FF00008220728D5702806D0009B83F085
:10425000100353EA0A0305D00EE040228DF8042033
:10426000012208E05CEA010206D030228DF8042029
:104270008DF8050002229046009B83F0080353EA64
:104280000A030AD15CEA010201D1620705D5302296
:104290008DF804204FF001087F1E582804D034A068
:1042A00003900EA802900DE036A0F9E75346604651
:1042B000009AFBF785FF84460398825C0298401EB3
:1042C000029002705CEA0100F0D1029806A9081A77
:1042D00000F1200A600702D524F4803400E00127B1
:1042E000574502DDA7EB0A0000E0002000EB0A01C1
:1042F000009005984144401A0590E00306D45B46BF
:104300002146179A059800F0B3F90544002706E006
:1043100001A85A46C05D179990476D1C7F1C474500
:10432000F6DBE0030CD55B462146179A059800F0B2
:104330009FF9054404E030205A46179990476D1CB8
:104340000099481E00900029F5DC08E002980299C7
:104350005A460078491C0291179990476D1CBAF192
:104360000001AAF1010AF1DC65E100000928010061
:1043700030313233343536373839616263646566DB
:10438000000000003031323334353637383941429D
:10439000434445460000000000F058F90544761CEF
:1043A000307800287FF4ECAD19B02846BDE8F08FD6
:1043B000620700D4062709F1070222F0070CFCE887
:1043C0000223E14603F000485FEA080C02D00FF236
:1043D000702C0DE05FEA045C02D50FF2682C07E058
:1043E0005FEAC47C02D00FF2602C01E0AFF2700CE7
:1043F0004FF0FF3823F00043CDF850C065280CD0B3
:1044000006DC452809D046281DD047283DD13DE08F
:10441000662818D067287ED138E00021112F01DBF3
:10442000112000E0781CCDE9000106A90EA8FFF7D5
:10443000DDFCDDE90F010E9A03910021009207F1E6
:10444000010A04914DE04FF000400097CDE90110C2
:1044500006A90EA8FFF7CAFCDDE90F0203920E9B26
:1044600011990022DDF80CA00093049211B9791C77
:1044700000EB010AB7EB0A0004D4C0F1FF3007F1EA
:10448000010A0490AAEB0700019044E0012F00DA32
:1044900001270021112F01DD112000E03846CDE970
:1044A000000106A90EA8FFF7A1FCDDE90F010E9A95
:1044B0000391002104910092BA4621070CD403997C
:1044C000514500DA8A46BAF1010F05DD009AAAF1DA
:1044D0000101515C302908D0B84202DA10F1040F12
:1044E00006DA0121CDE9011015E0AAF10101E9E7A1
:1044F000002805DC049901440491AAEB000102E0C4
:10450000411C514500DD8A460499401A401C019027
:104510004FF000400290200704D40198504501DB81
:10452000CDF8048000208DF84F0002980DF14F0760
:10453000B0F1004F25D02B200E9002984FF00208CA
:1045400000280CDA404202902D200E9007E00A214C
:104550000298FCF755F83031029007F8011DB8F1C8
:104560000001A8F10108F2DC02980028EFD1791EC1
:104570000E980870307800F0200040F0450007F8F1
:10458000020D12A8C01B00F107081498007800B1B2
:10459000012000EB0A01019801EBE071059841440C
:1045A000401A401E0590E00306D45B462146179A48
:1045B000059800F05DF805441498007818B15A4643
:1045C000179990476D1CE00324D55B462146179A46
:1045D000059800F04DF805441CE00498002807DB1E
:1045E000DDE90301884203DD0098405C179901E092
:1045F000179930205A469047049805F10105401C50
:1046000004900198401E019004D12E205A4617991B
:1046100090476D1CBAF10001AAF1010ADDDC05E04A
:1046200017F8010B5A46179990476D1CB8F1000115
:10463000A8F10108F4DC5B462146179A0598ABE621
:104640002D0000002B000000200000002DE9F041AB
:10465000044600251E461746880404D405E0394662
:104660002020B0476D1C641EF9D52846BDE8F081B6
:104670002DE9F041044600251E469046C80301D5A9
:10468000302700E02027880404D505E0414638465D
:10469000B0476D1C641EF9D52846BDE8F08182B094
:1046A000CDE9000121F0004001909DED000B02B02A
:1046B00051EC100B7047000013B50C464FF6FF731A
:1046C000012269460248FDF756FD00981CBD000016
:1046D000C4000020FCF73CFEFEF738F8FDF7D8FEDA
:1046E000FDF7C0FFFDF792FFFDF7E2FFFDF774FF56
:1046F0000948FDF7F7FA012208490948FDF708FDC6
:10470000FCF734F9FEF7E0FA05E00648FEF798F901
:104710000548FEF78BF9F8E7880000200D0000201F
:10472000C400002018000020140000200000000039
:104730000000000001020304060708090000000051
:1047400001020304000000004C5555555555A53F86
:104750007751C1166CC156BF9015CB19A001FA3E16
:10476000AD529C804F7E92BEC4B1B4BD9EEE213E40
:10477000D43888BEE9FAA8BD00004054FB21F93FB7
:104780003163621A61B4D03D0000601A61B4D03D5B
:104790007370032E8A19A33B0000002E8A19A33BD5
:1047A000C14920259A837B390000000000000000E9
:1047B0006E83F9A22915444ED15727FCC0DD34F58C
:1047C000999562DB4190433CAB6351FE61C5BBDE12
:1047D0003A6E24B7E0D24D42EA2E49061C92D10926
:1047E0001CEB1DFE3EA729B1F53582E88444BB2EA3
:1047F00026709CE9417E5FB439D69139F4395383F0
:104800008B5F849C3B28F9BDFF97F81F0F9805DE4E
:104810008B112FEF1F6D0A5ACF7E366DB709CB274C
:10482000663F464F2DEA5F9EC7BA27757BF1E5EBE1
:10483000F739073DEA92528AB15FFB6B085D8D1F25
:10484000A6F810111111813FD561C119A0012ABF2D
:104850007DFEB157E31DC73EEB9C2B8AE6E55ABEB1
:104860007CD5CF5A3AD9E53D8848000800000020A1
:1048700088000000C03D00081049000888000020A2
:10488000C0060000D03D00080024F4000000000035
:104890001000000001000000000000000000000007
:1048A0000000000000000000000000000000000008
:1048B00000000400000000000000000000000000F4
:1048C00000000000000000000000000000000000E8
:1048D00000000000000000009A9999999999B93F49
:1048E00000000000000000000000000000000000C8
:1048F00000000000000000000100000000000000B7
:1049000000000000000000000000000000000000A7
:040000050800018965
:00000001FF
