:020000040800F2
:10000000900800209D01000825310008F32B00080E
:1000100021310008350C0008353C000800000000C4
:100020000000000000000000000000006331000834
:100030001116000800000000613100086531000859
:10004000B7010008B7010008B7010008B7010008B0
:10005000B7010008B7010008B7010008B7010008A0
:10006000B7010008B7010008B7010008B701000890
:10007000B7010008B7010008B7010008B701000880
:10008000B7010008B7010008B7010008B701000870
:10009000390C0008490C0008B7010008B701000836
:1000A000B7010008B7010008B7010008B701000850
:1000B000B7010008B7010008B7010008B701000840
:1000C000B7010008B7010008B7010008B701000830
:1000D000B7010008E93B0008253C0008B70100080B
:1000E000B7010008B7010008B7010008B701000810
:1000F000B7010008B7010008B7010008B701000800
:10010000B7010008B7010008B7010008B7010008EF
:10011000B7010008B7010008B5320008B7010008B0
:10012000B7010008B7010008B7010008B7010008CF
:10013000B70100080000000000000000B70100083F
:10014000B7010008B7010008B7010008B7010008AF
:10015000B7010008B7010008B7010008B70100089F
:10016000B7010008B7010008B7010008B70100088F
:10017000B7010008B70100080000000000000000FF
:10018000B7010008B7010008DFF80CD000F014FB3D
:100190000048004785540008900800200648804722
:1001A00006480047FEE7FEE7FEE7FEE7FEE7FEE75C
:1001B000FEE7FEE7FEE7FEE751320008890100088E
:1001C0002DE9F05F0546002092469B46884606468C
:1001D000814640241BE0284641464746224600F01F
:1001E00054FA53465A46C01A914110D31146184644
:1001F000224600F03BFA2D1A67EB01084F462246D3
:100200000120002100F032FA17EB00094E41201EB8
:10021000A4F10104DFDC484631462A464346BDE8E6
:10022000F09F2DE9FE4F804681EA0300C00F0C4687
:10023000009021F0004123F00045B8EB0200A941F5
:1002400005D24046214690461C460B46024623F006
:100250000040104347D0270DC7F30A00C3F30A51EB
:100260000290401A019040286BDAC3F3130040F467
:10027000801B0098924620B10023D2EB030A63EB67
:100280000B0B01985946C0F14002504600F0EEF9C0
:1002900006460D4650465946019A00F006FA10EB04
:1002A00008006141002487EA115284EAE7731A4387
:1002B00040D0009A62B3019A012A4FEA075215DC36
:1002C000001B61EB02014FF0004202EA0752CDE948
:1002D0000042001C41F5801132462B4600F006FA20
:1002E00003B0BDE8F08F40462146F9E7001B61EB03
:1002F0000201001C41F5801300185B412018A2F593
:10030000001747EB030140EAD570B6196D4111E0C3
:100310006D084FEA360645EAC0754FEA0752001BE2
:1003200061EB0201001C41F5801149084FEA3000E1
:100330000019514132462B4603B0BDE8F04F00F0A2
:10034000C6B90098012240000023D0EB020263EB03
:10035000E073009821464FEAE074B8EB000061EBCF
:100360000401E9E783F000435BE781F0004158E7CF
:100370002DE9FE4F81EA030404F0004421F000411E
:1003800000944FF0000B23F0004350EA01045ED0CC
:1003900052EA03045BD0C3F30A54C1F30A552C4458
:1003A000A4F2F3340194A0FB0254C1F3130141F40D
:1003B0008011C3F3130343F4801301FB024400FBD9
:1003C000034E840A970A44EA815447EA8357A4FB00
:1003D000076802958D0A05FB07854FEA932C04FBFD
:1003E0000C542705029D4FEA065847EA1637B5EB2D
:1003F00008056EEB070C870E920E47EA811742EA5A
:100400008312A7FB0201B6EB0B0164EB00042B0D7A
:1004100043EA0C335E1844EB1C50DA465146E7FBC6
:100420000201C5F313044FEA0B3343EA14534FEAB6
:100430000432019C43EA0603A4F10C040294009CDC
:10044000CDE900B400F052F903B0BDE8F08F002010
:100450000146F9E72DE9F04D81EA030404F0004B71
:1004600021F0004514464FF0000A23F0004150EA05
:10047000050220D054EA01021DD0C5F30A570246F6
:10048000C5F31303C1F31300C1F30A5640F48015FA
:1004900043F48013A7EB0608101BD64608F2FD387C
:1004A00073EB050002D308F1010801E092185B41EB
:1004B000B8F1000F03DA00200146BDE8F08D0020FE
:1004C0004FF48011064684460EE0171B73EB0507B8
:1004D00005D3121B63EB050306434CEA010C4908E4
:1004E0004FEA300092185B4150EA0107EDD152EA21
:1004F000030012D082EA040083EA0501084305D014
:10050000101BAB4106D20122002306E000224FF06F
:10051000004302E06FF0010253101AEB06004CEBAF
:10052000085110EB0A0041EB0B01BDE8F04D00F063
:10053000CEB80EB5C10F80EAE0700844CA070021AA
:1005400040F233438DE80E000A460B4600F0CEF829
:1005500003B000BD0EB540F2334102910021CDE958
:1005600000110A460B4600F0C1F803B000BD70B59B
:10057000C1F30A5201F000450024C1F3130140F217
:10058000FF3341F480119A4201DA002070BD40F23D
:1005900033439A42A2F2334203DC524200F075F830
:1005A00000E090402C43F1D0404270BDC1F30A52AC
:1005B00010B5C1F3130140F2FF3341F480119A42A8
:1005C00001DA002010BD40F233439A42A2F23342D6
:1005D00003DC524200F059F810BD904010BD0000FD
:1005E00030B5041E71F1000404DB4FF000444042BA
:1005F00064EB0101141E73F1000405DB1C464FF08F
:100600000043524263EB04038B4208BF824230BD79
:1006100030B5041E71F1000404DB4FF00044404289
:1006200064EB0101141E73F1000405DB1C464FF05E
:100630000043524263EB0403994208BF904230BD2D
:1006400030B50B46014600202022012409E021FAA2
:1006500002F59D4205D303FA02F5491B04FA02F59F
:100660002844151EA2F10102F1DC30BD202A04DB72
:10067000203A00FA02F1002070479140C2F12003B5
:1006800020FA03F3194390407047202A04DB203AF4
:1006900021FA02F00021704721FA02F3D040C2F1A2
:1006A00020029140084319467047202A06DBCB17E9
:1006B000203A41FA02F043EAE07306E041FA02F31D
:1006C000D040C2F12002914008431946704710B54E
:1006D000141E73F1000408DA401C41F10001921865
:1006E0005B411A4301D120F0010010BD2DE9F04D0E
:1006F00092469B4611B1B1FA81F202E0B0FA80F263
:1007000020329046FFF7B2FF04460F4640EA0A0047
:1007100041EA0B0153465A46084313D0114653EAA7
:10072000010019D0C8F140025046FFF7AEFF054660
:100730000E46504659464246FFF798FF084305D0FB
:10074000012004E020463946BDE8F08D0020054335
:1007500046EAE0762C4337430A986305E40AA0EBA7
:1007600008000022FD0A44EA47540A3002D500205E
:100770000146E9E7010510196941DDE9084500195D
:100780006941BDE8F04DA2E7C1F30A52C1F313017C
:1007900040F2FF3341F480119A4202DA0020014610
:1007A000704740F233439A42A2F2334202DC524293
:1007B000FFF76BBFFFF75ABF064C074D06E0E06836
:1007C00040F0010394E8070098471034AC42F6D398
:1007D000FFF7DEFC285600084856000810B5002236
:1007E0004FF40061034801F06DFA232000F0A0F8F7
:1007F00010BD00000004024070B52DED108BB0EE6E
:10080000408AF0EE608A00269FED3C0BB0EE40FA85
:10081000F0EE60FA002500249FED3A0B53EC102B0C
:1008200051EC180BFFF7DCFE06D251EC180B81F0EF
:10083000004141EC180B01263448007B18B13348C5
:10084000007B032802D19FED329B14E02F48007BF0
:10085000012803D02D48007B042802D19FED2E9B58
:1008600009E02A48007B022803D02848007B05289D
:1008700001D19FED2B9B2548007B38B12348007B9D
:10088000012803D02148007B022802D14FF4805573
:1008900001E04FF400652846FFF75CFE41EC1E0BBB
:1008A00053EC182BFFF764FD41EC1D0B9FED130B70
:1008B00053EC102BFFF7CEFD41EC1C0B53EC192B26
:1008C000FFF7C8FD41EC1B0B9FED170B53EC102BF2
:1008D000FFF7A7FC41EC1A0BFFF768FE84B216B1D4
:1008E000281B84B201E0281984B24FF6FF7000EA99
:1008F00004142046BDEC108B70BD00000000000009
:10090000000004400000000000000000180000206B
:100910000000000000000040000000000000104047
:1009200048E17A14AE471140000000000000E03FAB
:1009300000BF011EA0F10100FBD1704700B587B0D8
:1009400000BF002001902B48006840F002002949B8
:1009500008600846006800F00200019000BF00BF78
:100960004FF43C40029001200390002004900320AB
:10097000059002A9204801F0A1F84FF480400290B0
:1009800000200390049002A91B4801F097F8002270
:100990004FF42041184801F095F901224FF4E0513D
:1009A000154801F08FF9012001F074F8FFF716FFE8
:1009B000012001F06FF804201049087300F082F85C
:1009C0000F4800F03BF8012001F064F89FED0D0B9B
:1009D0000A4880ED000B4FF40030084988608868B1
:1009E00091ED001BB0EE410AF0EE610A00F00EF846
:1009F00007B000BD3038024000040240180000205B
:100A000005001000A4703D0AD7A3FA3F70B52DED84
:100A1000028BB0EE408AF0EE608A04460025B0EE0C
:100A2000480AF0EE680AFFF7E7FE054644EA0500CB
:100A300000F004F8BDEC028B70BD000070B50446F8
:100A400000224FF480511E4801F03CF92320FFF7AB
:100A50006FFF002525E001225103194801F032F90A
:100A60002320FFF765FF04F4000028B10122D10321
:100A7000134801F027F905E000224FF40041104827
:100A800001F020F92320FFF753FF00224FF400511B
:100A90000B4801F017F92320FFF74AFF6400681C98
:100AA000C5B2182DD7DB2320FFF742FF0122110327
:100AB000034801F007F92320FFF73AFF70BD00005B
:100AC0000004024010B50649097B41F40020FFF7FD
:100AD000B5FF0349097B41F42020FFF7AFFF10BDAC
:100AE0001800002070B50446002544F4004040F092
:100AF000C0052946012000F057F870BD2DE9F041EE
:100B000005460026002702F013F9902002F0DCF8D9
:100B100002F060F90446012C04D102F033F919A067
:100B200003F07AFB284602F0CFF802F053F90446AE
:100B3000012C04D102F026F913A003F06DFB02F0A2
:100B400021F902F0F5F8912002F0BEF802F042F926
:100B50000446012C04D102F015F90CA003F05CFB53
:100B6000204602F07FF8064602F046F8204602F0E2
:100B700079F8074602F040F802F004F947EA062047
:100B8000BDE8F08152312000523220005233200063
:100B900010B50020FFF7B2FF00B210BD10B504463B
:100BA0002046FFF79FFF10BD70B506460D46002496
:100BB00002F0BEF8902002F087F802F00BF904462C
:100BC000012C04D102F0DEF816A003F025FB30461C
:100BD00002F07AF802F0FEF80446012C04D102F08B
:100BE000D1F811A003F018FB280A02F06DF802F00A
:100BF000F1F80446012C04D102F0C4F80BA003F074
:100C00000BFBE8B202F060F802F0E4F80446012CB5
:100C100004D102F0B7F806A003F0FEFA02F0B2F831
:100C200070BD00005731200057322000573320009C
:100C30005734200000BFFEE710B5024800F0EAFC80
:100C400010BD00000C01002010B5024800F0E2FCCD
:100C500010BD00000C0100200320024981F8600053
:100C6000704700005801002070B52DED028B04463E
:100C70000D46287820B101287DD002287CD197E24A
:100C8000FD4890F8600030B101284FD0022874D0A0
:100C9000032873D112E121780906627801EB024141
:100CA000A27801EB0221E2788818FFF742FC41ECC0
:100CB000180B9FEDF20B53EC102BFFF7CBFBEE4A1A
:100CC000C2E9100121790906627901EB0241A2799A
:100CD00001EB0221E2798818FFF72BFC41EC180B9D
:100CE0009FEDE60B53EC102BFFF7B4FBE24AC2E991
:100CF0001201217A0906627A01EB0241A27A01EB24
:100D00000221E27A8818FFF714FC41EC180B9FEDE2
:100D1000DB0B53EC102BFFF79DFBD74AC2E9140104
:100D20009FEDD80BD94880ED000BE5E0217809064E
:100D3000627801EB0241A27801EB0221E278881887
:100D4000FFF7F7FB41EC180B9FEDCC0B53EC102B8E
:100D5000FFF780FBC84A03C221790906627901EBDB
:100D60000241A27901EB0221E2798818FFF7E1FB49
:100D700041EC180B03E0C1E019E23DE0BBE09FED60
:100D8000BF0B53EC102BFFF765FBBB4AC2E9020116
:100D9000217A0906627A01EB0241A27A01EB022173
:100DA000E27A8818FFF7C5FB41EC180B9FEDB30BF7
:100DB00053EC102BFFF74EFBAF4AC2E90401217B35
:100DC0000906627B01EB0241A27B01EB0221E27B7F
:100DD0008818FFF7AEFB41EC180B9FEDA80B53EC06
:100DE000102BFFF737FBA44AC2E906019FEDA50BC4
:100DF000A64880ED000B7FE021780906627801EBC0
:100E00000241A27801EB0221E2788818FFF791FBFA
:100E100041EC180B9FED990B53EC102BFFF71AFBCD
:100E2000954AC2E9080121790906627901EB02417C
:100E3000A27901EB0221E2798818FFF77AFB41ECF5
:100E4000180B9FED8E0B53EC102BFFF703FB8A4A18
:100E5000C2E90A01217A0906627A01EB0241A27A0B
:100E600001EB0221E27A8818FFF763FB41EC180BD3
:100E70009FED820B53EC102BFFF7ECFA7E4AC2E990
:100E80000C01217B0906627B01EB0241A27B01EB95
:100E90000221E27B8818FFF74CFB41EC180B9FED19
:100EA000770B53EC102BFFF7D5FA734AC2E90E010A
:100EB0009FED740B754880ED000B1DE0217809064D
:100EC000627801EB0241A27801EB0221E2788818F6
:100ED000FFF72FFB41EC180B9FED680B53EC102B29
:100EE000FFF7B8FA644AC2E916019FED660B67483E
:100EF00080ED000B00E000BF00BFFDE25E4890F80F
:100F0000C80030B1012856D002287CD003287BD1FC
:100F10002EE121780906627801EB0241A27801EB0B
:100F20000221E2788818FFF704FB41EC180B9FEDD3
:100F3000530B53EC102BFFF78DFA4F4A6832C2E97E
:100F4000100121790906627901EB0241A27901EBD6
:100F50000221E2798818FFF7ECFA41EC180B9FEDBB
:100F6000470B53EC102BFFF775FA0A46014642482F
:100F70006830C0E91212217A0906627A01EB024157
:100F8000A27A01EB0221E27A8818FFF7D2FA41EC4B
:100F9000180B9FED3A0B53EC102BFFF75BFA0A4648
:100FA000014635486830C0E914129FED360B3848C9
:100FB00080ED000BFAE021780906627801EB02412E
:100FC000A27801EB0221E2788818FFF7B2FA41EC2F
:100FD000180B9FED2A0B53EC102BFFF73BFA264A18
:100FE000C2E91A0121790906627901EB0241A2796D
:100FF00001EB0221E2798818FFF79BFA41EC180B0C
:101000009FED1E0B01E04BE0CFE053EC102BFFF700
:1010100021FA194AC2E91C01217A0906627A01EB18
:101020000241A27A01EB0221E27A8818FFF781FAE5
:1010300041EC180B9FED110B53EC102BFFF70AFA44
:101040000D4AC2E91E01217B0906627B01EB0241C8
:10105000A27B01EB0221E27B8818FFF76AFA41ECE0
:10106000180B9FED060B53EC102BFFF7F3F9024A18
:101070006832C2E906010DE05801002000000000BE
:101080000000594000000000000000003000002077
:10109000380000201FED050BFE4880ED000B85E0B9
:1010A00021780906627801EB0241A27801EB022166
:1010B000E2788818FFF73DFA41EC180B1FED110B91
:1010C00053EC102BFFF7C6F9F34AC2E90801217966
:1010D0000906627901EB0241A27901EB0221E27972
:1010E0008818FFF726FA41EC180B1FED1C0B53EC88
:1010F000102BFFF7AFF90A460146E748C0E90A128C
:10110000217A0906627A01EB0241A27A01EB0221FF
:10111000E27A8818FFF70DFA41EC180B1FED290B46
:1011200053EC102BFFF796F90A460146DA48C0E95E
:101130000C12217B0906627B01EB0241A27B01EBD1
:101140000221E27B8818FFF7F4F941EC180B1FED40
:10115000350B53EC102BFFF77DF90A460146CE48BC
:10116000C0E90E121FED390BCA4880ED000B1DE0DF
:1011700021790906627901EB0241A27901EB022192
:10118000E2798818FFF7D5F941EC180B1FED450BF4
:1011900053EC102BFFF75EF9BF4AC2E916011FEDB1
:1011A000470BBC4880ED000B00E000BF00BFA3E18F
:1011B000B948683890F8300130B1012859D0022878
:1011C0007DD003287CD130E121780906627801EBDB
:1011D0000241A27801EB0221E2788818FFF7A9F911
:1011E00041EC180B1FED5B0B53EC102BFFF732F9A2
:1011F000A94A6832C2E9100121790906627901EB36
:101200000241A27901EB0221E2798818FFF791F9F6
:1012100041EC180B1FED670B53EC102BFFF71AF97D
:101220000A4601469C486830C0E91212217A090634
:10123000627A01EB0241A27A01EB0221E27A88187C
:10124000FFF777F941EC180B1FED740B53EC102BE3
:10125000FFF700F90A4601468F486830C0E91412CA
:101260001FED780B8B4880ED000B8C4880ED000B58
:1012700040E121780906627801EB0241A27801EB96
:101280000221E2788818FFF754F941EC180B1FEDA2
:10129000850B53EC102BFFF7DDF87F4A683203C251
:1012A00021790906627901EB0241A27901EB022161
:1012B000E2798818FFF73DF941EC180B01E045E0B1
:1012C00017E11FED920B53EC102BFFF7C3F8724A96
:1012D0006832C2E90201217A0906627A01EB024111
:1012E000A27A01EB0221E27A8818FFF722F941EC99
:1012F000180B1FED9E0B53EC102BFFF7ABF8664A53
:101300006832C2E90401217B0906627B01EB0241DC
:10131000A27B01EB0221E27B8818FFF70AF941EC7E
:10132000180B1FEDAA0B53EC102BFFF793F80A468E
:10133000014659486830C0E906121FEDAE0B55480A
:1013400080ED000B554880ED000BD3E021780906B5
:10135000627801EB0241A27801EB0221E278881861
:10136000FFF7E7F841EC180B1FEDBC0B53EC102B0B
:10137000FFF770F8484A6832C2E908012179090686
:10138000627901EB0241A27901EB0221E27988182E
:10139000FFF7CFF841EC180B1FEDC80B53EC102BE7
:1013A000FFF758F80A4601463B486830C0E90A1280
:1013B000217A0906627A01EB0241A27A01EB02214D
:1013C000E27A8818FFF7B5F841EC180B1FEDD50B42
:1013D00053EC102BFFF73EF80A4601462E486830C2
:1013E000C0E90C12217B0906627B01EB0241A27B62
:1013F00001EB0221E27B8818FFF79BF841EC180B08
:101400001FEDE20B53EC102BFFF724F80A460146C0
:1014100021486830C0E90E121FEDE60B1D4880ED33
:10142000000B1E4880ED000B64E02178090662780D
:1014300001EB0241A27801EB0221E2788818FFF764
:1014400078F841EC180B1FEDF30B53EC102BFFF762
:1014500001F8114A683AC2E9160121790906627950
:1014600001EB0241A27901EB0221E2798818FFF732
:1014700060F841EC180B9FED0A0B53EC102BFEF7B4
:10148000E9FF054AC2E916010320A2F1680181F8CB
:10149000600009E038000020C0010020300000207A
:1014A00000000000000059400321A2F1680080F80C
:1014B000C8109FED130B144880ED000B134880ED0E
:1014C000000B21780906627801EB0241A27801EB5A
:1014D0000221E2788818FFF72CF841EC180B1FED79
:1014E000100B53EC102BFEF7B5FF094AC2E91601A9
:1014F00000E000BF00BF00BF00BFBDEC028B70BDAD
:101500000000000000000000380000203000002033
:101510002802002010B504463748007830B92078FA
:10152000AA2803D101203449087064E032480078C9
:10153000012806D12078AA2803D102202E4908705C
:1015400059E02D480078022803D103202A49087069
:1015500051E029480078032806D104202649087064
:1015600020782649087046E023480078042824D1D2
:101570000520214908702148007820B1012807D0B2
:1015800002280FD109E020781D4981F860000AE0A7
:1015900021781B4880F8C81005E02178184880F8A9
:1015A000301100E000BF00BF204601F043FC1549A8
:1015B00008700020144908701DE00F4800780528C5
:1015C00016D12178104802780078401C0E4B187014
:1015D0000E488154184600780A49097888420AD191
:1015E00000200549087005490848FFF73DFB02E067
:1015F00000200149087010BD280000202B000020A9
:10160000580100202A000020290000204401002069
:10161000704770472DE9F05F044600252068466951
:101620002068D0F80490206887682068D0F80CA063
:101630002068D0F810B02068D0F8188006F00100BB
:10164000002855D007F00100C0B101202168886052
:1016500007F0020018B1204600F002FA0EE007F091
:10166000040010B145F4006508E007F0080010B16F
:1016700045F4805502E0204600F0F1F907F480704F
:10168000C8B14FF480702168886007F4007018B109
:10169000204600F0E7F90EE007F4806010B145F451
:1016A000005508E007F4006010B145F4804502E001
:1016B000204600F0D6F907F48030C8B14FF48030EE
:1016C0002168886007F4003018B1204600F0CCF99A
:1016D0000EE007F4802010B145F4004508E007F45F
:1016E000002010B145F4803502E0204600F0BBF93F
:1016F00006F0080038B10AF0100020B145F400757A
:1017000010202168C86006F0040040B10AF008000B
:1017100028B108202168C860204600F09BF906F037
:10172000020038B12068C06800F0030010B1204604
:1017300000F091F906F0400038B10BF0100020B134
:1017400045F4806510202168086106F0200040B152
:101750000BF0080028B1082021680861204600F03D
:101760007BF906F0100038B12068006900F0030032
:1017700010B1204600F071F906F4003040B109F0D4
:10178000100028B1102021684860204600F066F95A
:1017900006F4803040B109F0080028B10820216823
:1017A0004860204600F061F906F4004088B309F073
:1017B000040078B306F4807020B108F0010008B18D
:1017C00045F0010506F4007020B108F0020008B1F0
:1017D00045F0020506F4806020B108F0040008B16D
:1017E00045F0040506F40060A0B108F0700088B16F
:1017F00008F07000402817D006DC10280BD02028F5
:101800000CD0302819D10CE0502810D0602814D109
:1018100010E01DE019E045F008050FE045F0100567
:101820000CE045F0200509E045F0400506E045F0F4
:10183000800503E045F4807500E000BF00BF20682C
:10184000806920F070002168886104202168486068
:101850002DB1606A284360622046FFF7DAFEBDE8DA
:10186000F09F70B5044600250CB9012070BD94F8B6
:10187000200010B9204600F0AFF82068006820F082
:1018800002002168086000F023FA05460DE000F030
:101890001FFA401B0A2808D9606A40F400306062D1
:1018A000052084F820000120E0E72068406800F06F
:1018B00002000028EBD12068006840F00100216898
:1018C000086000F005FA05460DE000F001FA401B43
:1018D0000A2808D9606A40F400306062052084F864
:1018E00020000120C2E72068406800F001000028C5
:1018F000EBD0207E012806D12068006840F08000EF
:101900002168086005E02068006820F080002168F8
:101910000860607E012806D12068006840F0400021
:101920002168086005E02068006820F04000216818
:101930000860A07E012806D12068006840F02000E1
:101940002168086005E02068006820F02000216818
:101950000860E07E012806D12068006820F01000B1
:101960002168086005E02068006840F010002168E8
:101970000860207F012806D12068006840F0080038
:101980002168086005E02068006820F008002168F0
:101990000860607F012806D12068006840F00400DC
:1019A0002168086005E02068006820F004002168D4
:1019B0000860D4E9020108432169084361690843CA
:1019C0006168491E08432168C861002060620120E7
:1019D00084F82000002049E710B586B004461A4973
:1019E000206888422ED100BF002000901748006870
:1019F00040F00070154908600846006800F000706B
:101A0000009000BF00BF4FF4C05001900220029030
:101A100000200390032004900920059001A90C48A0
:101A200000F04CF800220321142000F0DFF914200C
:101A300000F0CFF900220421152000F0D7F915207D
:101A400000F0C7F906B010BD006400404038024005
:101A500000000240704770477047704770477047FA
:101A6000704770477047704770477047014691F85C
:101A70003500022803D080204865012070470520EA
:101A800081F835000868006820F001000A681060DD
:101A90000020F3E770B5044600F01AF90646254623
:101AA000681C10B104480078054400BF00F010F92C
:101AB000801BA842FAD370BD0C000020F8B5024686
:101AC0000B460025002400200021DCE0012606FA58
:101AD00001F51E6806EA0504AC4273D15E68022E69
:101AE00002D05E68122E13D1CF0802F1200656F8FC
:101AF00027004E07F70E0F26BE40B0434F07FF0EDC
:101B00001E69BE403043CF0802F1200646F8270088
:101B100010684F000326BE40B0431E7906F003064E
:101B20004F00BE40304310605E68012E08D05E68F2
:101B3000022E05D05E68112E02D05E68122E13D1DF
:101B400090684F000326BE40B0434F00DE68BE40A1
:101B500030439060506801268E40B0431E79C6F332
:101B600000168E4030435060D0684F000326BE40C0
:101B7000B0434F009E68BE403043D0605E6806F0C0
:101B80008056B6F1805F7DD100BF00260096404EA2
:101B9000366846F480463E4F3E603E46366806F460
:101BA0008046009600BF00BF3A4E8F0856F82700C7
:101BB0008E07370F0F26BE40B043374EB24202D1D8
:101BC000002624E05EE0354EB24201D101261EE03F
:101BD000334EB24201D1022619E0324EB24201D157
:101BE000032614E0304EB24201D104260FE02F4EFE
:101BF000B24201D105260AE02D4EB24201D106269D
:101C000005E02C4EB24201D1072600E008268F07DE
:101C10003F0FBE4030431F4E8F0846F82700264E28
:101C20003068A0435E6806F48036B6F5803F00D188
:101C30002043214E3060361D3068A0435E6806F4B4
:101C40000036B6F5003F00D120431B4E361D3060F4
:101C5000361D3068A0435E6806F48016B6F5801F16
:101C600000D12043144E08363060361D3068A04342
:101C70005E6806F40016B6F5001F00D120430E4E34
:101C80000C363060491C1029FFF420AFF8BD00006D
:101C9000443802400838014000000240000402407D
:101CA00000080240000C02400010024000140240F4
:101CB00000180240001C0240003C014042694A40BA
:101CC000426170470AB1816101E00B048361704792
:101CD00001480068704700000400002003480068C5
:101CE000034909780844014908607047040000204E
:101CF0000C00002010B50D48006840F400700B493E
:101D000008600846006840F4806008600846006883
:101D100040F480700860032000F0A6F8002000F076
:101D200007F800F02BF8002010BD0000003C024036
:101D300070B504460E4800784FF47A71B1FBF0F0AC
:101D40000C490968B1FBF0F5284600F018FC08B111
:101D5000012070BD102C07D200222146501E00F039
:101D600045F80548046001E00120F2E70020F0E7B3
:101D70000C000020000000200800002010B5032007
:101D800000F072F8002211466FF00B0000F02EF800
:101D9000002211466FF00A0000F028F800221146D8
:101DA0006FF0090000F022F800221146501F00F0E9
:101DB0001DF800221146101F00F018F800221146ED
:101DC000901E00F013F800221146501E00F00EF88D
:101DD00010BD00BF00F01F02012191404209920096
:101DE00002F1E022C2F8001100BF70472DE9F05F58
:101DF00080460D461646002701F096F907463946FB
:101E00002A46334601F00700C0F1070ABAF1040F71
:101E100002D94FF0040A01E0C0F1070AD14600F1EF
:101E2000040ABAF1070F02D24FF0000A01E0A0F154
:101E3000030AD4464FF0010A0AFA09FAAAF1010A84
:101E40000AEA020A0AFA0CFA4FF0010B0BFA0CFB31
:101E5000ABF1010B0BEA030B4AEA0B0421464046A7
:101E600001F06AF9BDE8F09F00BF00F00702064BE1
:101E700019684FF6FF031940044B0B4343EA022154
:101E8000014B196000BF70470CED00E00000FA053F
:101E900070B504460D460CB9012070BD5848006865
:101EA00000F00F00A84209D255490D70084600689D
:101EB00000F00F00A84201D00120EEE7207800F0EA
:101EC000020002281DD1207800F00400042805D16A
:101ED0004C48006840F4E0504A490860207800F01F
:101EE0000800082805D14748006840F4604045498B
:101EF00008604448006820F0F000A16808434149A8
:101F00000860207800F00100A8B36068012807D1BC
:101F10003C4808380068C0F34040B8B90120BCE72D
:101F20006068022802D06068032807D13548083865
:101F30000068C0F3406048B90120AEE73148083876
:101F40000068C0F3400008B90120A6E72D480068EA
:101F500020F00300616808432A490860FFF7B8FED3
:101F6000064609E0FFF7B4FE801B41F28831884243
:101F700002D9032091E707E02248006800F00C0036
:101F80006168B0EB810FEDD11D48006800F00F00D3
:101F9000A84209D91A490D700846006800F00F00E0
:101FA000A84201D0012078E7207800F0040004283E
:101FB00007D11448006820F4E050E1680843114953
:101FC0000860207800F00800082808D10D48006853
:101FD00020F46040216940EAC1000A49086000F02D
:101FE0003DF808490968C1F30311074A515CC8402C
:101FF000064908600020FFF79BFE00204DE7000027
:10200000003C024008380240EC5400080000002068
:1020100001480068704700000000002000B5FFF78D
:10202000F7FF04490968C1F38221034A515CC840A3
:1020300000BD000008380240FC54000800B5FFF75E
:10204000E7FF04490968C1F34231034A515CC840C3
:1020500000BD000008380240FC5400082DE9F0479C
:10206000002400250026A1462548006800F00C0049
:1020700020B1042805D008283AD105E0DFF8849083
:1020800039E0DFF8849036E01D48001F006800F05A
:102090003F041B48001F006800F4800078B11A4814
:1020A0001749091F0968C1F38811A0FB0170014697
:1020B000224600233846FEF783F805460EE0114815
:1020C0000F49091F0968C1F38811A0FB017001467F
:1020D000224600233846FEF773F805460848001FDD
:1020E0000068C0F30140401C4600B5FBF6F902E071
:1020F000DFF8109000BF00BF4846BDE8F087000041
:10210000083802400024F40040787D01F8B5044608
:102110000CB90120F8BD207800F00100002874D02F
:10212000F948006800F00C0004280DD0F64800685B
:1021300000F00C00082813D1F348001F006800F4D9
:102140008000B0F5800F0BD1EF4808380068C0F36D
:102150004040002859D06068002856D10120D9E7B6
:1021600000BF6068B0F5803F08D1E74808380068D4
:1021700040F48030E449083908601EE06068B0F53A
:10218000A02F0DD1E0480838006840F48020DE49D7
:10219000083908600846006840F4803008600CE0A8
:1021A000D9480838006820F48030D74908390860D9
:1021B0000846006820F48020086000BF606890B185
:1021C000FFF786FD054606E0FFF782FD401B642809
:1021D00001D903209EE7CC4808380068C0F340408E
:1021E0000028F1D011E0FFF773FD054606E0FFF788
:1021F0006FFD401B642801D903208BE7C2480838D3
:102200000068C0F340400028F1D1207800F00200BF
:1022100002285FD1BC48006800F00C0058B1BA48F1
:10222000006800F00C0008281CD1B748001F0068A7
:1022300000F48000B0B9B44808380068C0F340002A
:1022400020B1E068012801D0012063E7AE480838DA
:10225000006820F0F800216940EAC100AA49083965
:10226000086037E0E06800B30120A8490860FFF784
:102270002FFD054606E0FFF72BFD401B022801D984
:10228000032047E7A04808380068C0F34000002852
:10229000F1D09D480838006820F0F800216940EA34
:1022A000C10099490839086014E000209749086086
:1022B000FFF70EFD054606E0FFF70AFD401B02286A
:1022C00001D9032026E7904808380068C0F3400091
:1022D0000028F1D1207800F0080008282CD160698E
:1022E000A8B101208A490860FFF7F2FC054606E024
:1022F000FFF7EEFC401B022801D903200AE78248C1
:102300006C300068C0F340000028F1D014E00020D9
:102310007F490860FFF7DCFC054606E0FFF7D8FCC4
:10232000401B022801D90320F4E677486C3000688E
:10233000C0F340000028F1D1207800F00400042808
:1023400070D1002670483830006800F0805090B995
:1023500000BF002000906C483830006840F080508A
:102360006949383108600846006800F080500090E4
:1023700000BF00BF01266748006800F48070B0B954
:102380006448006840F4807062490860FFF7A0FC70
:10239000054606E0FFF79CFC401B022801D90320FC
:1023A000B8E65C48006800F480700028F2D000BFF6
:1023B000A068012808D154486830006840F0010046
:1023C0005149683108601DE0A06805280DD14E48CC
:1023D0006830006840F004004B49683108600846E6
:1023E000006840F0010008600CE047486830006871
:1023F00020F001004449683108600846006820F078
:102400000400086000BFA068A8B1FFF761FC0546A2
:1024100009E0FFF75DFC401B41F28831884202D998
:10242000032077E626E0384868300068C0F34000B3
:102430000028EED013E0FFF74BFC054608E0FFF75D
:1024400047FC401B41F28831884201D9032061E6F4
:102450002D4868300068C0F340000028EFD1012EFD
:1024600007D129483830006820F08050264938319B
:10247000086000BFA069B8B32348006800F00C00F2
:1024800008285ED0A069022846D100201F490866AE
:10249000FFF71EFC054606E0FFF71AFC401B02286A
:1024A00001D9032036E6184808380068C0F34060B8
:1024B0000028F1D1D4E907010843616A40EA81119B
:1024C0000122A06AC2EB500041EA00412C20005DCD
:1024D00041EA00600C49091F086001200B490866A9
:1024E000FFF7F6FB054607E02DE0FFF7F1FB401B89
:1024F000022801D903200DE6034808380068C0F31C
:1025000040600028F1D01EE0083802400000474239
:10251000800E47420070004000200C490866FFF71B
:10252000D7FB054606E0FFF7D3FB401B022801D985
:102530000320EFE506480068C0F340600028F2D1B0
:1025400001E00120E6E50020E4E50000000047424C
:1025500000380240042808D14FF0E021096941F019
:1025600004014FF0E022116107E04FF0E02109691A
:1025700021F004014FF0E02211617047704770B5FF
:1025800004462546681EB0F1807F01D301200FE08C
:10259000681E4FF0E02148610F214FF0FF3000F03E
:1025A000CBFD00204FF0E02188610720086100206A
:1025B00070BD10B5FFF7E2FF10BD704770470246CF
:1025C00000BF92F83800012801D102207047012095
:1025D00082F8380000BF022082F839001068406895
:1025E00020F0700013685860106840680B6818434A
:1025F000136858601068806820F080001368986045
:10260000106880684B68184313689860012082F84E
:10261000390000BF002082F8380000BF00BFD5E7B6
:1026200010B504460CB9012010BD94F8390028B942
:10263000002084F83800204600F00CF8022084F8CE
:102640003900211D206800F07BFE012084F839004C
:102650000020E9E708B50A4A016891420FD100BF9E
:10266000002100910749096841F01001054A1160F5
:102670001146096801F01001009100BF00BF08BDBC
:10268000001000404038024001460868C06840F031
:1026900001000A68D0600868006840F001000A681C
:1026A000106000207047704710B50446206800692C
:1026B000C0F34000D8B12068C068C0F34000B0B19A
:1026C0006FF002002168086101202076206880698F
:1026D00000F0030018B12046FFF7E5FF05E02046B3
:1026E00000F0ADF8204600F0ABF80020207620681E
:1026F0000069C0F38000D8B12068C068C0F38000D2
:10270000B0B16FF0040021680861022020762068D3
:10271000806900F4407018B12046FFF7C4FF05E05F
:10272000204600F08CF8204600F08AF80020207641
:1027300020680069C0F3C000D8B12068C068C0F349
:10274000C000B0B16FF00800216808610420207655
:102750002068C06900F0030018B12046FFF7A3FF0E
:1027600005E0204600F06BF8204600F069F80020F4
:10277000207620680069C0F30010D8B12068C068D6
:10278000C0F30010B0B16FF010002168086108209C
:1027900020762068C06900F4407018B12046FFF729
:1027A00082FF05E0204600F04AF8204600F048F895
:1027B000002020762068006900F0010058B12068F0
:1027C000C06800F0010030B16FF0010021680861BD
:1027D000204600F036F820680069C0F3C01058B1F8
:1027E0002068C068C0F3C01030B16FF0800021686D
:1027F00008612046FFF7E1FE20680069C0F3801001
:1028000058B12068C068C0F3801030B16FF040004C
:1028100021680861204600F015F820680069C0F3BF
:10282000401058B12068C068C0F3401030B16FF05C
:102830002000216808612046FFF7C0FE10BD7047E8
:1028400070477047704770472DE9F047044620688D
:1028500005682068C668206847694FF00008C146CF
:1028600005F00F08B8F1000F0AD105F0200038B1CB
:1028700006F0200020B1204600F04AFFBDE8F087B6
:10288000B8F1000F6DD007F0010018B906F4907090
:10289000002866D005F0010030B106F4807018B150
:1028A000E06B40F00100E06305F0040030B107F098
:1028B000010018B1E06B40F00200E06305F0020097
:1028C00030B107F0010018B1E06B40F00400E063A4
:1028D00005F0080030B107F0010018B1E06B40F0DE
:1028E0000800E063E06B68B305F0200028B106F053
:1028F000200010B1204600F00BFF20684069C0F3B3
:102900008019E06B00F0080010B9B9F1000F22D077
:10291000204600F0DDFE2068406900F04000B0B1C4
:102920002068406920F0400021684861606B50B128
:102930001748616B0865606BFFF798F810B1606B22
:10294000016D88470CE02046FFF77DFF08E0204638
:10295000FFF779FF04E02046FFF775FF0020E063F2
:102960008CE705F0800030B106F0800018B12046F9
:1029700001F0D0F882E705F0400030B106F04000E9
:1029800018B1204600F0B4FE78E700BF76E70000FB
:10299000BD36000810B504460CB9012010BDA06971
:1029A00000B100E000BF94F8390028B9002084F895
:1029B0003800204600F028F8242084F839002068E8
:1029C000C06820F400502168C860204600F0EEFE88
:1029D0002068006920F490402168086120684069FF
:1029E00020F02A00216848612068C06840F4005047
:1029F0002168C8600020E063202084F8390084F852
:102A00003A000020CAE7000010B586B00446254908
:102A1000206888421FD100BF002000902248006833
:102A200040F01000204908600846006800F01000DF
:102A3000009000BF00BF4FF4C060019002200290E0
:102A400001200390032004900720059001A9174856
:102A5000FFF734F823E01649206888421FD100BFF1
:102A6000002000901048001F006840F400300E491C
:102A7000091F08600846006800F40030009000BF9D
:102A800000BF0C200190022002900120039003203F
:102A900004900720059001A90448FFF70FF806B03D
:102AA00010BD000000100140443802400000024008
:102AB0000044004010B5034693F83A00202829D17D
:102AC00001B10AB9012010BD00BF93F838000128F8
:102AD00001D10220F7E7012083F8380000BF996296
:102AE0009A85DA850020D863222083F83A0000BF57
:102AF000002083F8380000BF1868406940F00100EA
:102B00001C6860611868C06840F490701C68E060E0
:102B10000020D8E70220D6E770472DE9F8430446A5
:102B20000D4616461F464FF0000994F8390020283C
:102B30005CD105B116B90120BDE8F88300BF94F857
:102B40003800012801D10220F6E7012084F838007E
:102B500000BF0020E063212084F83900FFF7B8F8B7
:102B60008146A684E6842BE0E08C401EE084A068C9
:102B7000B0F5805F16D14B46002280212046009799
:102B800000F0FCFF08B10320D6E7A846B8F8000023
:102B9000C0F3080021684860206908B9AD1C0FE047
:102BA0006D1C0DE04B46002280212046009700F06E
:102BB000E5FF08B10320BFE715F8010B2168486065
:102BC000E08C0028D0D14B460022402120460097BF
:102BD00000F0D4FF08B10320AEE7202084F83900CC
:102BE00000BF002084F8380000BFA5E70220A3E75B
:102BF000704700BFFEE7000000B500200F490860E5
:102C00000F48006820F440400D49086008460068FD
:102C100040F48040086000200A49C1F89C0214205A
:102C200000F012F8012005490860022000F00CF8BD
:102C300000200449C1F8980200BD0000988240427B
:102C4000000402400080404206E0102100BF0A1E3E
:102C5000A1F1010399B2FAD1021EA0F10103D8B289
:102C6000F3D1704770B5064600241448006820F47C
:102C7000404012490860084600680860002519E0D5
:102C800000200F4908600520FFF7DEFF01200D49F5
:102C9000C1F898026006040E0520FFF7D5FF08482A
:102CA0007C38006808B1601CC4B20520FFF7CCFF77
:102CB000681CC5B2082DE3DB204670BD000402404D
:102CC000988240420080404230B504461548006872
:102CD00020F44040134908600846006840F48040F2
:102CE0000860002010490860002517E0E0090E493F
:102CF000091D08606006040E0520FFF7A5FF0120EE
:102D00000A49C1F898020520FFF79EFF00200649F6
:102D100008600520FFF798FF681CC5B2082DE5DBA9
:102D200030BD0000000402409882404200804042D2
:102D300000B51148006820F440400F49086008467B
:102D4000006840F48040086001200C4908600C498C
:102D5000C1F898020420FFF777FF002007490860B8
:102D60000420FFF771FF00200549C1F898020420F4
:102D7000FFF76AFF00BD0000000402409C82404251
:102D80000080404200B51048006820F440400E49E1
:102D900008600846006840F48040086000200B4945
:102DA00008600B49C1F89C020420FFF74DFF012089
:102DB00006490860FFF748FF01200549C1F89C0259
:102DC0000420FFF741FF00BD00040240988240420A
:102DD0000080404210B500241348006820F44040B1
:102DE0001149086008460068086001200F49086022
:102DF000FFF72AFF01200E49C1F89802FFF724FFD0
:102E000008E0601C84B2B4F5FA7F03DDFFF7BAFF77
:102E1000012010BD0548803800680028F1D1034921
:102E2000091F086000BFF4E7000402409C82404292
:102E30000080404201460A7832B1012A06D0022AB7
:102E400006D0032A08D105E00C2007E0102005E099
:102E5000102003E0082001E0002000BF00BF704701
:102E600010B50E480E4908600C20486000210C483F
:102E70008160C1604FF400310161C90041610021EE
:102E8000017641768176C17601774177FEF7E9FCDC
:102E900018B1452103A001F0BDF910BD0064004048
:102EA0000C0100202E2E2F5372632F63616E2E6350
:102EB0000000000000B587B000BF002001904C4822
:102EC000006840F080004A4908600846006800F049
:102ED0008000019000BF00BF00BF002001900846A5
:102EE000006840F0040008600846006800F0040034
:102EF000019000BF00BF00BF00200190084600689D
:102F000040F0010008600846006800F001000190F0
:102F100000BF00BF00BF002001900846006840F0DD
:102F2000020008600846006800F00200019000BF3F
:102F300000BF012203212F48FEF7C4FE0122032116
:102F40002D48FEF7BFFE00224BF6C0412A48FEF78F
:102F5000B9FE032002900120039000200490059008
:102F600002A92448FEF7AAFD042002900020039045
:102F70000120049002A91F48FEF7A0FD0320029043
:102F80000120039000200490059002A91A48FEF742
:102F900095FD4FF43C4002900120039000200490E6
:102FA0000320059002A91448FEF788FD4FF48040E5
:102FB000029000200390049002A90F48FEF77EFDC6
:102FC00020200290002003900120049002A90A48CA
:102FD000FEF774FDC02002901120039000200490A1
:102FE0000320059002A90448FEF768FD07B000BD64
:102FF00030380240000802400004024010B50022B0
:1030000011463620FEF7F2FE3620FEF7E2FE0022E1
:1030100001212520FEF7EAFE2520FEF7DAFE002238
:1030200002212620FEF7E2FE2620FEF7D2FE10BD8A
:103030001CB50F480F49086040F247304860002136
:103040000C4881606421C160FFF7EAFA18B13C21A5
:1030500009A001F0DFF800200090019069460548C2
:10306000FFF7ADFA18B1432103A001F0D3F81CBD5E
:1030700000100040500000202E2E2F5372632F743A
:10308000696D2E630000000010B50C480C49086003
:103090004FF4E1304860002109488160C16001615E
:1030A0000C21416100218161C161FFF773FC18B1FE
:1030B000432104A001F0AEF810BD00000010014053
:1030C0008C0000202E2E2F5372632F757361727443
:1030D0002E63000010B50C480C4908604FF4E13035
:1030E0004860002109488160C16001610C21416193
:1030F00000218161C161FFF74DFC18B1562104A088
:1031000001F088F810BD000000440040CC00002011
:103110002E2E2F5372632F75736172742E6300000D
:1031200000BFFEE77047000002480068C0F30220BD
:10313000704700000CED00E010B5002807DA0A0720
:10314000140E054A00F00F031B1FD45403E00A07B6
:10315000130E024A135410BD18ED00E000E400E025
:103160007047704710B5FEF7B9FDFFF722FA10BDA2
:1031700010B592B000BF002000902F48006840F0CA
:1031800080502D4908600846006800F0805000908B
:1031900000BF00BF00BF002000902848006840F436
:1031A0008040264908600846006800F4804000908E
:1031B00000BF00BF012006900004079002200C9081
:1031C00041050D9119210E914FF4A8710F91022123
:1031D00010910421119106A8FEF798FF18B1A721BC
:1031E00017A001F017F80F20019002200290002094
:1031F00003904FF4A05004904FF4805005900521A7
:1032000001A8FEF745FE18B1B5210DA001F002F8A6
:10321000FEF7FEFE4FF47A71B0FBF1F42046FFF7A3
:10322000AEF90420FFF796F900221146501EFEF772
:10323000DDFD12B010BD00004038024000700040BB
:103240002E2E2F5372632F6D61696E2E6300000066
:103250001448006840F47000124908601248006881
:1032600040F001001049086000200F490831086053
:103270000D4800680D4908400B4908600C48091DBD
:103280000860081F006820F48020091F08600020E3
:1032900005490C3108604FF0006002498039086030
:1032A0007047000088ED00E000380240FFFFF6FEA6
:1032B0001030002410B51A480068401C18490860F6
:1032C000084600680521B0FBF1F201FB120020B9AD
:1032D000012014490870144908701148006832210F
:1032E000B0FBF1F201FB120010B901200F49087088
:1032F0000B4800684FF47A71B0FBF1F201FB120049
:1033000050B901200A49087001210A48FEF7D6FC8D
:1033100001210948FEF7D2FC0848FFF7C5F910BDA6
:10332000100000204000002041000020420000204A
:10333000430000200004024000080240500000202A
:10334000002202682C4B98420ED0B0F1804F0BD077
:103350002A4B984208D02A4B984205D0294B9842D4
:1033600002D0294B984201D1012300E000231BB178
:1033700022F070024B681A431F4B984220D0B0F1E4
:10338000804F1DD01D4B98421AD01D4B984217D02C
:103390001C4B984214D01C4B984211D01B4B9842A6
:1033A0000ED01B4B98420BD01A4B984208D01A4BA8
:1033B000984205D0194B984202D0194B984201D13E
:1033C000012300E000231BB122F44072CB681A43B2
:1033D00002608B68C3620B688362074B984202D01D
:1033E000094B984201D1012300E000230BB10B6986
:1033F0000363012343617047000001400004004063
:1034000000080040000C0040000401400040014062
:10341000004401400048014000180040001C0040EA
:103420000020004010B50446207800283CD0002041
:1034300020701E48007830B101280DD0022814D029
:10344000032824D11AE0FDF7A3FB194908604FF4C3
:10345000A040FDF7A3FB1BE0FDF79AFB1449486071
:103460004FF4C040FDF79AFB12E0FDF791FB1049C5
:1034700088604FF4E040FDF791FB09E0FDF788FB21
:103480000B49C8604FF48040FDF788FB00E000BFA7
:1034900000BF06480078401C0449087008460078C0
:1034A000042801D10020087010BD00004400002055
:1034B0003401002010B50446207818B10020207097
:1034C00000F0BAFB10BD000010B52DED068B0446D0
:1034D0002078002870D00020207039490868FDF756
:1034E00028F841EC1A0B9FED370B53EC102BFCF72F
:1034F000B1FF41EC190B9FED350B53EC102BFCF792
:1035000037FF41EC180B53EC182B32A000F084FE6F
:103510002B494868FDF70DF841EC1A0B9FED290B7C
:1035200053EC102BFCF796FF41EC190B9FED270B8A
:1035300053EC102BFCF71CFF41EC180B53EC182B31
:1035400027A000F069FE1E498868FCF7F2FF41ECF5
:103550001A0B9FED1C0B53EC102BFCF77BFF41EC7F
:10356000190B9FED1A0B53EC102BFCF701FF41ECEC
:10357000180B53EC182B1DA000F04EFE1049C86824
:10358000FCF7D7FF41EC1A0B9FED0E0B53EC102B01
:10359000FCF760FF41EC190B9FED0C0B53EC102B6B
:1035A000FCF7E6FE41EC180B53EC182B12A000F0D0
:1035B00033FE14A000F030FEBDEC068B10BD000001
:1035C00034010020000000000000E040FA7E6ABCE8
:1035D00074931840433A25342E3366562000000079
:1035E000563A25342E33665620000000463A2534DC
:1035F0002E33665620000000473A25342E33665697
:10360000200000000D0A000010B52DED0A8BFDF71B
:1036100023FB1749C868FCF79DFF41EC1A0B1449BE
:103620004868FCF797FF41EC1C0B53EC1C2B9FEDFB
:10363000110B51EC100BFCF70DFF41EC1B0B53EC85
:103640001A2BFCF707FF41EC190B9FED0C0B53EC09
:10365000102BFCF7FFFE41EC180B53EC182B09A0C4
:1036600000F0DAFD0EA000F0D7FDBDEC0A8B10BD16
:103670005000002000000000F4069441000000000B
:1036800000408F405468652074696D6562617365A0
:1036900020697320252E3166206D732E200D0A00BF
:1036A0002D2D2D2D2D2D2D2D2D2D2D2D2D2D2D2D4A
:1036B0002D2D2D2D2D2D2D2D200D0A0070B50546FB
:1036C000AC6B0020E085E0842046FFF7BCF870BDBD
:1036D0000168C96821F490710268D1600168496984
:1036E00021F0010102685161202180F83A107047F1
:1036F00010B504462068C06820F040002168C8600A
:10370000202084F839002046FFF772FA002010BD0F
:1037100070B5044694F83A00222844D1A068B0F568
:10372000805F13D1A56A206940B920684068C0F362
:1037300008002880A06A801CA06219E02068406808
:10374000C0B22880A06A401CA06211E0206938B98C
:1037500020684068C1B2A26A501CA062117007E0E4
:103760002068406800F07F01A26A501CA0621170BE
:10377000E08D401E80B2E08598B92068C06820F4D2
:1037800090702168C8602068406920F001002168BD
:103790004861202084F83A002046FFF7BDF9002058
:1037A00070BD0020FCE70220FAE700002DE9F0419F
:1037B000044600252068056925F44055E068054366
:1037C000206805612068C56849F20C60854321695D
:1037D000A068084361690843E1690843054320681C
:1037E000C5602068456925F44075A06905432068D7
:1037F0004561E069B0F5004F7ED1C4492068884238
:1038000003D0C349206888425DD1FEF717FC00EB66
:10381000C00101EB001061684900B0FBF1F06421C8
:10382000B0FBF1F00601FEF709FC00EBC00101EB73
:10383000001061684900B0FBF1F7FEF7FFFB00EBF9
:10384000C00101EB001061684900B0FBF1F0642198
:10385000B0FBF1F000EBC00101EB0010A7EB800022
:10386000322101EBC0006421B0FBF1F000F0F80060
:1038700006EB4006FEF7E2FB00EBC00101EB001097
:1038800061684900B0FBF1F7FEF7D8FB00EBC0011F
:1038900001EB001061684900B0FBF1F06421B0FB5E
:1038A000F1F000EBC00101EB0010A7EB800032212A
:1038B00001EBC0006421B0FBF1F000F007003044E0
:1038C0002168886020E1FEF7A9FB00EBC00101EB55
:1038D000001061684900B0FBF1F06421B0FBF1F029
:1038E0000601FEF79BFB00EBC00101EB00106168D5
:1038F0004900B0FBF1F700E045E0FEF78FFB00EB7D
:10390000C00101EB001061684900B0FBF1F06421D7
:10391000B0FBF1F000EBC00101EB0010A7EB800061
:10392000322101EBC0006421B0FBF1F000F0F8009F
:1039300006EB4006FEF772FB00EBC00101EB001046
:1039400061684900B0FBF1F7FEF768FB00EBC001CE
:1039500001EB001061684900B0FBF1F06421B0FB9D
:10396000F1F000EBC00101EB0010A7EB8000322169
:1039700001EBC0006421B0FBF1F000F0070030441F
:1039800021688860C0E061492068884203D06049AE
:10399000206888425CD1FEF751FB00EBC00101EBCF
:1039A000001061688900B0FBF1F6FEF747FB00EB01
:1039B000C00101EB001061688900B0FBF1F06421E7
:1039C000B0FBF1F000EBC00101EB0010A6EB8000B2
:1039D000322101EB00106421B0FBF1F000F0F006A1
:1039E000FEF72CFB00EBC00101EB001061688900C1
:1039F000B0FBF1F06421B0FBF1F006EB0016FEF72E
:103A00001DFB00EBC00101EB001061688900B0FBF9
:103A1000F1F7FEF713FB00EBC00101EB001061684A
:103A20008900B0FBF1F06421B0FBF1F000EBC001C4
:103A300001EB0010A7EB8000322101EB00106421A4
:103A4000B0FBF1F000F00F003044216888605BE0CB
:103A5000FEF7E4FA00EBC00101EB00106168890099
:103A6000B0FBF1F6FEF7DAFA00EBC00101EB001053
:103A700061688900B0FBF1F06421B0FBF1F000EB6C
:103A8000C00101EB0010A6EB8000322101EB001019
:103A90006421B0FBF1F000F0F006FEF7BFFA00EB96
:103AA000C00101EB001061688900B0FBF1F06421F6
:103AB000B0FBF1F006EB0016FEF7B0FA00EBC00128
:103AC00001EB001061688900B0FBF1F7FEF7A6FA80
:103AD00000EBC00101EB001061688900B0FBF1F060
:103AE0006421B0FBF1F000EBC00101EB0010A7EB8B
:103AF0008000322101EB00106421B0FBF1F000F0F6
:103B00000F00304421688860BDE8F081001001405A
:103B100000140140014691F8390021282CD1886811
:103B2000B0F5805F0FD10A6A1088C0F308000B68F7
:103B30005860086918B9086A801C086209E0086AB8
:103B4000401C086205E00B6A581C086218780B6874
:103B50005860C88C401E80B2C88458B90868C068D4
:103B600020F080000B68D8600868C06840F0400012
:103B70000B68D860002070470220FCE72DE9F04177
:103B800004460D4617469846069E21E0701CF8B183
:103B90002EB1FEF79DF8A0EB0800B04218D92068BE
:103BA000C06820F4D0702168C8602068406920F0A7
:103BB000010021684861202084F8390084F83A0027
:103BC00000BF002084F8380000BF0320BDE8F0816A
:103BD000206800682840A84201D1012000E00020B0
:103BE000B842D3D00020F1E708B5002000900A4881
:103BF000FEF72AFE0948006800F0200030B10748AF
:103C00004068C0B200906846FDF784FC0122044978
:103C10000148FEF74FFF08BD8C0000200010014056
:103C20000D00002010B50248FEF70EFE10BD00008A
:103C3000CC00002000BFFEE710B52DED0E8B9FEDF0
:103C4000FE0BB0EE40AAF0EE60AAFD4890F86000CE
:103C500002287CD003DC38B101285FD15FE0032863
:103C600076D0FF28F9D141E1F54890ED101BB0EE78
:103C7000410AF0EE610AF34890ED001B53EC112B62
:103C800051EC100BFCF774FB41EC1B0BEC4890ED76
:103C9000121BB0EE410AF0EE610A53EC102B51EC0E
:103CA0001B0BFCF7BEFA41EC1A0BE54890ED141B18
:103CB000B0EE410AF0EE610A00F0D6FAB0EE40BA7A
:103CC000F0EE60BAB0EE4A0AF0EE6A0A00F0CCFA02
:103CD000B0EE40CAF0EE60CA53EC1B2B51EC1C0B4B
:103CE000FCF796FC06D2D64890ED140BB0EE40AA35
:103CF000F0EE60AA0020B0EE4A0AF0EE6A0AFCF785
:103D000085FE9FEDD10B53EC102BCE4890ED000BB0
:103D100051EC100BFCF785FACA4A03C2F4E0C8481C
:103D200090ED021BB0EE410AF0EE610AC54890ED3D
:103D3000001B53EC112B51EC100BFCF719FB41EC61
:103D40001E0BBF4890ED041BB0EE410A01E047E0B6
:103D5000B1E0F0EE610A53EC102B51EC1E0BFCF7B6
:103D600060FA41EC1D0BB0EE4D0AF0EE6D0A00F06A
:103D700087FAB0EE40CAF0EE60CAB14890ED001B81
:103D8000B0EE410AF0EE610A53EC102B51EC1C0B23
:103D9000FCF7EEFA41EC1B0BA94890ED061BB0EEC8
:103DA000410AF0EE610A53EC102B51EC1B0BFCF7AF
:103DB00038FA41EC1A0B0020B0EE4A0AF0EE6A0A1B
:103DC000FCF724FE9FEDA00B53EC102B9D4890EDCB
:103DD000000B51EC100BFCF724FA9A4A03C293E053
:103DE000974890ED0C1BB0EE410AF0EE610A53ECDF
:103DF000102B9FED971B51EC110BFCF72BFB41ECAB
:103E0000180B8F4890ED0E1BB0EE410AF0EE610AE0
:103E100053EC182B51EC100BFCF7AAFA41EC190BE0
:103E200053EC182B874890ED000B51EC100BFCF76E
:103E300011FB41EC1E0BFCF7B9FB0446FCF78AFBB7
:103E400041EC1D0B53EC182BFCF792FA41EC1C0BC8
:103E50007C4890ED000B53EC102B51EC1C0BFCF745
:103E600084FA41EC1B0B53EC192BFCF7B9FB0AD27B
:103E7000734890ED081BB0EE410AF0EE610A002095
:103E8000FCF7C4FD09E06E4890ED0A1BB0EE410A54
:103E9000F0EE610A0020FCF7B9FD9FED6B0B53ECCF
:103EA000102B684890ED000B51EC100BFCF7B9F9A2
:103EB000644A03C228E0624890ED161B664880ED14
:103EC000001BB0EE410AF0EE610A0020FCF79EFDF7
:103ED0009FED5D0B53EC102B5A4890ED000B51EC0D
:103EE000100BFCF79EF9574A03C20DE09FED560BED
:103EF00053EC102B534890ED000B51EC100BFCF7DA
:103F000090F9504A03C200BF00BF4D4890F8C80066
:103F100002287DD003DC38B1012860D160E003289D
:103F200077D0FF28F9D15CE1454890ED2A1BB0EE2F
:103F3000410AF0EE610A494890ED001B53EC112B49
:103F400051EC100BFCF714FA41EC1B0B3C4890EDC4
:103F50002C1BB0EE410AF0EE610A53EC102B51EC31
:103F60001B0BFCF75EF941EC1A0B354890ED2E1B4C
:103F7000B0EE410AF0EE610A00F076F9B0EE40BA18
:103F8000F0EE60BAB0EE4A0AF0EE6A0A00F06CF9A0
:103F9000B0EE40CAF0EE60CA53EC1B2B51EC1C0B88
:103FA000FCF736FB06D2264890ED2E0BB0EE40AA69
:103FB000F0EE60AA4FF40030B0EE4A0AF0EE6A0A62
:103FC000FCF724FD9FED200B53EC102B234890EDC4
:103FD000000B51EC100BFCF724F9204A03C20EE150
:103FE000174890ED1C1BB0EE410AF0EE610A1B4829
:103FF00090ED001B53EC112B51EC100BFCF7B8F9B2
:1040000041EC1E0B0E4890ED1E1BB0EE410A01E084
:104010005EE0CAE0F0EE610A53EC102B51EC1E0B8F
:10402000FCF7FFF841EC1D0BB0EE4D0AF0EE6D0A07
:1040300000F026F914E0000000000000000000007D
:1040400058010020300000207B14AE47E17A743F15
:10405000000000000000F03F1800002038000020A1
:10406000B0EE40CAF0EE60CA674890ED1A1BB0EEA1
:10407000410AF0EE610A53EC102B51EC1C0BFCF7DB
:1040800077F941EC1B0B604890ED201BB0EE410A24
:10409000F0EE610A53EC102B51EC1B0BFCF7C1F84E
:1040A00041EC1A0B4FF40030B0EE4A0AF0EE6A0A07
:1040B000FCF7ACFC1FED1C0B53EC102B534890EDA0
:1040C000000B51EC100BFCF7ACF8504A03C296E021
:1040D0004D4890ED261BB0EE410AF0EE610A53EC1C
:1040E000102B1FED251B51EC110BFCF7B3F941EC24
:1040F000180B454890ED281BB0EE410AF0EE610A1E
:1041000053EC182B51EC100BFCF732F941EC190B66
:1041100053EC182B3D4890ED000B51EC100BFCF7C5
:1041200099F941EC1E0BFCF741FA0446FCF712FA30
:1041300041EC1D0B53EC182BFCF71AF941EC1C0B4E
:10414000324890ED000B53EC102B51EC1C0BFCF79C
:104150000CF941EC1B0B53EC192BFCF741FA0BD279
:10416000294890ED221BB0EE410AF0EE610A4FF4AF
:104170000030FCF74BFC0AE0234890ED241BB0EE26
:10418000410AF0EE610A4FF40030FCF73FFC1FEDEE
:10419000520B53EC102B1D4890ED000B51EC100B03
:1041A000FCF73FF8194A03C229E0174890ED301B8D
:1041B000174880ED001BB0EE410AF0EE610A4FF4A3
:1041C0000030FCF723FC1FED600B53EC102B0F4865
:1041D00090ED000B51EC100BFCF723F80B4A03C2D7
:1041E0000DE01FED670B53EC102B084890ED000B12
:1041F00051EC100BFCF715F8044A03C200BF00BFD6
:10420000BDEC0E8B10BD00005801002038000020CE
:104210001800002000BFFEE70FB4054B10B503A93E
:10422000044A029800F07CFD10BC5DF814FB00000D
:10423000695400084800002003B401984100009828
:1042400050EAC12018BF04204A0D18BF40F00100F9
:1042500040F2FF72B2EB515F08BF40F0020001284C
:1042600008BF052002B070472DED020B019820F029
:10427000004001909DED000B02B07047000000006F
:1042800010B52F499FED2C1B2DED020B84B0059826
:1042900020F000408842DCBF00209DED040B32DDA1
:1042A0002849884209D1049840B94FF0010000F034
:1042B0006FFC00F03DFC06B010BD05DB9DED040B6E
:1042C00000F02AFC06B010BD68469DED040B00F01E
:1042D0003BF810F0030011D0012818D09DED021B0F
:1042E0009DED000B02281AD000F04AFA51EC100B99
:1042F00081F0004106B041EC100B10BD9DED021B9A
:104300009DED000B012000F06FFB06B010BD9DED90
:10431000021B9DED000B00F033FA06B010BD01202A
:1043200000F062FB51EC100B81F0004106B041EC53
:10433000100B10BD00000000000000000000000095
:10434000FB21E93F0000F07F2DE9F14F04462DED00
:10435000020B2DED088B8AB09FEDE70B80ED020B71
:10436000139EE74826F0004585420ADC9DED120BBE
:10437000002084ED000B0AB0BDEC088B03B0BDE853
:10438000F08FE0489FEDE0AB9FEDE1BBA84247DD39
:10439000E14F9FEDE39B9FEDE48B9DED120B53EC02
:1043A0001A2B51EC100B002E1CDDFBF7DBFF41EC50
:1043B000100BBD4208D053EC1B2B51EC100BFBF73C
:1043C000D1FFC4E900010BE053EC192B51EC100BA9
:1043D000FBF7C8FF53EC182BFBF7C4FFC4E900013F
:1043E0000120C8E7FBF71DFF41EC100BBD4208D0D0
:1043F00053EC1B2B51EC100BFBF713FFC4E900012E
:104400000BE053EC192B51EC100BFBF70AFF53ECAC
:10441000182BFBF706FFC4E900014FF0FF30AAE7B5
:10442000C348A84279DB9DED120B51EC100B01F053
:104430000EF841EC180B9FEDC00B53EC102BFBF763
:1044400097FF9FEDBF1B53EC112BFBF7EAFEFCF728
:104450008EF80746FCF76DF841EC190B53EC1A2B5C
:10446000FBF786FF53EC182BFBF77FFF41EC180B93
:1044700053EC1B2B51EC190BFBF77AFFDFF8C8A2AA
:1044800041EC100B4FEA15580125FA4453EC102B60
:1044900051EC180BFBF766FF032DC4E900013DD07A
:1044A000C1F30A5005EB4511A8EB00001139814218
:1044B00034DA0AEB051BB0EE48AA9BED000BF0EED8
:1044C00068AA53EC102B51EC190BFBF751FF41EC90
:1044D0001B0B51EC1A0B53EC1B2BFBF743FF41EC6E
:1044E000180B51EC1A0B53EC182BFBF73BFF53EC5A
:1044F0001B2BFBF737FF9BED020B41EC1A0B53EC28
:10450000102B51EC190BFBF733FF53EC1A2BFBF775
:1045100029FF41EC100B6D1CB8E70EE0002EA8BF80
:104520003846BFF628AF94ED000B51EC100B81F02C
:104530000041C4E9000178421DE7C6F3130040F4CE
:10454000801EC6F30A50A0F2F530471100F01F0597
:10455000C5F12000DDF848B00890002006900790D3
:104560000520EC467949002D07EB0002794408BF8D
:1045700051F8221009D051F8223001EB8201AB40F2
:104580004A68089922FA01F11943A1FB0E26A1FB02
:104590000B131A449A4234BF0123002303EB06088D
:1045A0000CEB8003D3E901A60E448E4234BF0121F7
:1045B000002192448A4411B1924502D903E0924508
:1045C00001D2012100E00021C3E901A641444CF8D9
:1045D0002010011EA0F10100C4DC029800F100507F
:1045E000850F0298DDE903678000DDF81480FBF792
:1045F000A0FF41EC1A0B3046FBF7ACFF9FED541BBC
:1046000053EC112BFBF7B4FE41EC1B0B3846FBF7C8
:10461000A1FF9FED511B53EC112BFBF7A9FE41ECC1
:10462000180B4046FBF796FF9FED4D1B53EC112BEB
:10463000FBF79EFE41EC190B51EC180B53EC192BB8
:10464000FBF7EFFD53EC1B2BFBF7EBFD53EC1A2BA9
:10465000FBF7E7FDCDE90801002008909DED080B70
:1046600053EC1A2B51EC100BFBF77CFE53EC1B2B7D
:10467000FBF778FE53EC182BFBF774FE53EC192B69
:10468000FBF773FE9FED381B53EC112BFBF770FE0D
:104690009FED370B41EC180B53EC102B9DED080BE5
:1046A00051EC100BFBF764FE53EC182BFBF7B9FD34
:1046B0009FED310B41EC180B53EC102B9DED080BCB
:1046C00051EC100BFBF754FE53EC182BFBF7A9FD34
:1046D00041EC100B139810F0004F06D06D4251ECD6
:1046E000100B81F0004141EC100B284684ED000BCB
:1046F00041E6000000000000000000000000000093
:10470000FB21E93F7CD9024000004054FB21F93FE6
:104710003163621A61B4D03DFB21F93F0000000013
:104720000000601A61B4D03D7370032E8A19A33B58
:10473000FB2139410000000083C8C96D305FE43FB0
:10474000000000000000E03FAA100000F80F000089
:10475000000000000000103E000000000000103CBF
:10476000000000000000103A182D4454FB21F93DD0
:104770003326A611460B113C00000054FB21F93DE5
:1047800010B52DED040B2DED088B82B0B0EE419AE3
:10479000F0EE619A0B9820F000449FED4BABB4F122
:1047A000795F11DA9DED0A0B51EC100BFBF7DFFE80
:1047B000002801BFB0EE4A0AF0EE6A0A02B0BDEC72
:1047C000088B04BF04B010BD9DED0A0B53EC102BF9
:1047D00051EC100BFBF7CCFD41EC180B3C480621CB
:1047E000B0EE480AF0EE680A784400F081F853EC25
:1047F000182B51EC100BFBF7BBFD9DED0A0B41ECA8
:104800001B0B53EC192B51EC100BFBF7B1FD41ECDA
:10481000190B53EC1B2B51EC180BFBF7A9FD53ECB8
:10482000192BFBF79FFD9FED2C0B41EC190B53EC63
:10483000102B51EC180BFBF79BFD41EC100B28489B
:10484000844210DA53EC192B51EC100BFBF78AFD64
:1048500053EC1A2BFBF789FD41EC100B02B0BDECB9
:10486000088B04B010BD1F48A042BCBF9FED1E1BAB
:104870008DED001B06DBA4F50010019000200090D8
:104880009DED001B51EC100B53EC112BFBF76AFD57
:104890009DED000B41EC180B53EC102B51EC1A0B57
:1048A000FBF760FD41EC1A0B53EC192B51EC180B84
:1048B000FBF758FD53EC1A2BFBF757FD41EC100B9F
:1048C000CCE7000000000000000000000000F03F06
:1048D0001C0D000000000000000000000000E03F90
:1048E0003333D33F0000E93F000000000000D23F17
:1048F00070B504462DED028B4D1E00EBC500B0EEE9
:10490000408AF0EE608A90ED000B35F0060017D07B
:1049100053EC182B51EC100BFBF72AFD41EC100B5C
:104920006D1E04EBC50090ED001B51EC100B53EC19
:10493000112BFBF776FC41EC100B35F00600E7D1AC
:10494000022D36D0042D1CD0062D1CBFBDEC028BD1
:1049500070BD53EC182B51EC100BFBF709FD94EDD7
:104960000A1B53EC112BFBF75CFC53EC182BFBF7E9
:10497000FFFC94ED081B53EC112BFBF752FC41ECB0
:10498000100B53EC182B51EC100BFBF7F1FC94EDD2
:10499000061B53EC112BFBF744FC53EC182BFBF7D5
:1049A000E7FC94ED040B53EC102BFBF73AFC41ECC5
:1049B000100B53EC182B51EC100BFBF7D9FC94EDBA
:1049C000021B53EC112BFBF72CFC53EC182BFBF7C1
:1049D000CFFC94ED001B53EC112BFBF722FCBDEC3C
:1049E000028B41EC100B70BD31B504462DED040B6C
:1049F0002DED0A8BB0EE41BAF0EE61BA0B989DED49
:104A00000A0B20F00040B0F1795F0DDA51EC100B89
:104A1000FFF712FC042808BF00F09AF89DED0A0B7E
:104A2000BDEC0A8B05B030BD53EC102B51EC100BD4
:104A3000FBF79EFC41EC180B9DED0A0B53EC182B79
:104A400051EC100BFBF794FC41EC190B2C48B0EE29
:104A5000480AF0EE680A05217844FFF749FF9FED08
:104A60002ACBB0EE40AAF0EE60AA9CB353EC1C2B0C
:104A700051EC190BFBF77CFC41EC1C0B53EC1A2B93
:104A800051EC190BFBF774FC9FED210B41EC190B5A
:104A900053EC102B51EC1B0BFBF76AFC53EC192B5E
:104AA000FBF760FC53EC182BFBF762FC53EC1B2B61
:104AB000FBF758FC53EC1C2BFBF754FC9DED0A1B39
:104AC00053EC112BFBF751FCBDEC0A8B05B041EC0C
:104AD000100B30BDFFE753EC1A2B51EC180BFBF712
:104AE00047FC53EC1C2BFBF79CFB53EC192BFBF7FF
:104AF0003FFC9DED0A1B53EC112BFBF792FBE3E708
:104B0000A40B000000000000495555555555C5BF80
:104B1000000000000000E03F10B553EC102B51ECFA
:104B2000100BFBF77EFB41EC100B10BD00000000EA
:104B30009FED050B10B553EC102B51EC100BFBF750
:104B400089FC41EC100B10BD0000000000000000CB
:104B50009FED050B10B553EC102B51EC100BFBF730
:104B600007FC41EC100B10BD00000000000000101D
:104B700002E008C8121F08C1002AFAD17047704726
:104B8000002001E001C1121F002AFBD17047000084
:104B900001490860704700004C0000202DE9FF5FCC
:104BA00082B00021DDE90430020DDDF840B003439E
:104BB00018D044F61050A2F2FF3242431514119857
:104BC00001281FD0A5EB0B00401C5FEA000A4FF044
:104BD00000064E4FDFF83891B046504615D5CAF161
:104BE000000413E0119801244AA3012801D16FEABF
:104BF0000B010298119AC0E90031C0E9024206B0E7
:104C0000BDE8F09FCBF10000DFE704460021404AF9
:104C1000491842EB0450CDE9001012E0E00707D03C
:104C200032463B4640464946FBF7A2FB8046894652
:104C300032463B4610461946FBF79AFB06460F469E
:104C40006410002CEAD1DDE90401DDE90023BAF1AA
:104C5000000F06DAFBF78CFB42464B46FBF788FB5E
:104C600005E0FBF7F7FB42464B46FBF7F3FB044638
:104C70000E460022284BFBF7CBFC03D84FF0FF3049
:104C8000014607E00022254B20463146FBF7C9FAD2
:104C9000FBF77AFD102409E0002C0ADB0A2200232E
:104CA000FBF78EFA039B30321A55641E50EA01025C
:104CB000F2D1641C039AC4F111031444119A012A1D
:104CC00003D0012208430DD10AE0084304D000209C
:104CD0004FF0110B119072E7A3EB0B056D1E0DE069
:104CE0005B4504DD4FF0000205F1010504E003DA45
:104CF0004FF00002A5F10105002AECD002981199AD
:104D0000C0E90231C0E9004579E700000000144025
:104D10000000F03F300000000000F0430000E03FE2
:104D20002DE9FF4F95B09B468946064600250FE2C8
:104D3000252877D100242746F84A0121059400E070
:104D4000044316F8013F203B01FA03F01042F7D16B
:104D500030782A2811D06FF02F033078A0F130027C
:104D6000092A16D8059A44F0020402EB820203EBEA
:104D700042021044761C0590EFE759F8042B059287
:104D8000002A03DA504244F40054059044F002042F
:104D9000761C30782E2816D116F8010F44F0040442
:104DA0002A280DD06FF02F023078A0F13003092BA4
:104DB00009D807EB870302EB4303C718761CF3E718
:104DC00059F8047B761C30786C280FD006DC4C2810
:104DD00017D068280DD06A2814D104E0742810D0A8
:104DE0007A280FD10DE044F400140AE044F4801452
:104DF00001E044F440147278824202D104F5801438
:104E0000761C761C307866280BD013DC582877D0B7
:104E100009DC002875D04528F6D04628F4D047286C
:104E20001AD19DE118E0632835D0642879D065282F
:104E300012D195E1702873D008DC6728F1D0692879
:104E40006FD06E280DD06F2806D1B5E073282CD016
:104E5000752875D0782874D05A46179990476D1CDC
:104E600075E1C4F30250022809D003280DD0D9F807
:104E7000001004280DD00D6009F1040967E1D9F88C
:104E80000010EA17C1E90052F6E7D9F800100D80CA
:104E9000F2E70D70F0E719F8041B8DF80010002000
:104EA0008DF80100EA46012003E059F804AB4FF009
:104EB000FF3061074FF0000102D40DE008F101015D
:104EC0008846B9420FDA8045F8DB1AF80810002945
:104ED000F4D108E008F1010188468142FADB1AF8B2
:104EE00008100029F6D105985B46A0EB080721467B
:104EF0003846179A00F094FA284400EB080507E0BA
:104F00004DE029E10DE01AF8010B5A461799904738
:104F1000B8F10108F7D25B4621463846179A13E1EB
:104F200042E00A220092C4F302524FF0000A022A21
:104F300008D059F804CB032A4FEAEC710AD00DE0EF
:104F400029E02AE009F1070121F00702F2E802C195
:104F5000914609E00FFA8CFC4FEAEC71042A03D168
:104F60004FFA8CFC4FEAEC71002907DA0A4600215F
:104F7000DCF1000C61EB02012D2202E0220504D5D8
:104F80002B228DF80420012203E0E20701D0202229
:104F9000F7E7904659E00A2102E010220DE01021C7
:104FA0004FF0000A00910BE010224FF0000A44F08D
:104FB00004040827009203E008224FF0000A009240
:104FC000C4F30252022A05D059F804CB0021032A67
:104FD00008D009E009F1070121F00702F2E802C157
:104FE000914605E01FFA8CFC042A01D10CF0FF0C5D
:104FF0004FF00008220728D5702806D0009B83F0C8
:10500000100353EA0A0305D00EE040228DF8042075
:10501000012208E05CEA010206D030228DF804206B
:105020008DF8050002229046009B83F0080353EAA6
:105030000A030AD15CEA010201D1620705D53022D8
:105040008DF804204FF001087F1E582804D034A0AA
:1050500003900EA802900DE036A0F9E75346604693
:10506000009AFBF7ADF884460398825C0298401ED4
:10507000029002705CEA0100F0D1029806A9081AB9
:1050800000F1200A600702D524F4803400E00127F3
:10509000574502DDA7EB0A0000E0002000EB0A0103
:1050A000009005984144401A0590E00306D45B4601
:1050B0002146179A059800F0B3F90544002706E049
:1050C00001A85A46C05D179990476D1C7F1C474543
:1050D000F6DBE0030CD55B462146179A059800F0F5
:1050E0009FF9054404E030205A46179990476D1CFB
:1050F0000099481E00900029F5DC08E0029802990A
:105100005A460078491C0291179990476D1CBAF1D4
:105110000001AAF1010AF1DC65E1000009280100A3
:10512000303132333435363738396162636465661D
:1051300000000000303132333435363738394142DF
:10514000434445460000000000F058F90544761C31
:10515000307800287FF4ECAD19B02846BDE8F08F18
:10516000620700D4062709F1070222F0070CFCE8C9
:105170000223E14603F000485FEA080C02D00FF278
:10518000702C0DE05FEA045C02D50FF2682C07E09A
:105190005FEAC47C02D00FF2602C01E0AFF2700C29
:1051A0004FF0FF3823F00043CDF850C065280CD0F5
:1051B00006DC452809D046281DD047283DD13DE0D2
:1051C000662818D067287ED138E00021112F01DB36
:1051D000112000E0781CCDE9000106A90EA8FFF718
:1051E000DDFCDDE90F010E9A03910021009207F129
:1051F000010A04914DE04FF000400097CDE9011005
:1052000006A90EA8FFF7CAFCDDE90F0203920E9B68
:1052100011990022DDF80CA00093049211B9791CB9
:1052200000EB010AB7EB0A0004D4C0F1FF3007F12C
:10523000010A0490AAEB0700019044E0012F00DA74
:1052400001270021112F01DD112000E03846CDE9B2
:10525000000106A90EA8FFF7A1FCDDE90F010E9AD7
:105260000391002104910092BA4621070CD40399BE
:10527000514500DA8A46BAF1010F05DD009AAAF11C
:105280000101515C302908D0B84202DA10F1040F54
:1052900006DA0121CDE9011015E0AAF10101E9E7E3
:1052A000002805DC049901440491AAEB000102E006
:1052B000411C514500DD8A460499401A401C01906A
:1052C0004FF000400290200704D40198504501DBC4
:1052D000CDF8048000208DF84F0002980DF14F07A3
:1052E000B0F1004F25D02B200E9002984FF002080D
:1052F00000280CDA404202902D200E9007E00A218F
:105300000298FBF79DF93031029007F8011DB8F1C2
:105310000001A8F10108F2DC02980028EFD1791E03
:105320000E980870307800F0200040F0450007F833
:10533000020D12A8C01B00F107081498007800B1F4
:10534000012000EB0A01019801EBE071059841444E
:10535000401A401E0590E00306D45B462146179A8A
:10536000059800F05DF805441498007818B15A4685
:10537000179990476D1CE00324D55B462146179A88
:10538000059800F04DF805441CE00498002807DB60
:10539000DDE90301884203DD0098405C179901E0D4
:1053A000179930205A469047049805F10105401C92
:1053B00004900198401E019004D12E205A4617995E
:1053C00090476D1CBAF10001AAF1010ADDDC05E08D
:1053D00017F8010B5A46179990476D1CB8F1000158
:1053E000A8F10108F4DC5B462146179A0598ABE664
:1053F0002D0000002B000000200000002DE9F041EE
:10540000044600251E461746880404D405E03946A4
:105410002020B0476D1C641EF9D52846BDE8F081F8
:105420002DE9F041044600251E469046C80301D5EB
:10543000302700E02027880404D505E0414638469F
:10544000B0476D1C641EF9D52846BDE8F08182B0D6
:10545000CDE9000121F0004001909DED000B02B06C
:1054600051EC100B7047000013B50C464FF6FF735C
:10547000012269460248FDF750FB00981CBD000060
:105480008C000020FCF736FCFDF772FEFDF712FDE4
:10549000FDF7FAFDFDF7CCFDFDF71CFEFDF7E0FC86
:1054A000FDF7ACFD0B48FDF7EFF801220A490B4868
:1054B000FDF700FBFBF742FAFEF7A6F808E0084804
:1054C000FDF7F8FF0748FDF7ADFF0748FDF7FCFFC4
:1054D000F5E70000500000200D0000208C000020A7
:1054E0004000002041000020430000200000000098
:1054F0000000000001020304060708090000000084
:1055000001020304000000004C5555555555A53FB8
:105510007751C1166CC156BF9015CB19A001FA3E48
:10552000AD529C804F7E92BEC4B1B4BD9EEE213E72
:10553000D43888BEE9FAA8BD00004054FB21F93FE9
:105540003163621A61B4D03D0000601A61B4D03D8D
:105550007370032E8A19A33B0000002E8A19A33B07
:10556000C14920259A837B3900000000000000001B
:105570006E83F9A22915444ED15727FCC0DD34F5BE
:10558000999562DB4190433CAB6351FE61C5BBDE44
:105590003A6E24B7E0D24D42EA2E49061C92D10958
:1055A0001CEB1DFE3EA729B1F53582E88444BB2ED5
:1055B00026709CE9417E5FB439D69139F439538322
:1055C0008B5F849C3B28F9BDFF97F81F0F9805DE81
:1055D0008B112FEF1F6D0A5ACF7E366DB709CB277F
:1055E000663F464F2DEA5F9EC7BA27757BF1E5EB14
:1055F000F739073DEA92528AB15FFB6B085D8D1F58
:10560000A6F810111111813FD561C119A0012ABF5F
:105610007DFEB157E31DC73EEB9C2B8AE6E55ABEE3
:105620007CD5CF5A3AD9E53D485600080000002005
:1056300050000000704B00089856000850000020F1
:1056400040080000804B00080024F4000000000027
:105650001000000001000000000000000000000039
:105660000000000000000000000004000000000036
:10567000000000000000000000000000000000002A
:10568000000000000000000000000000000000001A
:08569000000000000000000012
:040000050800018965
:00000001FF
