:020000040800F2
:10000000780700209D010008912100081B1F0008AF
:100010008D210008990A0008D52A00080000000078
:10002000000000000000000000000000CF210008D8
:10003000910D000800000000CD210008D12100082A
:10004000B7010008B7010008B7010008B7010008B0
:10005000B7010008B7010008B7010008B7010008A0
:10006000B7010008B7010008B7010008B701000890
:10007000B7010008B7010008B7010008B701000880
:10008000B7010008B7010008B7010008B701000870
:10009000B7010008B7010008B7010008B701000860
:1000A000B7010008B7010008B7010008B701000850
:1000B000B7010008B7010008B7010008B701000840
:1000C000B7010008B7010008B7010008B701000830
:1000D000B7010008A12A0008C52A0008B7010008D6
:1000E000B7010008B7010008B7010008B701000810
:1000F000B7010008B7010008B7010008B701000800
:10010000B7010008B7010008B7010008B7010008EF
:10011000B7010008B701000821230008B701000853
:10012000B7010008B7010008B7010008B7010008CF
:10013000B70100080000000000000000B70100083F
:10014000B7010008B7010008B7010008B7010008AF
:10015000B7010008B7010008B7010008B70100089F
:10016000B7010008B7010008B7010008B70100088F
:10017000B7010008B70100080000000000000000FF
:10018000B7010008B7010008DFF80CD000F0F4FA5E
:1001900000480047CD3F0008780700200648804708
:1001A00006480047FEE7FEE7FEE7FEE7FEE7FEE75C
:1001B000FEE7FEE7FEE7FEE7BD2200088901000832
:1001C0002DE9F05F0546002092469B46884606468C
:1001D000814640241BE0284641464746224600F01F
:1001E0001CFA53465A46C01A914110D3114618467C
:1001F000224600F003FA2D1A67EB01084F4622460B
:100200000120002100F0FAF917EB00094E41201EF1
:10021000A4F10104DFDC484631462A464346BDE8E6
:10022000F09F2DE9FE4F804681EA0300C00F0C4687
:10023000009021F0004123F00045B8EB0200A941F5
:1002400005D24046214690461C460B46024623F006
:100250000040104347D0270DC7F30A00C3F30A51EB
:100260000290401A019040286BDAC3F3130040F467
:10027000801B0098924620B10023D2EB030A63EB67
:100280000B0B01985946C0F14002504600F0B6F9F8
:1002900006460D4650465946019A00F0CEF910EB3D
:1002A00008006141002487EA115284EAE7731A4387
:1002B00040D0009A62B3019A012A4FEA075215DC36
:1002C000001B61EB02014FF0004202EA0752CDE948
:1002D0000042001C41F5801132462B4600F0CEF959
:1002E00003B0BDE8F08F40462146F9E7001B61EB03
:1002F0000201001C41F5801300185B412018A2F593
:10030000001747EB030140EAD570B6196D4111E0C3
:100310006D084FEA360645EAC0754FEA0752001BE2
:1003200061EB0201001C41F5801149084FEA3000E1
:100330000019514132462B4603B0BDE8F04F00F0A2
:100340008EB90098012240000023D0EB020263EB3B
:10035000E073009821464FEAE074B8EB000061EBCF
:100360000401E9E783F000435BE781F0004158E7CF
:100370002DE9FE4F81EA030404F0004421F000411E
:1003800000944FF0000B23F0004350EA01045ED0CC
:1003900052EA03045BD0C3F30A54C1F30A552C4458
:1003A000A4F2F3340194A0FB0254C1F3130141F40D
:1003B0008011C3F3130343F4801301FB024400FBD9
:1003C000034E840A970A44EA815447EA8357A4FB00
:1003D000076802958D0A05FB07854FEA932C04FBFD
:1003E0000C542705029D4FEA065847EA1637B5EB2D
:1003F00008056EEB070C870E920E47EA811742EA5A
:100400008312A7FB0201B6EB0B0164EB00042B0D7A
:1004100043EA0C335E1844EB1C50DA465146E7FBC6
:100420000201C5F313044FEA0B3343EA14534FEAB6
:100430000432019C43EA0603A4F10C040294009CDC
:10044000CDE900B400F01AF903B0BDE8F08F002048
:100450000146F9E72DE9F04D81EA030404F0004B71
:1004600021F0004514464FF0000A23F0004150EA05
:10047000050220D054EA01021DD0C5F30A570246F6
:10048000C5F31303C1F31300C1F30A5640F48015FA
:1004900043F48013A7EB0608101BD64608F2FD387C
:1004A00073EB050002D308F1010801E092185B41EB
:1004B000B8F1000F03DA00200146BDE8F08D0020FE
:1004C0004FF48011064684460EE0171B73EB0507B8
:1004D00005D3121B63EB050306434CEA010C4908E4
:1004E0004FEA300092185B4150EA0107EDD152EA21
:1004F000030012D082EA040083EA0501084305D014
:10050000101BAB4106D20122002306E000224FF06F
:10051000004302E06FF0010253101AEB06004CEBAF
:10052000085110EB0A0041EB0B01BDE8F04D00F063
:1005300096B80EB5C10F80EAE0700844CA070021E2
:1005400040F233438DE80E000A460B4600F096F861
:1005500003B000BD0EB540F2334102910021CDE958
:1005600000110A460B4600F089F803B000BDC1F344
:100570000A5210B5C1F3130140F2FF3341F4801168
:100580009A4201DA002010BD40F233439A42A2F2AF
:10059000334203DC524200F040F810BD904010BDE1
:1005A00030B5041E71F1000404DB4FF000444042FA
:1005B00064EB0101141E73F1000405DB1C464FF0CF
:1005C0000043524263EB04038B4208BF824230BDBA
:1005D00030B50B46014600202022012409E021FA13
:1005E00002F59D4205D303FA02F5491B04FA02F510
:1005F0002844151EA2F10102F1DC30BD202A04DBE3
:10060000203A00FA02F1002070479140C2F1200325
:1006100020FA03F3194390407047202A04DB203A64
:1006200021FA02F00021704721FA02F3D040C2F112
:1006300020029140084319467047202A06DBCB1759
:10064000203A41FA02F043EAE07306E041FA02F38D
:10065000D040C2F12002914008431946704710B5BE
:10066000141E73F1000408DA401C41F100019218D5
:100670005B411A4301D120F0010010BD2DE9F04D7E
:1006800092469B4611B1B1FA81F202E0B0FA80F2D3
:1006900020329046FFF7B2FF04460F4640EA0A00B8
:1006A00041EA0B0153465A46084313D0114653EA18
:1006B000010019D0C8F140025046FFF7AEFF0546D1
:1006C0000E46504659464246FFF798FF084305D06C
:1006D000012004E020463946BDE8F08D00200543A6
:1006E00046EAE0762C4337430A986305E40AA0EB18
:1006F00008000022FD0A44EA47540A3002D50020CF
:100700000146E9E7010510196941DDE908450019CD
:100710006941BDE8F04DA2E7C1F30A52C1F31301EC
:1007200040F2FF3341F480119A4202DA0020014680
:10073000704740F233439A42A2F2334202DC524203
:10074000FFF76BBFFFF75ABF30B5041E71F100040D
:1007500004DB4FF00044404264EB0101141E73F1CE
:10076000000405DB1C464FF00043524263EB0403D8
:10077000994208BF904230BD064C074D06E0E06844
:1007800040F0010394E8070098471034AC42F6D3D8
:10079000FFF7FEFC584100087841000870B5C1F32E
:1007A0000A5201F000450024C1F3130140F2FF3367
:1007B00041F480119A4201DA002070BD40F23343C7
:1007C0009A42A2F2334203DC5242FFF726FF00E0D6
:1007D00090402C43F1D0404270BD000010B5002283
:1007E0004FF40061034800F001FC3C2000F0B8F831
:1007F00010BD00000004024010B50122910209481A
:1008000000F0F4FB00224FF48061064800F0EEFB9C
:100810003C2000F0A5F801229102024800F0E6FB1E
:1008200010BD00000004024070B52DED108BB0EE3D
:10083000408AF0EE608A00269FED3C0BB0EE40FA55
:10084000F0EE60FA002500249FED3A0B53EC102BDC
:1008500051EC180BFFF7A4FE06D251EC180B81F0F7
:10086000004141EC180B01263448007B18B1334895
:10087000007B032802D19FED329B14E02F48007BC0
:10088000012803D02D48007B042802D19FED2E9B28
:1008900009E02A48007B022803D02848007B05286D
:1008A00001D19FED2B9B2548007B38B12348007B6D
:1008B000012803D02148007B022802D14FF4805543
:1008C00001E04FF400652846FFF744FE41EC1E0BA3
:1008D00053EC182BFFF74CFD41EC1D0B9FED130B58
:1008E00053EC102BFFF7B6FD41EC1C0B53EC192B0E
:1008F000FFF7B0FD41EC1B0B9FED170B53EC102BDA
:10090000FFF78FFC41EC1A0BFFF731FE84B216B1F2
:10091000281B84B201E0281984B24FF6FF7000EA68
:1009200004142046BDEC108B70BD000000000000D8
:10093000000004400000000000000000180000203B
:100940000000000000000040000000000000104017
:1009500048E17A14AE471140000000000000E03F7B
:1009600000BF011EA0F10100FBD1704710B50122AC
:100970001103124800F03AFBFFF730FFFFF73CFF8E
:1009800003200F49087300F07DF80E4800F038F896
:10099000012000F013FA9FED0C0B094880ED000BCD
:1009A0004FF4802006498860886891ED001BB0EE06
:1009B000410AF0EE610A00F00BF810BD000402409D
:1009C0001800002005001000000000000000F03FAB
:1009D00070B52DED028BB0EE408AF0EE608A0446D1
:1009E0000025B0EE480AF0EE680AFFF71DFF054645
:1009F00044EA050000F004F8BDEC028B70BD000075
:100A000070B5044600224FF480511D4800F0EEFA04
:100A1000012251031A4800F0E9FA3C20FFF7A0FF39
:100A2000002525E001225103154800F0DFFA3C20A3
:100A3000FFF796FF04F4000028B10122D10310480B
:100A400000F0D4FA05E000224FF400410C4800F019
:100A5000CDFA3C20FFF784FF00224FF400510848F4
:100A600000F0C4FA3C20FFF77BFF6400681CC5B2AD
:100A7000182DD7DB01221103014800F0B7FA70BD31
:100A80000004024010B50349097B41F44020FFF700
:100A9000B7FF10BD1800002000BFFEE7017821B1AC
:100AA000012906D002290ED108E00021074A9160F1
:100AB00009E04FF40031054A916004E04FF48021D1
:100AC000024A916000BF00BF70470000180000207C
:100AD00010B52DED028B04467A4890F8580020B1ED
:100AE000012831D002282ED18AE0217809066278C7
:100AF00001EB0241A27801EB0221E2788818FFF7AE
:100B000018FD41EC180B9FED700B53EC102BFFF709
:100B1000A1FC6C4AC2E9100121790906627901EB56
:100B20000241A27901EB0221E2798818FFF701FD69
:100B300041EC180B9FED640B53EC102BFFF78AFC74
:100B4000604AC2E91201B8E021780906627801EB37
:100B50000241A27801EB0221E2788818FFF7E9FC54
:100B600041EC180B9FED580B53EC102BFFF772FC68
:100B7000544A03C221790906627901EB0241A27944
:100B800001EB0221E2798818FFF7D3FC41EC180B46
:100B90009FED4D0B53EC102BFFF75CFC494AC2E96B
:100BA0000201217A0906627A01EB0241A27A01EB85
:100BB0000221E27A8818FFF7BCFC41EC180B9FED8C
:100BC000420B53EC102BFFF745FC3E4AC2E90401EF
:100BD000217B0906627B01EB0241A27B01EB022132
:100BE000E27B8818FFF7A5FC41EC180B9FED360B54
:100BF00053EC102BFFF72EFC324AC2E906015CE0F1
:100C000021780906627801EB0241A27801EB02210A
:100C1000E2788818FFF78DFC41EC180B9FED2A0B4A
:100C200053EC102BFFF716FC264AC2E90801217984
:100C30000906627901EB0241A27901EB0221E27916
:100C40008818FFF776FC41EC180B9FED1F0B53EC57
:100C5000102BFFF7FFFB1B4AC2E90A01217A0906A4
:100C6000627A01EB0241A27A01EB0221E27A881852
:100C7000FFF75FFC41EC180B9FED130B53EC102BAF
:100C8000FFF7E8FB0F4AC2E90C01217B0906627BF2
:100C900001EB0241A27B01EB0221E27B8818FFF706
:100CA00048FC41EC180B9FED080B53EC102BFFF7A1
:100CB000D1FB044AC2E90E0100BF00BFBDEC028BAC
:100CC00010BD00001001002000000000000059408D
:100CD00010B504462A48007830B92078AA2803D1F4
:100CE0000120274908704AE025480078012806D1EC
:100CF0002078AA2803D10220214908703FE020482B
:100D00000078022803D103201D49087037E01C48F1
:100D10000078032808D1042019490870204601F002
:100D20000BFC184908702AE015480078042809D1FE
:100D30000520134908700020134908702046FFF76A
:100D4000ADFE1CE00E480078052815D121780E482C
:100D500002780078401C0C4B18700C4881541846DF
:100D6000007808490978884209D1002004490870B0
:100D70000648FFF7ADFE02E000200149087010BDF3
:100D8000280000202A000020290000200001002067
:100D90007047014691F83500022803D0802048654D
:100DA00001207047052081F835000868006820F0B0
:100DB00001000A6810600020F3E7000070B50446E7
:100DC00000F01AF906462546681C10B10448007860
:100DD000054400BF00F010F9801BA842FAD370BD93
:100DE0000C000020F8B502460B4600250024002028
:100DF0000021DCE0012606FA01F51E6806EA05047A
:100E0000AC4273D15E68022E02D05E68122E13D1FE
:100E1000CF0802F1200656F827004E07F70E0F26DE
:100E2000BE40B0434F07FF0E1E69BE403043CF089F
:100E300002F1200646F8270010684F000326BE4046
:100E4000B0431E7906F003064F00BE4030431060E9
:100E50005E68012E08D05E68022E05D05E68112EF5
:100E600002D05E68122E13D190684F000326BE4058
:100E7000B0434F00DE68BE403043906050680126AA
:100E80008E40B0431E79C6F300168E40304350604A
:100E9000D0684F000326BE40B0434F009E68BE405E
:100EA0003043D0605E6806F08056B6F1805F7DD139
:100EB00000BF00260096404E366846F480463E4FFE
:100EC0003E603E46366806F48046009600BF00BF8E
:100ED0003A4E8F0856F827008E07370F0F26BE4070
:100EE000B043374EB24202D1002624E05EE0354ED8
:100EF000B24201D101261EE0334EB24201D1022698
:100F000019E0324EB24201D1032614E0304EB24213
:100F100001D104260FE02F4EB24201D105260AE08E
:100F20002D4EB24201D1062605E02C4EB24201D12F
:100F3000072600E008268F073F0FBE4030431F4EB4
:100F40008F0846F82700264E3068A0435E6806F4F6
:100F50008036B6F5803F00D12043214E3060361DEB
:100F60003068A0435E6806F40036B6F5003F00D155
:100F700020431B4E361D3060361D3068A0435E682E
:100F800006F48016B6F5801F00D12043144E0836B3
:100F90003060361D3068A0435E6806F40016B6F572
:100FA000001F00D120430E4E0C363060491C102922
:100FB000FFF420AFF8BD000044380240083801407B
:100FC000000002400004024000080240000C024001
:100FD000001002400014024000180240001C0240B1
:100FE000003C014042694A40426170470AB1816158
:100FF00001E00B04836170470148006870470000FE
:1010000004000020034800680349097808440149A6
:1010100008607047040000200C00002010B50D4847
:10102000006840F400700B4908600846006840F40E
:10103000806008600846006840F480700860032003
:1010400000F0A6F8002000F007F800F02BF80020D0
:1010500010BD0000003C024070B504460E48007808
:101060004FF47A71B1FBF0F00C490968B1FBF0F56F
:10107000284600F018FC08B1012070BD102C07D2E2
:1010800000222146501E00F045F80548046001E0AA
:101090000120F2E70020F0E70C0000200000002013
:1010A0000800002010B5032000F072F8002211465D
:1010B0006FF00B0000F02EF8002211466FF00A00CE
:1010C00000F028F8002211466FF0090000F022F825
:1010D00000221146501F00F01DF800221146101F7B
:1010E00000F018F800221146901E00F013F80022BC
:1010F0001146501E00F00EF810BD00BF00F01F0298
:10110000012191404209920002F1E022C2F800114F
:1011100000BF70472DE9F05F80460D461646002758
:1011200001F038F8074639462A46334601F00700F1
:10113000C0F1070ABAF1040F02D94FF0040A01E026
:10114000C0F1070AD14600F1040ABAF1070F02D232
:101150004FF0000A01E0A0F1030AD4464FF0010A63
:101160000AFA09FAAAF1010A0AEA020A0AFA0CFAC8
:101170004FF0010B0BFA0CFBABF1010B0BEA030B6D
:101180004AEA0B042146404601F00CF8BDE8F09F06
:1011900000BF00F00702064B19684FF6FF03194025
:1011A000044B0B4343EA0221014B196000BF704717
:1011B0000CED00E00000FA0570B504460D460CB9D0
:1011C000012070BD5848006800F00F00A84209D205
:1011D00055490D700846006800F00F00A84201D084
:1011E0000120EEE7207800F0020002281DD12078CF
:1011F00000F00400042805D14C48006840F4E05099
:101200004A490860207800F00800082805D14748BE
:10121000006840F46040454908604448006820F098
:10122000F000A168084341490860207800F00100FF
:10123000A8B36068012807D13C4808380068C0F3AB
:101240004040B8B90120BCE76068022802D060685D
:10125000032807D1354808380068C0F3406048B912
:101260000120AEE7314808380068C0F3400008B9F3
:101270000120A6E72D48006820F0030061680843BC
:101280002A490860FFF7B8FE064609E0FFF7B4FEFA
:10129000801B41F28831884202D9032091E707E0A0
:1012A0002248006800F00C006168B0EB810FEDD1BE
:1012B0001D48006800F00F00A84209D91A490D70B6
:1012C0000846006800F00F00A84201D0012078E72E
:1012D000207800F00400042807D11448006820F4A6
:1012E000E050E168084311490860207800F00800E8
:1012F000082808D10D48006820F46040216940EAC0
:10130000C1000A49086000F03DF808490968C1F3C6
:101310000311074A515CC840064908600020FFF7E6
:101320009BFE00204DE70000003C024008380240D0
:101330001C400008000000200148006870470000C1
:101340000000002000B5FFF7F7FF04490968C1F36A
:101350008221034A515CC84000BD000008380240A9
:101360002C40000800B5FFF7E7FF04490968C1F306
:101370004231034A515CC84000BD000008380240B9
:101380002C4000082DE9F047002400250026A14646
:101390002548006800F00C0020B1042805D008287A
:1013A0003AD105E0DFF8849039E0DFF8849036E048
:1013B0001D48001F006800F03F041B48001F006824
:1013C00000F4800078B11A481749091F0968C1F371
:1013D0008811A0FB01700146224600233846FEF723
:1013E000EFFE05460EE011480F49091F0968C1F3D9
:1013F0008811A0FB01700146224600233846FEF703
:10140000DFFE05460848001F0068C0F30140401C8D
:101410004600B5FBF6F902E0DFF8109000BF00BF10
:101420004846BDE8F0870000083802400024F40078
:1014300040787D01F8B504460CB90120F8BD20784C
:1014400000F00100002874D0F948006800F00C009A
:1014500004280DD0F648006800F00C00082813D1CD
:10146000F348001F006800F48000B0F5800F0BD136
:10147000EF4808380068C0F34040002859D0606841
:10148000002856D10120D9E700BF6068B0F5803F41
:1014900008D1E7480838006840F48030E44908394A
:1014A00008601EE06068B0F5A02F0DD1E048083854
:1014B000006840F48020DE4908390860084600686A
:1014C00040F4803008600CE0D9480838006820F407
:1014D0008030D749083908600846006820F4802029
:1014E000086000BF606890B1FFF786FD054606E022
:1014F000FFF782FD401B642801D903209EE7CC48FA
:1015000008380068C0F340400028F1D011E0FFF730
:1015100073FD054606E0FFF76FFD401B642801D907
:1015200003208BE7C24808380068C0F34040002819
:10153000F1D1207800F0020002285FD1BC48006899
:1015400000F00C0058B1BA48006800F00C00082800
:101550001CD1B748001F006800F48000B0B9B4483F
:1015600008380068C0F3400020B1E068012801D0CD
:10157000012063E7AE480838006820F0F8002169D0
:1015800040EAC100AA490839086037E0E06800B3C2
:101590000120A8490860FFF72FFD054606E0FFF788
:1015A0002BFD401B022801D9032047E7A04808383B
:1015B0000068C0F340000028F1D09D48083800685A
:1015C00020F0F800216940EAC10099490839086013
:1015D00014E0002097490860FFF70EFD054606E07D
:1015E000FFF70AFD401B022801D9032026E7904897
:1015F00008380068C0F340000028F1D1207800F0DE
:10160000080008282CD16069A8B101208A49086027
:10161000FFF7F2FC054606E0FFF7EEFC401B022850
:1016200001D903200AE782486C300068C0F340000B
:101630000028F1D014E000207F490860FFF7DCFCAF
:10164000054606E0FFF7D8FC401B022801D903201D
:10165000F4E677486C300068C0F340000028F1D110
:10166000207800F00400042870D10026704838303B
:10167000006800F0805090B900BF002000906C48D6
:101680003830006840F080506949383108600846B9
:10169000006800F08050009000BF00BF012667483E
:1016A000006800F48070B0B96448006840F480704D
:1016B00062490860FFF7A0FC054606E0FFF79CFCC6
:1016C000401B022801D90320B8E65C48006800F4FA
:1016D00080700028F2D000BFA068012808D15448CB
:1016E0006830006840F001005149683108601DE031
:1016F000A06805280DD14E486830006840F004000D
:101700004B49683108600846006840F001000860F5
:101710000CE047486830006820F001004449683117
:1017200008600846006820F00400086000BFA06858
:10173000A8B1FFF761FC054609E0FFF75DFC401B1F
:1017400041F28831884202D9032077E626E0384802
:1017500068300068C0F340000028EED013E0FFF7C7
:101760004BFC054608E0FFF747FC401B41F288317F
:10177000884201D9032061E62D4868300068C0F333
:1017800040000028EFD1012E07D1294838300068E9
:1017900020F0805026493831086000BFA069B8B3F6
:1017A0002348006800F00C0008285ED0A0690228D9
:1017B00046D100201F490866FFF71EFC054606E0DB
:1017C000FFF71AFC401B022801D9032036E618480F
:1017D00008380068C0F340600028F1D1D4E907015F
:1017E0000843616A40EA81110122A06AC2EB5000FD
:1017F00041EA00412C20005D41EA00600C49091FCC
:10180000086001200B490866FFF7F6FB054607E074
:101810002DE0FFF7F1FB401B022801D903200DE664
:10182000034808380068C0F340600028F1D01EE08B
:101830000838024000004742800E474200700040D6
:1018400000200C490866FFF7D7FB054606E0FFF7C6
:10185000D3FB401B022801D90320EFE506480068AE
:10186000C0F340600028F2D101E00120E6E500204D
:10187000E4E500000000474200380240042808D197
:101880004FF0E021096941F004014FF0E0221161BD
:1018900007E04FF0E021096921F004014FF0E02258
:1018A00011617047704770B504462546681EB0F157
:1018B000807F01D301200FE0681E4FF0E0214861D6
:1018C0000F214FF0FF3000F06DFC00204FF0E021C1
:1018D000886107200861002070BD10B5FFF7E2FFA6
:1018E00010BD70477047024600BF92F838000128CB
:1018F00001D102207047012082F8380000BF022089
:1019000082F839001068406820F070001368586051
:10191000106840680B681843136858601068806846
:1019200020F0800013689860106880684B68184346
:1019300013689860012082F8390000BF002082F807
:10194000380000BF00BFD5E710B504460CB9012030
:1019500010BD94F8390028B9002084F838002046DA
:1019600000F00CF8022084F83900211D206800F0F6
:101970000DFD012084F839000020E9E708B50A4A86
:10198000016891420FD100BF002100910749096809
:1019900041F01001054A11601146096801F010017B
:1019A000009100BF00BF08BD001000404038024059
:1019B00001460868C06840F001000A68D060086805
:1019C000006840F001000A6810600020704770470E
:1019D00010B5044620680069C0F34000D8B1206803
:1019E000C068C0F34000B0B16FF002002168086128
:1019F000012020762068806900F0030018B120469D
:101A0000FFF7E5FF05E0204600F0ADF8204600F0C6
:101A1000ABF80020207620680069C0F38000D8B1C0
:101A20002068C068C0F38000B0B16FF00400216886
:101A30000861022020762068806900F4407018B1A7
:101A40002046FFF7C4FF05E0204600F08CF8204652
:101A500000F08AF80020207620680069C0F3C000FA
:101A6000D8B12068C068C0F3C000B0B16FF0080002
:101A700021680861042020762068C06900F0030016
:101A800018B12046FFF7A3FF05E0204600F06BF8F1
:101A9000204600F069F80020207620680069C0F335
:101AA0000010D8B12068C068C0F30010B0B16FF06A
:101AB000100021680861082020762068C06900F4C1
:101AC000407018B12046FFF782FF05E0204600F085
:101AD0004AF8204600F048F8002020762068006987
:101AE00000F0010058B12068C06800F0010030B17A
:101AF0006FF0010021680861204600F036F8206888
:101B00000069C0F3C01058B12068C068C0F3C010AD
:101B100030B16FF08000216808612046FFF7E1FED8
:101B200020680069C0F3801058B12068C068C0F315
:101B3000801030B16FF0400021680861204600F04D
:101B400015F820680069C0F3401058B12068C068DB
:101B5000C0F3401030B16FF02000216808612046CA
:101B6000FFF7C0FE10BD7047704770477047704761
:101B70002DE9F0470446206805682068C66820689B
:101B800047694FF00008C14605F00F08B8F1000F93
:101B90000AD105F0200038B106F0200020B120461F
:101BA00000F012FDBDE8F087B8F1000F6DD007F02E
:101BB000010018B906F49070002866D005F0010005
:101BC00030B106F4807018B1E06B40F00100E063C2
:101BD00005F0040030B107F0010018B1E06B40F0EF
:101BE0000200E06305F0020030B107F0010018B117
:101BF000E06B40F00400E06305F0080030B107F04E
:101C0000010018B1E06B40F00800E063E06B68B3DE
:101C100005F0200028B106F0200010B1204600F0A9
:101C2000D3FC20684069C0F38019E06B00F0080025
:101C300010B9B9F1000F22D0204600F0A5FC2068B1
:101C4000406900F04000B0B12068406920F04000D9
:101C500021684861606B50B11748616B0865606B23
:101C6000FFF797F810B1606B016D88470CE02046D4
:101C7000FFF77DFF08E02046FFF779FF04E02046EC
:101C8000FFF775FF0020E0638CE705F0800030B1BE
:101C900006F0800018B1204600F098FE82E705F0BB
:101CA000400030B106F0400018B1204600F07CFC46
:101CB00078E700BF76E700007525000810B50446F8
:101CC0000CB9012010BDA06900B100E000BF94F87C
:101CD000390028B9002084F83800204600F028F8A0
:101CE000242084F839002068C06820F4005021685E
:101CF000C860204600F0B6FC2068006920F49040DF
:101D0000216808612068406920F02A002168486144
:101D10002068C06840F400502168C8600020E0637B
:101D2000202084F8390084F83A000020CAE7000037
:101D300010B586B004462549206888421FD100BFEF
:101D4000002000902248006840F010002049086000
:101D50000846006800F01000009000BF00BF4FF47C
:101D6000C0600190022002900120039003200490A3
:101D70000720059001A91748FFF734F823E016491A
:101D8000206888421FD100BF002000901048001F2B
:101D9000006840F400300E49091F086008460068DA
:101DA00000F40030009000BF00BF0C200190022022
:101DB000029001200390032004900720059001A9C0
:101DC0000448FFF70FF806B010BD000000100140F6
:101DD00044380240000002400044004010B5034671
:101DE00093F83A00202829D101B10AB9012010BD89
:101DF00000BF93F83800012801D10220F7E7012045
:101E000083F8380000BF99629A85DA850020D8638C
:101E1000222083F83A0000BF002083F8380000BF7A
:101E20001868406940F001001C6860611868C0686B
:101E300040F490701C68E0600020D8E70220D6E7EC
:101E400070472DE9F84304460D4616461F464FF0ED
:101E5000000994F8390020285CD105B116B9012099
:101E6000BDE8F88300BF94F83800012801D10220B2
:101E7000F6E7012084F8380000BF0020E06321204D
:101E800084F83900FFF7B8F88146A684E6842BE091
:101E9000E08C401EE084A068B0F5805F16D14B4610
:101EA000002280212046009700F0C4FD08B10320E5
:101EB000D6E7A846B8F80000C0F3080021684860DB
:101EC000206908B9AD1C0FE06D1C0DE04B460022E7
:101ED00080212046009700F0ADFD08B10320BFE748
:101EE00015F8010B21684860E08C0028D0D14B46E2
:101EF000002240212046009700F09CFD08B10320FD
:101F0000AEE7202084F8390000BF002084F83800B4
:101F100000BFA5E70220A3E7704700BFFEE700006F
:101F200000B587B000BF002001904C48006840F029
:101F300080004A4908600846006800F0800001906F
:101F400000BF00BF00BF002001900846006840F0BD
:101F5000040008600846006800F00400019000BF1B
:101F600000BF00BF002001900846006840F001005B
:101F700008600846006800F00100019000BF00BF43
:101F800000BF002001900846006840F00200086091
:101F90000846006800F00200019000BF00BF012267
:101FA00003212F48FFF722F8012203212D48FFF7D4
:101FB0001DF800224BF6C0412A48FFF717F803200E
:101FC00002900120039000200490059002A924486B
:101FD000FEF708FF042002900020039001200490E7
:101FE00002A91F48FEF7FEFE032002900120039085
:101FF00000200490059002A91A48FEF7F3FE4FF462
:102000003C400290012003900020049003200590A2
:1020100002A91448FEF7E6FE4FF48040029000202B
:102020000390049002A90F48FEF7DCFE20200290E6
:10203000002003900120049002A90A48FEF7D2FE76
:10204000C0200290112003900020049003200590EE
:1020500002A90448FEF7C6FE07B000BD30380240B2
:10206000000802400004024010B50022114636204C
:10207000FFF750F83620FFF740F800220121252015
:10208000FFF748F82520FFF738F800220221262024
:10209000FFF740F82620FFF730F810BD1CB50F48B9
:1020A0000F49086040F24730486000210C488160C9
:1020B0006421C160FFF748FC18B13C2109A000F081
:1020C00059FE00200090019069460548FFF70BFC7F
:1020D00018B1432103A000F04DFE1CBD00100040CC
:1020E000440000202E2E2F5372632F74696D2E63CF
:1020F0000000000010B50C480C4908604FF4E130B6
:102100004860002109488160C16001610C21416182
:1021100000218161C161FFF7D1FD18B1432104A005
:1021200000F028FE10BD00000010014080000020DB
:102130002E2E2F5372632F75736172742E630000FD
:1021400010B50C480C4908604FF4E130486000219C
:1021500009488160C16001610C21416100218161F8
:10216000C161FFF7ABFD18B1562104A000F002FEDB
:1021700010BD000000440040C00000202E2E2F5350
:1021800072632F75736172742E63000000BFFEE7E7
:102190007047000002480068C0F30220704700004A
:1021A0000CED00E010B5002807DA0A07140E054A06
:1021B00000F00F031B1FD45403E00A07130E024A5A
:1021C000135410BD18ED00E000E400E070477047C4
:1021D00010B5FEF717FFFFF780FB10BD10B592B0EA
:1021E00000BF002000902F48006840F080502D492B
:1021F00008600846006800F08050009000BF00BFF3
:1022000000BF002000902848006840F48040264924
:1022100008600846006800F48040009000BF00BFDE
:10222000012006900004079002200C9041050D91BA
:1022300019210E914FF4A8710F91022110910421E0
:10224000119106A8FFF7F6F818B1A22117A000F027
:1022500091FD0F20019002200290002003904FF486
:10226000A05004904FF480500590052101A8FEF77E
:10227000A3FF18B1B0210DA000F07CFDFFF75CF8C2
:102280004FF47A71B0FBF1F42046FFF70CFB042009
:10229000FFF7F4FA00221146501EFEF73BFF12B082
:1022A00010BD000040380240007000402E2E2F5319
:1022B00072632F6D61696E2E630000001448006820
:1022C00040F47000124908601248006840F00100B4
:1022D0001049086000200F49083108600D48006867
:1022E0000D4908400B4908600C48091D0860081F8B
:1022F000006820F48020091F0860002005490C3187
:1023000008604FF0006002498039086070470000A3
:1023100088ED00E000380240FFFFF6FE1030002498
:1023200010B514480068401C12490860084600684F
:102330000521B0FBF1F201FB120010B901200E499A
:1023400008700C4800684FF47A71B0FBF1F201FBA1
:10235000120050B901200949087001210848FEF710
:1023600041FE01210748FEF73DFE0748FFF730FB1D
:1023700010BD0000100000203800002039000020AF
:1023800000040240000802404400002000220268CD
:102390002C4B98420ED0B0F1804F0BD02A4B984274
:1023A00008D02A4B984205D0294B984202D0294B9D
:1023B000984201D1012300E000231BB122F07002FA
:1023C0004B681A431F4B984220D0B0F1804F1DD06C
:1023D0001D4B98421AD01D4B984217D01C4B984267
:1023E00014D01C4B984211D01B4B98420ED01B4B63
:1023F00098420BD01A4B984208D01A4B984205D0FD
:10240000194B984202D0194B984201D1012300E0A8
:1024100000231BB122F44072CB681A4302608B6820
:10242000C3620B688362074B984202D0094B984203
:1024300001D1012300E000230BB10B6903630123E9
:102440004361704700000140000400400008004064
:10245000000C0040000401400040014000440140E5
:102460000048014000180040001C004000200040CF
:1024700010B50446207818B10020207000F040FB11
:1024800010BD000010B52DED0A8B00F025FB17499B
:10249000C868FEF75FF841EC1A0B14494868FEF76C
:1024A00059F841EC1C0B53EC1C2B9FED110B51EC1C
:1024B000100BFDF7CFFF41EC1B0B53EC1A2BFDF774
:1024C000C9FF41EC190B9FED0C0B53EC102BFDF7E2
:1024D000C1FF41EC180B53EC182B09A000F04CFC89
:1024E0000EA000F049FCBDEC0A8B10BD440000209A
:1024F00000000000F40694410000000000408F40FE
:102500005468652074696D65626173652069732024
:10251000252E3166206D732E200D0A002D2D2D2DB8
:102520002D2D2D2D2D2D2D2D2D2D2D2D2D2D2D2DDB
:102530002D2D2D2D200D0A0001460A7822B1012AE9
:1025400008D0022A12D10BE00022094B83F8582050
:102550000C200BE00122064B83F85820102005E0E8
:102560000222034B83F85820102000BF00BF7047A1
:102570001001002070B50546AC6B0020E085E084BA
:102580002046FFF7F4FA70BD0168C96821F4907124
:102590000268D1600168496921F001010268516156
:1025A000202180F83A10704710B504462068C068B2
:1025B00020F040002168C860202084F839002046BF
:1025C000FFF7AAFC002010BD70B5044694F83A004D
:1025D000222844D1A068B0F5805F13D1A56A206994
:1025E00040B920684068C0F308002880A06A801CB9
:1025F000A06219E020684068C0B22880A06A401C30
:10260000A06211E0206938B920684068C1B2A26AAE
:10261000501CA062117007E02068406800F07F0144
:10262000A26A501CA0621170E08D401E80B2E0854D
:1026300098B92068C06820F490702168C86020684C
:10264000406920F0010021684861202084F83A00A8
:102650002046FFF7F5FB002070BD0020FCE70220BC
:10266000FAE700002DE9F0410446002520680569DD
:1026700025F44055E0680543206805612068C56879
:1026800049F20C6085432169A068084361690843E9
:10269000E169084305432068C5602068456925F461
:1026A0004075A069054320684561E069B0F5004FB9
:1026B0007ED1C4492068884203D0C349206888423B
:1026C0005DD1FEF74FFE00EBC00101EB0010616829
:1026D0004900B0FBF1F06421B0FBF1F00601FEF718
:1026E00041FE00EBC00101EB001061684900B0FB46
:1026F000F1F7FEF737FE00EBC00101EB0010616857
:102700004900B0FBF1F06421B0FBF1F000EBC00137
:1027100001EB0010A7EB8000322101EBC000642127
:10272000B0FBF1F000F0F80006EB4006FEF71AFEF1
:1027300000EBC00101EB001061684900B0FBF1F74C
:10274000FEF710FE00EBC00101EB001061684900CC
:10275000B0FBF1F06421B0FBF1F000EBC00101EB44
:102760000010A7EB8000322101EBC0006421B0FB18
:10277000F1F000F0070030442168886020E1FEF7A6
:10278000E1FD00EBC00101EB001061684900B0FB06
:10279000F1F06421B0FBF1F00601FEF7D3FD00EB90
:1027A000C00101EB001061684900B0FBF1F700E0E7
:1027B00045E0FEF7C7FD00EBC00101EB00106168CA
:1027C0004900B0FBF1F06421B0FBF1F000EBC00177
:1027D00001EB0010A7EB8000322101EBC000642167
:1027E000B0FBF1F000F0F80006EB4006FEF7AAFDA2
:1027F00000EBC00101EB001061684900B0FBF1F78C
:10280000FEF7A0FD00EBC00101EB0010616849007C
:10281000B0FBF1F06421B0FBF1F000EBC00101EB83
:102820000010A7EB8000322101EBC0006421B0FB57
:10283000F1F000F00700304421688860C0E0614991
:102840002068884203D06049206888425CD1FEF746
:1028500089FD00EBC00101EB001061688900B0FB4D
:10286000F1F6FEF77FFD00EBC00101EB001061689F
:102870008900B0FBF1F06421B0FBF1F000EBC00186
:1028800001EB0010A6EB8000322101EB0010642167
:10289000B0FBF1F000F0F006FEF764FD00EBC001C4
:1028A00001EB001061688900B0FBF1F06421B0FB1E
:1028B000F1F006EB0016FEF755FD00EBC00101EB51
:1028C000001061688900B0FBF1F7FEF74BFD00EBEB
:1028D000C00101EB001061688900B0FBF1F06421D8
:1028E000B0FBF1F000EBC00101EB0010A7EB8000A2
:1028F000322101EB00106421B0FBF1F000F00F0079
:102900003044216888605BE0FEF71CFD00EBC001ED
:1029100001EB001061688900B0FBF1F6FEF712FDD3
:1029200000EBC00101EB001061688900B0FBF1F021
:102930006421B0FBF1F000EBC00101EB0010A6EB4D
:102940008000322101EB00106421B0FBF1F000F0B7
:10295000F006FEF7F7FC00EBC00101EB0010616828
:102960008900B0FBF1F06421B0FBF1F006EB00163A
:10297000FEF7E8FC00EBC00101EB00106168890084
:10298000B0FBF1F7FEF7DEFC00EBC00101EB00103D
:1029900061688900B0FBF1F06421B0FBF1F000EB5D
:1029A000C00101EB0010A7EB8000322101EB001009
:1029B0006421B0FBF1F000F00F0030442168886022
:1029C000BDE8F0810010014000140140014691F87B
:1029D000390021282CD18868B0F5805F0FD10A6AB0
:1029E0001088C0F308000B685860086918B9086AB5
:1029F000801C086209E0086A401C086205E00B6A56
:102A0000581C086218780B685860C88C401E80B249
:102A1000C88458B90868C06820F080000B68D86086
:102A20000868C06840F040000B68D860002070471C
:102A30000220FCE72DE9F04104460D461746984672
:102A4000069E21E0701CF8B12EB1FEF7D5FAA0EB7E
:102A50000800B04218D92068C06820F4D0702168FE
:102A6000C8602068406920F001002168486120208A
:102A700084F8390084F83A0000BF002084F8380058
:102A800000BF0320BDE8F081206800682840A8420C
:102A900001D1012000E00020B842D3D00020F1E7AE
:102AA00008B5002000900648006800F0200030B112
:102AB00003484068C0B200906846FEF709F908BDB7
:102AC0000010014010B50248FFF752F810BD000099
:102AD000C000002000BFFEE70020064981F8580032
:102AE0009FED050B084680ED120B9FED030B80ED6B
:102AF000100B7047100100200000000000000000D3
:102B000010B52DED0E8B9FED920BB0EE409AF0EECE
:102B1000609A914890F85800012860D18E4890ED55
:102B2000021BB0EE410AF0EE610A8C4890ED001BEA
:102B300053EC112B51EC100BFDF71AFC41EC1E0B62
:102B4000854890ED041BB0EE410AF0EE610A53ECAB
:102B5000102B51EC1E0BFDF764FB41EC1D0BB0EE8E
:102B60004D0AF0EE6D0A00F02FF9B0EE40CAF0EE1B
:102B700060CA794890ED001BB0EE410AF0EE610AA0
:102B800053EC102B51EC1C0BFDF7F2FB41EC1B0B33
:102B9000714890ED061BB0EE410AF0EE610A53EC6D
:102BA000102B51EC1B0BFDF73CFB41EC190B6C4956
:102BB000886881ED009BB0EE490AF0EE690AFDF7E6
:102BC00007FF9FED680B53EC102B644890ED000B52
:102BD00051EC100BFDF725FB604A03C2B4E05E48E0
:102BE00090F85800C0BB5C4890ED101BB0EE410A55
:102BF000F0EE610A594890ED001B53EC112B51EC9B
:102C0000100BFDF7B5FB41EC1B0B534890ED121B6D
:102C1000B0EE410AF0EE610A53EC102B51EC1B0BA5
:102C2000FDF7FFFA41EC190B4D49886881ED009BD7
:102C3000B0EE490AF0EE690AFDF7CAFE9FED490BB6
:102C400053EC102B454890ED000B51EC100BFDF7A9
:102C5000E8FA424A03C277E0FFE73F4890F858009D
:102C6000022871D13C4890ED0C1BB0EE410AF0EE09
:102C7000610A53EC102B9FED3D1B51EC110BFDF73E
:102C8000E9FB41EC180B344890ED0E1BB0EE410A05
:102C9000F0EE610A53EC182B51EC100BFDF768FBBA
:102CA00041EC1A0B53EC182B2C4890ED000B51EC17
:102CB000100BFDF7CFFB41EC1E0BFDF758FC044653
:102CC000FDF748FC41EC1D0B53EC182BFDF750FBB6
:102CD00041EC1C0B214890ED000B53EC102B51ECF8
:102CE0001C0BFDF742FB41EC1B0B53EC1A2BFDF7C1
:102CF00057FC0ED21A498868174991ED081B1849EC
:102D000081ED001BB0EE410AF0EE610AFDF760FEB6
:102D10000DE013498868104991ED0A1B104981EDB7
:102D2000001BB0EE410AF0EE610AFDF751FE9FED87
:102D30000D0B53EC102B094890ED000B51EC100BD0
:102D4000FDF76FFA054A03C2BDEC0E8B10BD000003
:102D500000000000000000001001002030000020F2
:102D6000180000207B14AE47E17A743F0000000099
:102D70000000F03F00BFFEE70FB4054B10B503A9FC
:102D8000044A029800F070FD10BC5DF814FB0000CE
:102D9000B13F00083C00002003B4019841000098B6
:102DA00050EAC12018BF04204A0D18BF40F00100AE
:102DB00040F2FF72B2EB515F08BF40F00200012801
:102DC00008BF052002B0704710B52F499FED2C1B9E
:102DD0002DED020B84B0059820F000408842DCBF46
:102DE00000209DED040B32DD2849884209D104986A
:102DF00040B94FF0010000F06FFC00F03DFC06B060
:102E000010BD05DB9DED040B00F02AFC06B010BDE3
:102E100068469DED040B00F03BF810F0030011D064
:102E2000012818D09DED021B9DED000B02281AD041
:102E300000F04AFA51EC100B81F0004106B041EC71
:102E4000100B10BD9DED021B9DED000B012000F04D
:102E50006FFB06B010BD9DED021B9DED000B00F059
:102E600033FA06B010BD012000F062FB51EC100BEC
:102E700081F0004106B041EC100B10BD00000000D5
:102E80000000000000000000FB21E93F0000F07F8F
:102E90002DE9F14F04462DED020B2DED088B8AB084
:102EA0009FEDE70B80ED020B139EE74826F00045EF
:102EB00085420ADC9DED120B002084ED000B0AB068
:102EC000BDEC088B03B0BDE8F08FE0489FEDE0ABB0
:102ED0009FEDE1BBA84247DDE14F9FEDE39B9FEDF6
:102EE000E48B9DED120B53EC1A2B51EC100B002EC2
:102EF0001CDDFDF737FA41EC100BBD4208D053EC56
:102F00001B2B51EC100BFDF72DFAC4E900010BE06F
:102F100053EC192B51EC100BFDF724FA53EC182B42
:102F2000FDF720FAC4E900010120C8E7FDF779F9AF
:102F300041EC100BBD4208D053EC1B2B51EC100B95
:102F4000FDF76FF9C4E900010BE053EC192B51ECCC
:102F5000100BFDF766F953EC182BFDF762F9C4E985
:102F600000014FF0FF30AAE7C348A84279DB9DED8E
:102F7000120B51EC100B01F00EF841EC180B9FED09
:102F8000C00B53EC102BFDF7F3F99FEDBF1B53EC77
:102F9000112BFDF746F9FDF701FC0746FDF7C9FACD
:102FA00041EC190B53EC1A2BFDF7E2F953EC182BFB
:102FB000FDF7DBF941EC180B53EC1B2B51EC190B13
:102FC000FDF7D6F9DFF8C8A241EC100B4FEA15580F
:102FD0000125FA4453EC102B51EC180BFDF7C2F904
:102FE000032DC4E900013DD0C1F30A5005EB4511A2
:102FF000A8EB00001139814234DA0AEB051BB0EE70
:1030000048AA9BED000BF0EE68AA53EC102B51EC94
:10301000190BFDF7ADF941EC1B0B51EC1A0B53ECFE
:103020001B2BFDF79FF941EC180B51EC1A0B53ECDD
:10303000182BFDF797F953EC1B2BFDF793F99BED3C
:10304000020B41EC1A0B53EC102B51EC190BFDF752
:103050008FF953EC1A2BFDF785F941EC100B6D1C21
:10306000B8E70EE0002EA8BF3846BFF628AF94EDB3
:10307000000B51EC100B81F00041C4E900017842D3
:103080001DE7C6F3130040F4801EC6F30A50A0F2F9
:10309000F530471100F01F05C5F12000DDF848B0FC
:1030A00008900020069007900520EC467949002DF5
:1030B00007EB0002794408BF51F8221009D051F8FB
:1030C000223001EB8201AB404A68089922FA01F1F3
:1030D0001943A1FB0E26A1FB0B131A449A4234BFDD
:1030E0000123002303EB06080CEB8003D3E901A6C0
:1030F0000E448E4234BF0121002192448A4411B112
:10310000924502D903E0924501D2012100E000215D
:10311000C3E901A641444CF82010011EA0F10100B2
:10312000C4DC029800F10050850F0298DDE90367C6
:103130008000DDF81480FDF7FCF941EC1A0B3046F5
:10314000FDF708FA9FED541B53EC112BFDF710F916
:1031500041EC1B0B3846FDF7FDF99FED511B53EC7D
:10316000112BFDF705F941EC180B4046FDF7F2F97C
:103170009FED4D1B53EC112BFDF7FAF841EC190BA9
:1031800051EC180B53EC192BFDF74BF853EC1B2BA0
:10319000FDF747F853EC1A2BFDF743F8CDE908018A
:1031A000002008909DED080B53EC1A2B51EC100BEE
:1031B000FDF7D8F853EC1B2BFDF7D4F853EC182B84
:1031C000FDF7D0F853EC192BFDF7CFF89FED381B26
:1031D00053EC112BFDF7CCF89FED370B41EC180B9E
:1031E00053EC102B9DED080B51EC100BFDF7C0F8C4
:1031F00053EC182BFDF715F89FED310B41EC180B34
:1032000053EC102B9DED080B51EC100BFDF7B0F8B3
:1032100053EC182BFDF705F841EC100B139810F048
:10322000004F06D06D4251EC100B81F0004141EC93
:10323000100B284684ED000B41E600000000000062
:103240000000000000000000FB21E93F7CD90240A3
:1032500000004054FB21F93F3163621A61B4D03D54
:10326000FB21F93F000000000000601A61B4D03D6E
:103270007370032E8A19A33BFB2139410000000023
:1032800083C8C96D305FE43F000000000000E03FEC
:1032900092100000E00F0000000000000000103E4F
:1032A000000000000000103C000000000000103A88
:1032B000182D4454FB21F93D3326A611460B113C31
:1032C00000000054FB21F93D10B52DED040B2DED50
:1032D000088B82B0B0EE419AF0EE619A0B9820F024
:1032E00000449FED4BABB4F1795F11DA9DED0A0B11
:1032F00051EC100BFDF752FA002801BFB0EE4A0A5C
:10330000F0EE6A0A02B0BDEC088B04BF04B010BD39
:103310009DED0A0B53EC102B51EC100BFDF728F828
:1033200041EC180B3C480621B0EE480AF0EE680A62
:10333000784400F081F853EC182B51EC100BFDF79A
:1033400017F89DED0A0B41EC1B0B53EC192B51ECBC
:10335000100BFDF70DF841EC190B53EC1B2B51EC46
:10336000180BFDF705F853EC192BFCF7FBFF9FED4D
:103370002C0B41EC190B53EC102B51EC180BFCF7F8
:10338000F7FF41EC100B2848844210DA53EC192B5C
:1033900051EC100BFCF7E6FF53EC1A2BFCF7E5FFA2
:1033A00041EC100B02B0BDEC088B04B010BD1F48FF
:1033B000A042BCBF9FED1E1B8DED001B06DBA4F5DC
:1033C00000100190002000909DED001B51EC100BAF
:1033D00053EC112BFCF7C6FF9DED000B41EC180BD5
:1033E00053EC102B51EC1A0BFCF7BCFF41EC1A0B01
:1033F00053EC192B51EC180BFCF7B4FF53EC1A2BC0
:10340000FCF7B3FF41EC100BCCE70000000000001C
:10341000000000000000F03F040D0000000000006C
:10342000000000000000E03F3333D33F0000E93FDD
:10343000000000000000D23F70B504462DED028B65
:103440004D1E00EBC500B0EE408AF0EE608A90EDB4
:10345000000B35F0060017D053EC182B51EC100B75
:10346000FCF786FF41EC100B6D1E04EBC50090EDE0
:10347000001B51EC100B53EC112BFCF7D2FE41EC6E
:10348000100B35F00600E7D1022D36D0042D1CD0EC
:10349000062D1CBFBDEC028B70BD53EC182B51ECFC
:1034A000100BFCF765FF94ED0A1B53EC112BFCF796
:1034B000B8FE53EC182BFCF75BFF94ED081B53ECA4
:1034C000112BFCF7AEFE41EC100B53EC182B51EC1A
:1034D000100BFCF74DFF94ED061B53EC112BFCF782
:1034E000A0FE53EC182BFCF743FF94ED040B53ECB8
:1034F000102BFCF796FE41EC100B53EC182B51EC03
:10350000100BFCF735FF94ED021B53EC112BFCF76D
:1035100088FE53EC182BFCF72BFF94ED001B53ECAB
:10352000112BFCF77EFEBDEC028B41EC100B70BD45
:1035300031B504462DED040B2DED0A8BB0EE41BAEA
:10354000F0EE61BA0B989DED0A0B20F00040B0F14F
:10355000795F0DDA51EC100BFFF71EFC042808BF51
:1035600000F09AF89DED0A0BBDEC0A8B05B030BD5A
:1035700053EC102B51EC100BFCF7FAFE41EC180B3E
:103580009DED0A0B53EC182B51EC100BFCF7F0FEE1
:1035900041EC190B2C48B0EE480AF0EE680A052100
:1035A0007844FFF749FF9FED2ACBB0EE40AAF0EE3A
:1035B00060AA9CB353EC1C2B51EC190BFCF7D8FE02
:1035C00041EC1C0B53EC1A2B51EC190BFCF7D0FE01
:1035D0009FED210B41EC190B53EC102B51EC1B0B05
:1035E000FCF7C6FE53EC192BFCF7BCFE53EC182B72
:1035F000FCF7BEFE53EC1B2BFCF7B4FE53EC1C2B6C
:10360000FCF7B0FE9DED0A1B53EC112BFCF7ADFE51
:10361000BDEC0A8B05B041EC100B30BDFFE753EC5D
:103620001A2B51EC180BFCF7A3FE53EC1C2BFCF7E8
:10363000F8FD53EC192BFCF79BFE9DED0A1B53EC98
:10364000112BFCF7EEFDE3E78C0B000000000000FF
:10365000495555555555C5BF000000000000E03FD5
:1036600010B553EC102B51EC100BFCF7DAFD41ECCC
:10367000100B10BD000000009FED050B10B553ECC2
:10368000102B51EC100BFCF7E5FE41EC100B10BDBC
:1036900000000000000000009FED050B10B553EC8A
:1036A000102B51EC100BFCF763FE41EC100B10BD1E
:1036B000000000000000001002E008C8121F08C14E
:1036C000002AFAD170477047002001E001C1121FA3
:1036D000002AFBD1704700000149086070470000D4
:1036E000400000202DE9FF5F82B00021DDE90430B9
:1036F000020DDDF840B0034318D044F61050A2F29A
:10370000FF3242431514119801281FD0A5EB0B007E
:10371000401C5FEA000A4FF000064E4FDFF8389178
:10372000B046504615D5CAF1000413E011980124A3
:103730004AA3012801D16FEA0B010298119AC0E94E
:103740000031C0E9024206B0BDE8F09FCBF10000B5
:10375000DFE704460021404A491842EB0450CDE916
:10376000001012E0E00707D032463B46404649468B
:10377000FCF7FEFD8046894632463B461046194618
:10378000FCF7F6FD06460F466410002CEAD1DDE991
:103790000401DDE90023BAF1000F06DAFCF7E8FDC9
:1037A00042464B46FCF7E4FD05E0FCF753FE42467B
:1037B0004B46FCF74FFE04460E460022284BFCF712
:1037C000C3FF03D84FF0FF30014607E00022254B2E
:1037D00020463146FCF725FDFCF79EFF102409E04A
:1037E000002C0ADB0A220023FCF7EAFC039B3032A0
:1037F0001A55641E50EA0102F2D1641C039AC4F106
:1038000011031444119A012A03D0012208430DD157
:103810000AE0084304D000204FF0110B119072E72A
:10382000A3EB0B056D1E0DE05B4504DD4FF00002C0
:1038300005F1010504E003DA4FF00002A5F10105EE
:10384000002AECD002981199C0E90231C0E9004584
:1038500079E70000000014400000F03F3000000055
:103860000000F0430000E03F2DE9FF4F95B09B467C
:103870008946064600250FE2252877D100242746F1
:10388000F84A0121059400E0044316F8013F203B6B
:1038900001FA03F01042F7D130782A2811D06FF0E6
:1038A0002F033078A0F13002092A16D8059A44F087
:1038B000020402EB820203EB42021044761C0590E4
:1038C000EFE759F8042B0592002A03DA504244F43A
:1038D0000054059044F00204761C30782E2816D14E
:1038E00016F8010F44F004042A280DD06FF02F02BF
:1038F0003078A0F13003092B09D807EB870302EBDE
:103900004303C718761CF3E759F8047B761C30781C
:103910006C280FD006DC4C2817D068280DD06A28F8
:1039200014D104E0742810D07A280FD10DE044F4AB
:1039300000140AE044F4801401E044F44014727866
:10394000824202D104F58014761C761C30786628F9
:103950000BD013DC582877D009DC002875D0452817
:10396000F6D04628F4D047281AD19DE118E0632804
:1039700035D0642879D0652812D195E1702873D0AC
:1039800008DC6728F1D069286FD06E280DD06F2829
:1039900006D1B5E073282CD0752875D0782874D05E
:1039A0005A46179990476D1C75E1C4F302500228DE
:1039B00009D003280DD0D9F8001004280DD00D60CF
:1039C00009F1040967E1D9F80010EA17C1E90052CA
:1039D000F6E7D9F800100D80F2E70D70F0E719F85E
:1039E000041B8DF8001000208DF80100EA4601202C
:1039F00003E059F804AB4FF0FF3061074FF00001CE
:103A000002D40DE008F101018846B9420FDA804581
:103A1000F8DB1AF808100029F4D108E008F10101D8
:103A200088468142FADB1AF808100029F6D1059879
:103A30005B46A0EB080721463846179A00F094FA37
:103A4000284400EB080507E04DE029E10DE01AF8F5
:103A5000010B5A4617999047B8F10108F7D25B4617
:103A600021463846179A13E142E00A220092C4F335
:103A700002524FF0000A022A08D059F804CB032A58
:103A80004FEAEC710AD00DE029E02AE009F10701C4
:103A900021F00702F2E802C1914609E00FFA8CFC1E
:103AA0004FEAEC71042A03D14FFA8CFC4FEAEC7117
:103AB000002907DA0A460021DCF1000C61EB020163
:103AC0002D2202E0220504D52B228DF804200122AC
:103AD00003E0E20701D02022F7E7904659E00A21EF
:103AE00002E010220DE010214FF0000A00910BE0DF
:103AF00010224FF0000A44F004040827009203E06B
:103B000008224FF0000A0092C4F30252022A05D0A4
:103B100059F804CB0021032A08D009E009F1070174
:103B200021F00702F2E802C1914605E01FFA8CFC81
:103B3000042A01D10CF0FF0C4FF00008220728D511
:103B4000702806D0009B83F0100353EA0A0305D0C7
:103B50000EE040228DF80420012208E05CEA010218
:103B600006D030228DF804208DF805000222904600
:103B7000009B83F0080353EA0A030AD15CEA0102BE
:103B800001D1620705D530228DF804204FF00108DD
:103B90007F1E582804D034A003900EA802900DE098
:103BA00036A0F9E753466046009AFCF709FB8446C5
:103BB0000398825C0298401E029002705CEA010049
:103BC000F0D1029806A9081A00F1200A600702D570
:103BD00024F4803400E00127574502DDA7EB0A00FA
:103BE00000E0002000EB0A01009005984144401AD3
:103BF0000590E00306D45B462146179A059800F02D
:103C0000B3F90544002706E001A85A46C05D17999C
:103C100090476D1C7F1C4745F6DBE0030CD55B46E7
:103C20002146179A059800F09FF9054404E03020DA
:103C30005A46179990476D1C0099481E009000291C
:103C4000F5DC08E0029802995A460078491C029176
:103C5000179990476D1CBAF10001AAF1010AF1DC35
:103C600065E1000009280100303132333435363740
:103C700038396162636465660000000030313233B8
:103C80003435363738394142434445460000000058
:103C900000F058F90544761C307800287FF4ECAD2C
:103CA00019B02846BDE8F08F620700D4062709F155
:103CB000070222F0070CFCE80223E14603F000486B
:103CC0005FEA080C02D00FF2702C0DE05FEA045C92
:103CD00002D50FF2682C07E05FEAC47C02D00FF235
:103CE000602C01E0AFF2700C4FF0FF3823F000437E
:103CF000CDF850C065280CD006DC452809D04628F0
:103D00001DD047283DD13DE0662818D067287ED1D8
:103D100038E00021112F01DB112000E0781CCDE9F3
:103D2000000106A90EA8FFF7DDFCDDE90F010E9AE0
:103D300003910021009207F1010A04914DE04FF038
:103D400000400097CDE9011006A90EA8FFF7CAFCB4
:103D5000DDE90F0203920E9B11990022DDF80CA001
:103D60000093049211B9791C00EB010AB7EB0A0029
:103D700004D4C0F1FF3007F1010A0490AAEB070058
:103D8000019044E0012F00DA01270021112F01DD0D
:103D9000112000E03846CDE9000106A90EA8FFF782
:103DA000A1FCDDE90F010E9A03910021049100921C
:103DB000BA4621070CD40399514500DA8A46BAF174
:103DC000010F05DD009AAAF10101515C302908D0EC
:103DD000B84202DA10F1040F06DA0121CDE9011030
:103DE00015E0AAF10101E9E7002805DC0499014486
:103DF0000491AAEB000102E0411C514500DD8A4616
:103E00000499401A401C01904FF000400290200796
:103E100004D40198504501DBCDF8048000208DF8D2
:103E20004F0002980DF14F07B0F1004F25D02B2025
:103E30000E9002984FF0020800280CDA40420290DF
:103E40002D200E9007E00A210298FCF7C1FB3031CB
:103E5000029007F8011DB8F10001A8F10108F2DC99
:103E600002980028EFD1791E0E980870307800F083
:103E7000200040F0450007F8020D12A8C01B00F119
:103E800007081498007800B1012000EB0A0101989E
:103E900001EBE07105984144401A401E0590E00393
:103EA00006D45B462146179A059800F05DF8054454
:103EB0001498007818B15A46179990476D1CE00382
:103EC00024D55B462146179A059800F04DF8054425
:103ED0001CE00498002807DBDDE90301884203DDCC
:103EE0000098405C179901E0179930205A46904796
:103EF000049805F10105401C04900198401E0190B2
:103F000004D12E205A46179990476D1CBAF1000132
:103F1000AAF1010ADDDC05E017F8010B5A461799F2
:103F200090476D1CB8F10001A8F10108F4DC5B4674
:103F30002146179A0598ABE62D0000002B000000E3
:103F4000200000002DE9F041044600251E461746DA
:103F5000880404D405E039462020B0476D1C641E57
:103F6000F9D52846BDE8F0812DE9F0410446002549
:103F70001E469046C80301D5302700E0202788045C
:103F800004D505E041463846B0476D1C641EF9D59E
:103F90002846BDE8F08182B0CDE9000121F0004063
:103FA00001909DED000B02B051EC100B704700002A
:103FB00013B50C464FF6FF73012269460248FDF720
:103FC00040FF00981CBD000080000020FDF726F88F
:103FD000FEF704F9FDF7A4FFFEF78CF8FEF75EF894
:103FE000FEF7AEF8FEF740F80848FDF7E1FC0122C5
:103FF00007490848FDF7F2FEFCF7B8FCFEF742FA65
:1040000002E00548FEF734FAFBE700004400002018
:104010000D0000208000002038000020000000007B
:104020000000000001020304060708090000000068
:1040300001020304000000004C5555555555A53F9D
:104040007751C1166CC156BF9015CB19A001FA3E2D
:10405000AD529C804F7E92BEC4B1B4BD9EEE213E57
:10406000D43888BEE9FAA8BD00004054FB21F93FCE
:104070003163621A61B4D03D0000601A61B4D03D72
:104080007370032E8A19A33B0000002E8A19A33BEC
:10409000C14920259A837B39000000000000000000
:1040A0006E83F9A22915444ED15727FCC0DD34F5A3
:1040B000999562DB4190433CAB6351FE61C5BBDE29
:1040C0003A6E24B7E0D24D42EA2E49061C92D1093D
:1040D0001CEB1DFE3EA729B1F53582E88444BB2EBA
:1040E00026709CE9417E5FB439D69139F439538307
:1040F0008B5F849C3B28F9BDFF97F81F0F9805DE66
:104100008B112FEF1F6D0A5ACF7E366DB709CB2763
:10411000663F464F2DEA5F9EC7BA27757BF1E5EBF8
:10412000F739073DEA92528AB15FFB6B085D8D1F3C
:10413000A6F810111111813FD561C119A0012ABF44
:104140007DFEB157E31DC73EEB9C2B8AE6E55ABEC8
:104150007CD5CF5A3AD9E53D7841000800000020CF
:1041600044000000B8360008BC41000844000020AC
:1041700034070000C83600080024F40000000000E6
:10418000100000000100000000000000000000001E
:10419000000000000000000000000400000000001B
:1041A000000000000000000000000000000000000F
:0C41B00000000000000000000000000003
:040000050800018965
:00000001FF
