:020000040800F2
:10000000380400209D010008B90B0008B10B00085E
:10001000B50B000853070008971A000800000000FD
:100020000000000000000000000000006D0F00084C
:10003000D10A000800000000AD0C00085D100008A7
:10004000B7010008B7010008B7010008B7010008B0
:10005000B7010008B7010008B7010008B7010008A0
:10006000B7010008B7010008B7010008B701000890
:10007000B7010008B7010008B7010008B701000880
:10008000B7010008B7010008B7010008B701000870
:1000900059070008B7010008B7010008B7010008B8
:1000A000B7010008B7010008B7010008B701000850
:1000B0002D110008B7010008B7010008B7010008BA
:1000C000B7010008B7010008B7010008B701000830
:1000D000B701000879180008B7010008B701000847
:1000E000B7010008B7010008B7010008B701000810
:1000F000B7010008B7010008B7010008B701000800
:10010000B7010008B7010008B7010008B7010008EF
:10011000B7010008B7010008B7010008B7010008DF
:10012000B7010008B7010008B7010008B7010008CF
:10013000B7010008B7010008B7010008B7010008BF
:10014000B7010008B7010008B7010008B7010008AF
:10015000B7010008B7010008B7010008B70100089F
:10016000B7010008B7010008B7010008B70100088F
:10017000B7010008B7010008B7010008B70100087F
:10018000B7010008B7010008DFF80CD000F092FAC0
:100190000048004709270008380400200648804727
:1001A00006480047FEE7FEE7FEE7FEE7FEE7FEE75C
:1001B000FEE7FEE7FEE7FEE76110000889010008A0
:1001C0002DE9FE4F804681EA0300C00F0C460090E7
:1001D00021F0004123F00045B8EB0200A94105D20F
:1001E0004046214690461C460B46024623F00040FE
:1001F000104347D0270DC7F30A00C3F30A510290FA
:10020000401A019040286BDAC3F3130040F4801BBE
:100210000098924620B10023D2EB030A63EB0B0B4C
:1002200001985946C0F14002504600F0B4F9064624
:100230000D4650465946019A00F0CCF910EB0800E3
:100240006141002487EA115284EAE7731A4340D0DF
:10025000009A62B3019A012A4FEA075215DC001B8B
:1002600061EB02014FF0004202EA0752CDE9004281
:10027000001C41F5801132462B4600F0CCF903B04A
:10028000BDE8F08F40462146F9E7001B61EB020113
:10029000001C41F5801300185B412018A2F50017DF
:1002A00047EB030140EAD570B6196D4111E06D08C6
:1002B0004FEA360645EAC0754FEA0752001B61EB6C
:1002C0000201001C41F5801149084FEA3000001975
:1002D000514132462B4603B0BDE8F04F00F08CB9D7
:1002E0000098012240000023D0EB020263EBE07390
:1002F000009821464FEAE074B8EB000061EB04017E
:10030000E9E783F000435BE781F0004158E72DE91E
:10031000FE4F81EA030404F0004421F00041009400
:100320004FF0000B23F0004350EA01045ED052EA84
:1003300003045BD0C3F30A54C1F30A552C44A4F25E
:10034000F3340194A0FB0254C1F3130141F4801172
:10035000C3F3130343F4801301FB024400FB034E79
:10036000840A970A44EA815447EA8357A4FB076842
:1003700002958D0A05FB07854FEA932C04FB0C546C
:100380002705029D4FEA065847EA1637B5EB0805E0
:100390006EEB070C870E920E47EA811742EA831232
:1003A000A7FB0201B6EB0B0164EB00042B0D43EA43
:1003B0000C335E1844EB1C50DA465146E7FB020151
:1003C000C5F313044FEA0B3343EA14534FEA0432E4
:1003D000019C43EA0603A4F10C040294009CCDE9BD
:1003E00000B400F018F903B0BDE8F08F002001461A
:1003F000F9E72DE9F04D81EA030404F0004B21F008
:10040000004514464FF0000A23F0004150EA05026F
:1004100020D054EA01021DD0C5F30A570246C5F3A5
:100420001303C1F31300C1F30A5640F4801543F4DB
:100430008013A7EB0608101BD64608F2FD3873EBB5
:10044000050002D308F1010801E092185B41B8F100
:10045000000F03DA00200146BDE8F08D00204FF4C4
:100460008011064684460EE0171B73EB050705D383
:10047000121B63EB050306434CEA010C49084FEAE3
:10048000300092185B4150EA0107EDD152EA0300B7
:1004900012D082EA040083EA0501084305D0101B4C
:1004A000AB4106D20122002306E000224FF00043B8
:1004B00002E06FF0010253101AEB06004CEB0851FA
:1004C00010EB0A0041EB0B01BDE8F04D00F094B8D1
:1004D000C1F30A5210B5C1F3130140F2FF3341F4E6
:1004E00080119A4201DA002010BD40F233439A4253
:1004F000A2F2334203DC524200F05CF810BD90409F
:1005000010BD000030B5041E71F1000404DB4FF093
:100510000044404264EB0101141E73F1000405DB4A
:100520001C464FF00043524263EB0403994208BF5C
:10053000904230BD2DE9F05F0546002092469B4673
:1005400088460646814640241BE0284641464746E9
:10055000224600F02FF853465A46C01A914110D354
:1005600011461846224600F016F82D1A67EB0108CE
:100570004F4622460120002100F00DF817EB00093C
:100580004E41201EA4F10104DFDC484631462A46D4
:100590004346BDE8F09F202A04DB203A00FA02F12E
:1005A000002070479140C2F1200320FA03F3194361
:1005B00090407047202A04DB203A21FA02F0002103
:1005C000704721FA02F3D040C2F120029140084363
:1005D00019467047202A06DBCB17203A41FA02F071
:1005E00043EAE07306E041FA02F3D040C2F1200290
:1005F000914008431946704710B5141E73F100046A
:1006000008DA401C41F1000192185B411A4301D104
:1006100020F0010010BD2DE9F04D92469B4611B12E
:10062000B1FA81F202E0B0FA80F220329046FFF790
:10063000B2FF04460F4640EA0A0041EA0B01534666
:100640005A46084313D0114653EA010019D0C8F1A5
:1006500040025046FFF7AEFF05460E46504659464B
:100660004246FFF798FF084305D0012004E02046EA
:100670003946BDE8F08D0020054346EAE0762C437C
:1006800037430A986305E40AA0EB08000022FD0A3C
:1006900044EA47540A3002D500200146E9E7010543
:1006A00010196941DDE9084500196941BDE8F04DBF
:1006B000A2E70000064C074D06E0E06840F00103A9
:1006C00094E8070098471034AC42F6D3FFF760FD7A
:1006D000E0280008002900080EB5C10F80EAE0708C
:1006E0000844CA07002140F233438DE80E000A4651
:1006F0000B46FFF790FF03B000BD0EB540F233414B
:1007000002910021CDE900110A460B46FFF783FF55
:1007100003B000BD70B5C1F30A5201F000450024DA
:10072000C1F3130140F2FF3341F480119A4201DA20
:10073000002070BD40F233439A42A2F2334203DC00
:100740005242FFF737FF00E090402C43F1D0404287
:1007500070BD00BFFEE7000000B585B0002000902E
:1007600001908DF808008DF80A008DF813006A4694
:100770000021094800F050F808A001F08FF99DF819
:100780000B00282806D19DF80E00292802D1E1206F
:1007900000F010F805B000BD0064004063616E20F9
:1007A0007265632E20696E742E206F7574200D0A99
:1007B0000000000070B586B00546002400261448ED
:1007C00000680190002002908DF80C008DF80D005B
:1007D00001208DF80E008DF80F5001A90D4800F092
:1007E00093F8064600BF00E0641C3146094800F05B
:1007F0001FF918B940F6FF708442F5D340F6FF7038
:10080000844202D3012006B070BD0020FBE7000047
:10081000180000200064004010B500F5D87303EB09
:1008200001131B6803F004031372137A53B900F524
:10083000D87303EB01131B6840F2FF7404EA5353AF
:10084000136009E000F5D87303EB01131B686FF028
:10085000604404EAD303536000F5D87303EB01133B
:100860001B6803F00203537200F5D87303EB011306
:100870005B6803F00F03937200F5D87303EB011369
:100880005B681B0AD37400F5D87303EB01139B68F4
:10089000D37200F5D87303EB01139B681C0A147321
:1008A00000F5D87303EB01139B681C0C547300F51F
:1008B000D87303EB01139B681B0E937300F5D87379
:1008C00003EB0113DB68D37300F5D87303EB01135B
:1008D000DB681C0A147400F5D87303EB0113DB68A2
:1008E0001C0C547400F5D87303EB0113DB681B0E6A
:1008F000937421B9C36843F02003C36003E0036924
:1009000043F02003036110BD10B502460020936838
:1009100003F08063B3F1806F00D110E0936803F0BF
:100920000063B3F1006F01D1012008E0936803F088
:100930008053B3F1805F01D1022000E0042004283D
:1009400074D002F5C07303EB00131B6803F00104BD
:1009500002F5C07303EB00131C600B7A7BB94B7A72
:100960000C8843EA445302F5C07404EB0014246875
:10097000234302F5C07404EB0014236010E00B7AEB
:100980004C6843EAC4034C7A234302F5C07404EB79
:1009900000142468234302F5C07404EB00142360A0
:1009A0008B7A03F00F038B7202F5C07303EB001315
:1009B0005B6823F00F0402F5C07303EB00135C6067
:1009C00002F5C07303EB00135B688C7A234302F5D6
:1009D000C07404EB001463608B7B1C064B7B44EA01
:1009E00003440B7B44EA0323CC7A234302F5C0740F
:1009F00004EB0014A3608B7C1C064B7C44EA03448C
:100A00000B7C44EA0323CC7B234302F5C07404EB44
:100A10000014E36002F5C07303EB00131B6843F09E
:100A2000010402F5C07303EB00131C6010BD00004D
:100A300010B50246002321B1012907D002290FD1A8
:100A400009E090681D4C00EA04030BE090681C4C20
:100A500000EA040306E090681A4C00EA040301E08F
:100A6000002300BF00BF184C181BA34216D007DCA0
:100A700083B16FF08060184470B1022818D111E082
:100A8000B0F5007F10D0114C204448B1B0F5003FC4
:100A90000ED10BE002230DE000230BE0002309E060
:100AA000002307E0012305E0012303E0012301E027
:100AB000002300BF00BFD8B210BD00000300000437
:100AC0000003000800000310000100080001FFF708
:100AD0007047F0B50A4600210023002400BF3DE026
:100AE000012505FA01F3156805EA03049C4234D197
:100AF00005684F000326BE40B543056015794E00DA
:100B0000B5400668354305601579012D02D0157989
:100B1000022D16D185684F000326BE40B54385607F
:100B200055794E00B5408668354385604568012695
:100B30008E40B5434560456896798E40B6B23543E0
:100B40004560C5684F000326BE40B543C560D579F2
:100B50004E00B540C6683543C560491C1029BFD357
:100B6000F0BDF0B5002300244D07ED0E02FA05F3A9
:100B7000CE1000F1200555F826504E07F70E0F262F
:100B8000BE40B543CF1000F1200646F82750CE10E6
:100B900000F1200555F8265045EA0304CE1000F177
:100BA000200545F82640F0BD41837047018370471A
:100BB00000BFFEE700BFFEE7704708B54FF4A06036
:100BC00000F06AF825208DF8000001208DF8010062
:100BD00000208DF8020001208DF80300684600F027
:100BE0001FF81C208DF8000002208DF80100002065
:100BF0008DF8020001208DF80300684600F010F81F
:100C000014208DF8000000208DF801008DF80200FE
:100C100001208DF80300684600F002F808BD0000CE
:100C200070B5002100230F22C4781CB3174C246830
:100C300004F4E064C4F5E064C4F30721C1F10404E2
:100C4000E3B20A4144789C40E1B2847814402143E5
:100C50000C07210E0E4C05786155047804F01F0531
:100C60000124AC4005786D11AD0005F1E025C5F813
:100C7000004109E0047804F01F050124AC40054D53
:100C80000678761145F8264070BD00000CED00E0B6
:100C900000E400E080E100E002490143024A116003
:100CA000704700000000FA050CED00E070470000FE
:100CB00029B1064A12680243044B1A6004E0034A51
:100CC00012688243014B1A607047000030380240BE
:100CD00029B1064A12680243044B1A6004E0034A31
:100CE00012688243014B1A6070470000403802408E
:100CF00029B1064A12680243044B1A6004E0034A11
:100D000012688243014B1A6070470000203802408D
:100D100029B1064A12680243044B1A6004E0034AF0
:100D200012688243014B1A60704700004438024049
:100D300029B1064A12680243044B1A6004E0034AD0
:100D400012688243014B1A60704700002438024049
:100D5000F0B5002100220024022500260223324F94
:100D60003F6807F00C0121B1042905D0082937D1CB
:100D700005E02E4F076036E02D4F076033E02A4F25
:100D80003F1F3F68C7F38056274F3F1F3F6807F05C
:100D90003F036EB1264FB7FBF3F7DFF88CC0ACF121
:100DA000040CDCF800C0CCF3881C07FB0CF40CE04E
:100DB0001E4FB7FBF3F7DFF870C0ACF1040CDCF8A2
:100DC00000C0CCF3881C07FB0CF4174F3F1F3F6893
:100DD000C7F301477F1C7D00B4FBF5F7076002E015
:100DE000124F076000BF00BF0F4F3F6807F0F001D0
:100DF0000909104F7A5C0768D74047600A4F3F687F
:100E000007F4E051890A0B4F7A5C4768D740876046
:100E1000054F3F6807F46041490B064F7A5C47680D
:100E2000D740C760F0BD0000083802400024F4003D
:100E300040787D0108000020014600BF0948008974
:100E400000F002000028F9D00648818100BF054863
:100E5000008900F001000028F9D002488089C0B262
:100E6000704700000030014021B1028842F040028A
:100E7000028004E002884FF6BF731A400280704778
:100E800010B504462448844208D101218014FFF79C
:100E90004FFF0021A014FFF74BFF3CE01F488442A6
:100EA00008D101210014FFF723FF00212014FFF7D0
:100EB0001FFF30E01A48844208D10121C013FFF718
:100EC00017FF0021E013FFF713FF24E015488442C9
:100ED00008D101214014FFF72BFF00216014FFF718
:100EE00027FF18E01048844209D101210805FFF7C7
:100EF0001FFF00214FF48010FFF71AFF0BE00B4893
:100F0000844208D101214805FFF712FF00214FF468
:100F10000010FFF70DFF10BD003001400038004009
:100F2000003C0040003401400050014000540140AA
:100F300010B50022028802F441520B884C882343EA
:100F40008C882343CC8823430C8923434C89234337
:100F50008C892343CC8923431A430280838B4FF22D
:100F6000FF74234083830B8A038210BD7047000007
:100F70000CB50020019000903448006840F48030A7
:100F80003249086000BF3148006800F4003000902A
:100F90000198401C0190009818B90198B0F5A04F35
:100FA000F1D12A48006800F4003010B1012000900F
:100FB00001E0002000900098012846D123484030ED
:100FC000006840F0805021494031086020480068A6
:100FD00040F440401E4908601C48083000681B4926
:100FE000083108600846006840F400400860084680
:100FF000006840F4A05008601648091F0860081FE8
:10100000006840F08070091F086000BF0F4800684A
:1010100000F000700028F9D040F205700E49086019
:101020000A480830006820F00300084908310860C9
:101030000846006840F00200086000BF034808301E
:10104000006800F00C000828F8D10CBD0038024000
:101050000070004019544007003C024070470000F7
:1010600010B51548006840F4700013490860134833
:10107000006840F001001149086000200F49083164
:1010800008600E4800680E4908400C4908600D4889
:10109000091D0860081F006820F48020091F0860EF
:1010A000002006490C310860FFF762FF4FF0006036
:1010B00001498039086010BD88ED00E00038024029
:1010C000FFFFF6FE103000243EB50446012108461D
:1010D000FFF7FEFD0121880700F0DFF84FF08040A8
:1010E00000F0EAF804EB84000121C1EB400001901C
:1010F00041F20300ADF800000020ADF80800ADF8A3
:1011000002008DF80A0069464FF0804000F0AEF909
:101110000121880700F0BEF801221146900700F077
:101120009CF90121880700F0BBF83EBD10B50121F4
:10113000880700F089F900287AD00121880700F09B
:10114000A9F848480078401C46490870087800EB28
:10115000D0714910A0EB4101424A11704248007819
:10116000042841D007DC78B1012819D0022823D007
:10117000032873D12CE0052842D006284CD007283C
:1011800057D0FF286AD160E09FED381B9FED390BE7
:10119000002000F053FA3949088000F019FB5EE0A6
:1011A0009FED321B9FED330B012000F047FA3349CE
:1011B000088000F00DFB52E09FED2C1B9FED2D0BE6
:1011C000022000F03BFA2D49088000F001FB46E0C8
:1011D0009FED261B9FED270B032000F02FFA2749D8
:1011E000088000F0F5FA3AE09FED201B9FED210BFF
:1011F000042000F023FA2149088000F0E9FA2EE0EB
:101200009FED1A1B9FED1B0B052000F017FA1B49E1
:10121000088000F0DDFA22E09FED191B9FED1A0B0C
:10122000062000F00BFA1549088000F0D1FA16E00C
:1012300016E09FED0E1B9FED0F0B072000F0FEF94F
:101240000E49088000F0C4FA09E010211048FFF7A9
:10125000ADFC00200349087001E0FFE700BF00BFBC
:1012600010BD000000000020010000200000000070
:1012700000001440000000000000104006000020A4
:1012800000000000000018400000000000000040C6
:1012900000000240CA4302827047CA43028270477C
:1012A00021B1028842F00102028004E002884FF678
:1012B000FE731A400280704710B5044655488442B8
:1012C00008D101210846FFF733FD00210120FFF777
:1012D0002FFD9DE0B4F1804F08D101210846FFF7B2
:1012E00007FD00210120FFF703FD91E04A488442F9
:1012F00008D101210220FFF7FBFC00210220FFF7AB
:10130000F7FC85E04548844208D101210420FFF71D
:10131000EFFC00210420FFF7EBFC79E04048844219
:1013200008D101210820FFF7E3FC00210820FFF786
:10133000DFFC6DE03B48844208D101211020FFF71B
:10134000D7FC00211020FFF7D3FC61E0364884422F
:1013500008D101212020FFF7CBFC00212020FFF73E
:10136000C7FC55E03148844208D101210220FFF733
:10137000DFFC00210220FFF7DBFC49E02C4884421F
:1013800009D101210804FFF7D3FC00214FF480307C
:10139000FFF7CEFC3CE02748844209D101214804F4
:1013A000FFF7C6FC00214FF40030FFF7C1FC2FE02F
:1013B0002148844209D101218804FFF7B9FC0021AA
:1013C0004FF48020FFF7B4FC22E01C48844208D18F
:1013D00001214020FFF78CFC00214020FFF788FC12
:1013E00016E01748844208D101218020FFF780FCD5
:1013F00000218020FFF77CFC0AE01248844207D1DC
:1014000001218015FFF774FC0021A015FFF770FC87
:1014100010BD000000000140000400400008004032
:10142000000C004000100040001400400004014087
:1014300000400140004401400048014000180040C5
:10144000001C00400020004002460020138A0B4090
:101450000BB1012000E0002070471AB183890B43D3
:10146000838102E083898B43838170470022028855
:10147000184B98420ED0184B98420BD0B0F1804FC9
:1014800008D0164B984205D0154B984202D0154B08
:10149000984204D14FF68F731A404B881A43124B6F
:1014A000984207D0114B984204D04FF6FF431A40A0
:1014B0000B891A4302804B68C3620B880385054B76
:1014C000984202D0044B984201D18B7A03860123C3
:1014D0008382704700000140000401400004004086
:1014E00000080040000C00400010004000140040C4
:1014F00008B50021009106E002E00099491C009126
:101500000099A029F9D30100A0F10100F4D108BD90
:1015100000B587B001210846FFF7CAFB0121022070
:10152000FFF7C6FB01210420FFF7C2FB01210803DE
:10153000FFF7EEFB02208DF8180003208DF819004C
:1015400000208DF81A0001208DF81B00C0200590A6
:1015500005A93648FFF7BDFA01208DF81B000820C9
:10156000059005A93248FFF7B4FA052206212F4855
:10157000FFF7F7FA052207212C48FFF7F2FA0522B8
:1015800003212B48FFF7EDFA4FF46040059001204E
:101590008DF8180000208DF81A0003208DF819002E
:1015A00005A92448FFF795FA1020059005A91F48C2
:1015B000FFF78FFA2048FFF763FC0020ADF800002A
:1015C0004FF48270ADF802000020ADF80400ADF8D1
:1015D0000600ADF808004FF40070ADF80A0038209E
:1015E000ADF80C000020ADF80E000720ADF810009B
:1015F00069461148FFF79CFC01210F48FFF734FCB6
:1016000010210C48FFF7D2FA4FF480410948FFF748
:10161000CDFA4FF400510748FFF7C8FA4FF40041E4
:101620000448FFF7C3FA07B000BD00000000024005
:1016300000040240000802400030014030B52DEDAA
:10164000108B83B00546B0EE408AF0EE608AB0EEB3
:10165000419AF0EE619A53EC192B4D4890ED000B36
:1016600051EC100BFEF74EFF04D89FED4A0B484893
:1016700080ED000B9FED490B53EC102B51EC180B38
:10168000FEF7B7FE41EC1A0B53EC192B9FED450BFF
:1016900051EC100BFEF7ADFE41EC1F0B3C4890EDFA
:1016A000000B53EC102B51EC1F0BFEF730FE41ECFE
:1016B0001E0BB0EE4E0AF0EE6E0A00F019FAB0EE14
:1016C00040CAF0EE60CA9FED350B53EC102B51EC85
:1016D000180BFEF78EFE41EC1D0B53EC1C2BFEF796
:1016E00016FE41EC1B0B53EC1A2BFEF769FDCDE9FE
:1016F00000019FED2E0B53EC102B254890ED000BB5
:1017000051EC100BFEF75CFD214A03C29FED290B43
:1017100053EC102B9DED000B51EC100BFEF769FE06
:1017200041EC1C0B9FED250B53EC102BFEF7EFFD4E
:1017300041EC1B0B9FED230B53EC102BFEF7E1FD4F
:1017400041EC1A0BFEF7C4FE84B240F6FF7000EACB
:10175000840040EAC52084B24FF400411B48FFF7E3
:1017600023FA0120FFF7C4FE2012FFF765FBE0B269
:10177000FFF762FB0120FFF7BBFE4FF40041134867
:10178000FFF714FA204603B0BDEC108B30BD00000B
:101790002800002000000000000000000000000001
:1017A000000000406F1283C0CA2119409A9999998C
:1017B0009999C93F0000000000001440000000009B
:1017C00000008040000000000000F03F00080240E0
:1017D00010B510210148FFF7E7F910BD00000240E5
:1017E00010B586B0044601210846FFF761FA0121D1
:1017F0001020FFF78DFA072209211D48FFF7B1F9E4
:1018000007220A211A48FFF7ACF902208DF80400DC
:1018100003208DF8050000208DF8060001208DF8CA
:1018200007004002009069461148FFF752F94FF453
:101830008060009069460E48FFF74BF90294002043
:10184000ADF80C00ADF80E00ADF81000ADF81400C6
:101850000C20ADF8120002A9064800F0A9F80122F8
:1018600040F22551034800F07DF806B010BD00009D
:10187000000002400010014010B540F225510A4816
:1018800000F046F870B140F22551074800F018F812
:10189000054800F0F7F8054908700846017804A0EB
:1018A00000F0FCF810BD0000001001400100002015
:1018B0007369676E616C3A2025780D0A000000009C
:1018C00010B50022002340F66A14A14200D100BFE7
:1018D0000A1201249440A3B2DC43048010BD21B15C
:1018E000828942F40052828104E082894DF6FF73BE
:1018F0001A408281704702460020B1F5007F00D176
:1019000000BF13880B400BB1012000E0002070479E
:1019100070B50246002400230025002040F66A1618
:10192000B14200D100BFC1F3421501F01F030126EF
:1019300006FA03F3012D02D19689334006E0022D09
:1019400002D1168A334001E0968A33400C120126F8
:1019500006FA04F41688344013B10CB1012000E0FB
:10196000002070BDF0B503460024002600250020AD
:1019700040F66A17B94200D100BF1846C1F34214BD
:1019800001F01F06012707FA06F5012C01D10C30E2
:1019900004E0022C01D1103000E014301AB10768C5
:1019A0002F43076002E00768AF430760F0BD000007
:1019B0002DE9FF4705460E460024A14600BFA0467C
:1019C000B08900B100BF2C8A24F44054F08804434D
:1019D0002C82AC8941F20C608443B0883189084381
:1019E000718908430443AC81AC8A24F44074B08903
:1019F0000443AC826846FFF7ABF92048854202D029
:101A00001F48854202D1DDF80C9001E0DDF8089016
:101A1000A88900F4004040B109EBC90000EB0910AF
:101A200031684900B0FBF1F707E009EBC90000EBB2
:101A3000091031688900B0FBF1F76420B7FBF0F0C2
:101A400004012009642101FB1078A88900F40040FA
:101A500040B1322000EBC800B0FBF1F000F007000D
:101A6000044308E0322000EB08106421B0FBF1F0E1
:101A700000F00F0004432C81BDE8FF8700100140F7
:101A80000014014001468888C0F308007047C1F384
:101A900008028280704700BFFEE700000FB4054BCC
:101AA00010B503A9044A029800F0B0FC10BC5DF820
:101AB00014FB0000E52600083000002003B4019864
:101AC0004100009850EAC12018BF04204A0D18BFF9
:101AD00040F0010040F2FF72B2EB515F08BF40F0EE
:101AE0000200012808BF052002B070470000000076
:101AF00010B52F499FED2C1B2DED020B84B00598DE
:101B000020F000408842DCBF00209DED040B32DD58
:101B10002849884209D1049840B94FF0010000F0EB
:101B20006FFC00F03DFC06B010BD05DB9DED040B25
:101B300000F02AFC06B010BD68469DED040B00F0D5
:101B40003BF810F0030011D0012818D09DED021BC6
:101B50009DED000B02281AD000F04AFA51EC100B50
:101B600081F0004106B041EC100B10BD9DED021B51
:101B70009DED000B012000F06FFB06B010BD9DED48
:101B8000021B9DED000B00F033FA06B010BD0120E2
:101B900000F062FB51EC100B81F0004106B041EC0B
:101BA000100B10BD0000000000000000000000004D
:101BB000FB21E93F0000F07F2DE9F14F04462DEDB8
:101BC000020B2DED088B8AB09FEDE70B80ED020B29
:101BD000139EE74826F0004585420ADC9DED120B76
:101BE000002084ED000B0AB0BDEC088B03B0BDE80B
:101BF000F08FE0489FEDE0AB9FEDE1BBA84247DDF1
:101C0000E14F9FEDE39B9FEDE48B9DED120B53ECB9
:101C10001A2B51EC100B002E1CDDFEF772FB41EC71
:101C2000100BBD4208D053EC1B2B51EC100BFEF7F0
:101C300068FBC4E900010BE053EC192B51EC100BCD
:101C4000FEF75FFB53EC182BFEF75BFBC4E90001CA
:101C50000120C8E7FEF7B4FA41EC100BBD4208D0F2
:101C600053EC1B2B51EC100BFEF7AAFAC4E9000150
:101C70000BE053EC192B51EC100BFEF7A1FA53ECCF
:101C8000182BFEF79DFAC4E900014FF0FF30AAE7D8
:101C9000C348A84279DB9DED120B51EC100B00F00C
:101CA00015FD41EC180B9FEDC00B53EC102BFEF70C
:101CB0002EFB9FEDBF1B53EC112BFEF781FAFEF7B5
:101CC00029FD0746FEF708FD41EC190B53EC1A2BD2
:101CD000FEF71DFB53EC182BFEF716FB41EC180B1F
:101CE00053EC1B2B51EC190BFEF711FBDFF8C8A2CC
:101CF00041EC100B4FEA15580125FA4453EC102B18
:101D000051EC180BFEF7FDFA032DC4E900013DD09C
:101D1000C1F30A5005EB4511A8EB000011398142CF
:101D200034DA0AEB051BB0EE48AA9BED000BF0EE8F
:101D300068AA53EC102B51EC190BFEF7E8FA41ECB2
:101D40001B0B51EC1A0B53EC1B2BFEF7DAFA41EC90
:101D5000180B51EC1A0B53EC182BFEF7D2FA53EC7C
:101D60001B2BFEF7CEFA9BED020B41EC1A0B53EC4A
:101D7000102B51EC190BFEF7CAFA53EC1A2BFEF795
:101D8000C0FA41EC100B6D1CB8E70EE0002EA8BFA6
:101D90003846BFF628AF94ED000B51EC100B81F0E4
:101DA0000041C4E9000178421DE7C6F3130040F486
:101DB000801EC6F30A50A0F2F530471100F01F054F
:101DC000C5F12000DDF848B008900020069007908B
:101DD0000520EC467949002D07EB0002794408BF45
:101DE00051F8221009D051F8223001EB8201AB40AA
:101DF0004A68089922FA01F11943A1FB0E26A1FBBA
:101E00000B131A449A4234BF0123002303EB060844
:101E10000CEB8003D3E901A60E448E4234BF0121AE
:101E2000002192448A4411B1924502D903E09245BF
:101E300001D2012100E00021C3E901A641444CF890
:101E40002010011EA0F10100C4DC029800F1005036
:101E5000850F0298DDE903678000DDF81480FEF746
:101E60003BFC41EC1A0B3046FEF747FC9FED541B40
:101E700053EC112BFEF74BFA41EC1B0B3846FEF7E7
:101E80003CFC9FED511B53EC112BFEF740FA41EC4B
:101E9000180B4046FEF731FC9FED4D1B53EC112B08
:101EA000FEF735FA41EC190B51EC180B53EC192BDA
:101EB000FEF786F953EC1B2BFEF782F953EC1A2B35
:101EC000FEF77EF9CDE90801002008909DED080B92
:101ED00053EC1A2B51EC100BFEF713FA53EC1B2B9F
:101EE000FEF70FFA53EC182BFEF70BFA53EC192BF5
:101EF000FEF70AFA9FED381B53EC112BFEF707FA99
:101F00009FED370B41EC180B53EC102B9DED080B9C
:101F100051EC100BFEF7FBF953EC182BFEF750F9C0
:101F20009FED310B41EC180B53EC102B9DED080B82
:101F300051EC100BFEF7EBF953EC182BFEF740F9C0
:101F400041EC100B139810F0004F06D06D4251EC8D
:101F5000100B81F0004141EC100B284684ED000B82
:101F600041E600000000000000000000000000004A
:101F7000FB21E93F7CD9024000004054FB21F93F9E
:101F80003163621A61B4D03DFB21F93F00000000CB
:101F90000000601A61B4D03D7370032E8A19A33B10
:101FA000FB2139410000000083C8C96D305FE43F68
:101FB000000000000000E03FF20A0000400A0000BC
:101FC000000000000000103E000000000000103C77
:101FD000000000000000103A182D4454FB21F93D88
:101FE0003326A611460B113C00000054FB21F93D9D
:101FF00010B52DED040B2DED088B82B0B0EE419A9B
:10200000F0EE619A0B9820F000449FED4BABB4F1D9
:10201000795F11DA9DED0A0B51EC100BFEF77AFB9C
:10202000002801BFB0EE4A0AF0EE6A0A02B0BDEC29
:10203000088B04BF04B010BD9DED0A0B53EC102BB0
:1020400051EC100BFEF763F941EC180B3C480621EC
:10205000B0EE480AF0EE680A784400F081F853ECDC
:10206000182B51EC100BFEF752F99DED0A0B41ECC9
:102070001B0B53EC192B51EC100BFEF748F941ECFC
:10208000190B53EC1B2B51EC180BFEF740F953ECDA
:10209000192BFEF736F99FED2C0B41EC190B53EC85
:1020A000102B51EC180BFEF732F941EC100B2848BD
:1020B000844210DA53EC192B51EC100BFEF721F986
:1020C00053EC1A2BFEF720F941EC100B02B0BDECDB
:1020D000088B04B010BD1F48A042BCBF9FED1E1B63
:1020E0008DED001B06DBA4F5001001900020009090
:1020F0009DED001B51EC100B53EC112BFEF701F979
:102100009DED000B41EC180B53EC102B51EC1A0B0E
:10211000FEF7F7F841EC1A0B53EC192B51EC180BA6
:10212000FEF7EFF853EC1A2BFEF7EEF841EC100B2C
:10213000CCE7000000000000000000000000F03FBD
:102140006407000000000000000000000000E03F05
:102150003333D33F0000E93F000000000000D23FCE
:1021600070B504462DED028B4D1E00EBC500B0EEA0
:10217000408AF0EE608A90ED000B35F0060017D033
:1021800053EC182B51EC100BFEF7C1F841EC100B7F
:102190006D1E04EBC50090ED001B51EC100B53ECD1
:1021A000112BFEF70DF841EC100B35F00600E7D1CE
:1021B000022D36D0042D1CD0062D1CBFBDEC028B89
:1021C00070BD53EC182B51EC100BFEF7A0F894EDFA
:1021D0000A1B53EC112BFDF7F3FF53EC182BFEF702
:1021E00096F894ED081B53EC112BFDF7E9FF41EC39
:1021F000100B53EC182B51EC100BFEF788F894EDF4
:10220000061B53EC112BFDF7DBFF53EC182BFEF7ED
:102210007EF894ED040B53EC102BFDF7D1FF41EC4D
:10222000100B53EC182B51EC100BFEF770F894EDDB
:10223000021B53EC112BFDF7C3FF53EC182BFEF7D9
:1022400066F894ED001B53EC112BFDF7B9FFBDECC4
:10225000028B41EC100B70BD31B504462DED040B23
:102260002DED0A8BB0EE41BAF0EE61BA0B989DED00
:102270000A0B20F00040B0F1795F0DDA51EC100B41
:10228000FFF71CFC042808BF00F09AF89DED0A0B2C
:10229000BDEC0A8B05B030BD53EC102B51EC100B8C
:1022A000FEF735F841EC180B9DED0A0B53EC182B9B
:1022B00051EC100BFEF72BF841EC190B2C48B0EE4B
:1022C000480AF0EE680A05217844FFF749FF9FEDC0
:1022D0002ACBB0EE40AAF0EE60AA9CB353EC1C2BC4
:1022E00051EC190BFEF713F841EC1C0B53EC1A2BB5
:1022F00051EC190BFEF70BF89FED210B41EC190B7C
:1023000053EC102B51EC1B0BFEF701F853EC192B7F
:10231000FDF7F7FF53EC182BFDF7F9FF53EC1B2BE0
:10232000FDF7EFFF53EC1C2BFDF7EBFF9DED0A1BB8
:1023300053EC112BFDF7E8FFBDEC0A8B05B041EC27
:10234000100B30BDFFE753EC1A2B51EC180BFDF7C7
:10235000DEFF53EC1C2BFDF733FF53EC192BFDF77D
:10236000D6FF9DED0A1B53EC112BFDF729FFE3E788
:10237000EC05000000000000495555555555C5BFF6
:10238000000000000000E03F10B553EC102B51ECB2
:10239000100BFDF715FF41EC100B10BD0000000005
:1023A0009FED050B10B553EC102B51EC100BFEF705
:1023B00020F841EC100B10BD0000000000000000F0
:1023C0009FED050B10B553EC102B51EC100BFDF7E6
:1023D0009EFF41EC100B10BD00000000000000103B
:1023E00002E008C8121F08C1002AFAD170477047DE
:1023F000002001E001C1121F002AFBD1704700003C
:102400000149086070470000340000202DE9FF4FAB
:102410008DB09B460F460446002606E025280BD0CB
:102420005A460F999047641C761C20780028F5D1F5
:1024300011B03046BDE8F08F0025A846012298492A
:1024400000E0054314F8013F203B02FA03F0084284
:10245000F7D120782E2817D114F8010F45F0040584
:102460002A280ED06FF02F022078A0F13001092920
:102470000AD808EB880102EB410100EB0108641C5B
:10248000F2E757F8048B641C20786C280DD004DC2C
:102490004C2812D06A2811D104E074280DD07A2873
:1024A0000CD10AE045F4001507E0617845F4801589
:1024B000814202D1641C05F58015641C2278692ACA
:1024C00045D008DC002AB3D0582A69D0632A10D03E
:1024D000642A08D13BE0702A67D0732A13D0752A8A
:1024E0005CD0782A5CD010465A460F999047761CEB
:1024F000D3E017F8040B8DF8000000208DF80100E0
:10250000E946012003E057F8049B4FF0FF306907CC
:102510004FF0000501D40AE06D1C45450DDA8542F7
:10252000FADB19F805100029F6D106E06D1C85428A
:10253000FCDB19F805100029F8D12E4404E019F845
:10254000010B5A460F9990476D1EF8D2A5E00A205C
:102550000021CDE90801C5F3025002280DD001CFBA
:10256000C117031E71F100030DDA4FF0000CD0EB20
:102570000C006CEB01012D2308E0FF1D27F007077D
:10258000F7E80201EDE72B0504D52B238DF8283061
:1025900001233BE0EB0739D02023F7E70A2000E0D6
:1025A00010200021CDE9080107E01020002145F0AE
:1025B0000405CDE908014FF00808C5F302500228D0
:1025C0000FD001CF00214FF0000A2B071FD5702A32
:1025D0000DD0DDE908C38CF0100C5CEA030C0CD0C4
:1025E00015E0FF1D27F00707F7E80201EBE740229F
:1025F0008DF828204FF0010A0BE050EA010306D0C5
:1026000030238DF828308DF8292002239A46582A45
:1026100004D024A20DF120090B9209E026A2F9E7CB
:10262000DDE90823FDF786FF0B9B9B5C09F8013D64
:1026300050EA0102F4D1ADEB0900203008906807A0
:1026400001D44FF001080899884502DDA8EB01008C
:1026500000E000208046002506E00AA85A46405DBA
:102660000F9990476D1C761C5545F6DB04E0302031
:102670005A460F999047761CB8F10001A8F101085D
:10268000F5DC05E019F8010B5A460F999047761CC6
:102690000899481E08900029F4DC641CC5E6000077
:1026A0000928010030313233343536373839616228
:1026B00063646566000000003031323334353637EC
:1026C00038394142434445460000000082B0CDE91C
:1026D000000121F0004001909DED000B02B051EC93
:1026E000100B704770B504460D46E1B20548FFF780
:1026F000CEF900BF40210348FFF7FDF80028F9D0CC
:10270000204670BD00100140FEF757FA4FF4E1304B
:10271000FFF766F8C820FEF7D7FCFEF7F9FE00F0D9
:102720001BF801210548FFF7DAF805A0FFF7B6F915
:1027300006200849087000BFFEE7000000100140B5
:10274000496E69742E2066696E6973686564210D2F
:102750000A0000000100002010B54FF400411748A6
:10276000FEF722FA0120FEF7C3FE8020FEF764FB8D
:102770000020FEF761FB0520FEF7BAFE4FF4004192
:102780000E48FEF713FA0520FEF7B2FE4FF40041A3
:102790000A48FEF709FA0120FEF7AAFE9020FEF78C
:1027A0004BFB0020FEF748FB0520FEF7A1FE4FF48F
:1027B00000410248FEF7FAF910BD0000000802408F
:1027C0004C5555555555A53F7751C1166CC156BF4F
:1027D0009015CB19A001FA3EAD529C804F7E92BE5F
:1027E000C4B1B4BD9EEE213ED43888BEE9FAA8BD7E
:1027F00000004054FB21F93F3163621A61B4D03DBF
:102800000000601A61B4D03D7370032E8A19A33B97
:102810000000002E8A19A33BC14920259A837B39E9
:1028200000000000000000006E83F9A22915444E4C
:10283000D15727FCC0DD34F5999562DB4190433CCC
:10284000AB6351FE61C5BBDE3A6E24B7E0D24D42A8
:10285000EA2E49061C92D1091CEB1DFE3EA729B1A8
:10286000F53582E88444BB2E26709CE9417E5FB436
:1028700039D69139F43953838B5F849C3B28F9BD59
:10288000FF97F81F0F9805DE8B112FEF1F6D0A5A67
:10289000CF7E366DB709CB27663F464F2DEA5F9E48
:1028A000C7BA27757BF1E5EBF739073DEA92528A03
:1028B000B15FFB6B085D8D1FA6F810111111813FF0
:1028C000D561C119A0012ABF7DFEB157E31DC73EE6
:1028D000EB9C2B8AE6E55ABE7CD5CF5A3AD9E53D2A
:1028E000002900080000002038000000E023000854
:1028F000382900083800002000040000F0230008F8
:1029000000FF0000000000000000000001020304BE
:10291000010203040607080902010000010100008A
:1029200000000000000000000000000000000000A7
:0829300000000000000000009F
:040000050800018965
:00000001FF
