:020000040800F2
:10000000C03D0020C101000841420008F93B000842
:100010003D42000891100008DD6400080000000067
:10002000000000000000000000000000A15D0008CA
:10003000412200080000000083020008515E000811
:10004000FB010008FB010008FB010008FB010008A0
:10005000FB010008FB010008FB010008FB01000890
:10006000FB010008FB010008FB010008FB01000880
:10007000FB010008FB010008FB010008FB01000870
:10008000FB010008FB010008FB010008FB01000860
:1000900021110008FB010008FB010008FB0100081A
:1000A000FB010008FB010008FB010008FB01000840
:1000B000FB010008FB010008FB010008FB01000830
:1000C000FB010008FB010008FB010008FB01000820
:1000D000FB010008A9630008DD6300083D64000817
:1000E000FB010008FB010008FB010008FB01000800
:1000F000FB010008FB010008FB010008FB010008F0
:10010000FB010008FB010008FB010008FB010008DF
:10011000FB010008FB010008FB010008FB010008CF
:10012000FB010008FB010008FB010008FB010008BF
:10013000FB010008FB010008FB010008FB010008AF
:10014000FB010008FB010008FB010008FB0100089F
:10015000FB010008FB010008FB010008FB0100088F
:10016000FB010008FB010008FB010008FB0100087F
:10017000FB010008FB010008FB0100080000000073
:10018000FB010008FB010008FB010008FB0100085F
:10019000FB010008FB010008FB010008FB0100084F
:1001A000FB010008FB010008FB010008DFF80CD090
:1001B00000F022FC0048004705810008C03D0020F7
:1001C0000E488047DFF83800016841F47001016093
:1001D000BFF34F8FDFF82C00016821F04041016030
:1001E000BFF36F8F08480047FEE7FEE7FEE7FEE734
:1001F000FEE7FEE7FEE7FEE7FEE7FEE7715E0008CA
:1002000088ED00E034EF00E0AD010008EFF3098174
:1002100041B1F1EE101A40F8041D20ED200A2949E1
:100220000A6810607047B0EC200A02C8E1EE101AAC
:1002300025490A6810607047EFF3108072B6704766
:1002400080F31088704721484FF6FF71017000203D
:1002500080F309881E48016881F308881D48012140
:1002600001701D484FF08051016062B6FEE71A48E8
:100270004FF080510160704717484FF08051016086
:10028000704772B6EFF3098028B1203880E8F00F8C
:100290000C490968086000B5104880475DF804EB18
:1002A0000F4810490A780270064807490A68026038
:1002B000106890E8F00F203080F309884EF0F40EBB
:1002C00062B67047280100203001002022ED00E0D6
:1002D000480100202201002004ED00E0E14D00086B
:1002E00017010020180100202DE9F05F05460020CD
:1002F00092469B4688460646814640241BE0284697
:1003000041464746224600F0A8FA53465A46C01ACC
:10031000914110D311461846224600F08FFA2D1A4B
:1003200067EB01084F4622460120002100F086FAC3
:1003300017EB00094E41201EA4F10104DFDC484602
:1003400031462A464346BDE8F09FD2B201E000F8AC
:10035000012B491EFBD270470022F6E710B5134669
:100360000A4604461946FFF7F0FF204610BD421E1C
:1003700012F8013F002BFBD111F8013B02F8013BC1
:10038000002BF9D17047421C10F8011B0029FBD14A
:10039000801A70472DE9FE4F804681EA0300C00FA6
:1003A0000C46009021F0004123F00045B8EB02001C
:1003B000A94105D24046214690461C460B460246BE
:1003C00023F00040104347D0270DC7F30A00C3F3C2
:1003D0000A510290401A019040286BDAC3F31300CF
:1003E00040F4801B0098924620B10023D2EB030A10
:1003F00063EB0B0B01985946C0F14002504600F0E8
:100400001DFA06460D4650465946019A00F035FA47
:1004100010EB08006141002487EA115284EAE77377
:100420001A4340D0009A62B3019A012A4FEA075258
:1004300015DC001B61EB02014FF0004202EA07529B
:10044000CDE90042001C41F5801132462B4600F0F8
:100450006CFA03B0BDE8F08F40462146F9E7001B77
:1004600061EB0201001C41F5801300185B4120186C
:10047000A2F5001747EB030140EAD570B6196D41AC
:1004800011E06D084FEA360645EAC0754FEA07529B
:10049000001B61EB0201001C41F5801149084FEA85
:1004A00030000019514132462B4603B0BDE8F04FF1
:1004B00000F02CBA0098012240000023D0EB020289
:1004C00063EBE073009821464FEAE074B8EB00005C
:1004D00061EB0401E9E783F000435BE781F0004151
:1004E00058E72DE9FE4F81EA030404F0004421F0AF
:1004F000004100944FF0000B23F0004350EA010448
:100500005ED052EA03045BD0C3F30A54C1F30A5528
:100510002C44A4F2F3340194A0FB0254C1F3130160
:1005200041F48011C3F3130343F4801301FB02442D
:1005300000FB034E840A970A44EA815447EA835732
:10054000A4FB076802958D0A05FB07854FEA932CEB
:1005500004FB0C542705029D4FEA065847EA16375C
:10056000B5EB08056EEB070C870E920E47EA811774
:1005700042EA8312A7FB0201B6EB0B0164EB000415
:100580002B0D43EA0C335E1844EB1C50DA465146FF
:10059000E7FB0201C5F313044FEA0B3343EA14539C
:1005A0004FEA0432019C43EA0603A4F10C040294CE
:1005B000009CCDE900B400F0B8F903B0BDE8F08FBD
:1005C00000200146F9E72DE9F04D81EA030404F02B
:1005D000004B21F0004514464FF0000A23F0004183
:1005E00050EA050220D054EA01021DD0C5F30A5793
:1005F0000246C5F31303C1F31300C1F30A5640F4D6
:10060000801543F48013A7EB0608101BD64608F2AA
:10061000FD3873EB050002D308F1010801E09218E0
:100620005B41B8F1000F03DA00200146BDE8F08D10
:1006300000204FF48011064684460EE0171B73EB32
:10064000050705D3121B63EB050306434CEA010CB7
:1006500049084FEA300092185B4150EA0107EDD19A
:1006600052EA030012D082EA040083EA050108433B
:1006700005D0101BAB4106D20122002306E0002268
:100680004FF0004302E06FF0010253101AEB060036
:100690004CEB085110EB0A0041EB0B01BDE8F04DAB
:1006A00000F034B90EB5C10F80EAE0700844CA0703
:1006B000002140F233438DE80E000A460B4600F05D
:1006C00034F903B000BD0EB540F233410291002170
:1006D000CDE900110A460B4600F027F903B000BD32
:1006E00070B5C1F30A5201F000450024C1F31301B3
:1006F00040F2FF3341F480119A4201DA002070BDCC
:1007000040F233439A42A2F2334203DC524200F0F9
:10071000A4F800E090402C43F1D0404270BDC1F3FA
:100720000A5210B5C1F3130140F2FF3341F48011B6
:100730009A4201DA002010BD40F233439A42A2F2FD
:10074000334203DC524200F088F810BD904010BDE7
:1007500000F0004230F000400AD0C10D01F5607198
:10076000C0F3160042EA0151C20840071143704726
:10077000002001467047000030B5041E71F10004EE
:1007800004DB4FF00044404264EB0101141E73F19E
:10079000000405DB1C464FF00043524263EB0403A8
:1007A0008B4208BF824230BD30B5041E71F1000497
:1007B00004DB4FF00044404264EB0101141E73F16E
:1007C000000405DB1C464FF00043524263EB040378
:1007D000994208BF904230BD01F0004330B421F08F
:1007E000004150EA010206D00A0DA2F56072C1F381
:1007F0001301002A02DC30BC00207047440F44EA99
:10080000C104C100E01830BC00EBC25000F047B892
:1008100030B50B46014600202022012409E021FAD0
:1008200002F59D4205D303FA02F5491B04FA02F5CD
:100830002844151EA2F10102F1DC30BD202A04DBA0
:10084000203A00FA02F1002070479140C2F12003E3
:1008500020FA03F3194390407047202A04DB203A22
:1008600021FA02F00021704721FA02F3D040C2F1D0
:1008700020029140084319467047202A06DBCB1717
:10088000203A41FA02F043EAE07306E041FA02F34B
:10089000D040C2F120029140084319467047002918
:1008A000A8BF7047401C490008BF20F001007047F6
:1008B00010B4B0FA80FC00FA0CF050EA010404BF56
:1008C00010BC704749B1CCF1200421FA04F411FAAC
:1008D0000CF118BF012121430843A3EB0C01CB1DF0
:1008E0004FEA00614FEA102042BF002010BC704761
:1008F00000EBC35010440029A4BF10BC7047401C3B
:10090000490008BF20F0010010BC704710B5141E4C
:1009100073F1000408DA401C41F1000192185B41B8
:100920001A4301D120F0010010BD2DE9F04D92468F
:100930009B4611B1B1FA81F202E0B0FA80F22032A6
:100940009046FFF77BFF04460F4640EA0A0041EA63
:100950000B0153465A46084313D0114653EA01008F
:1009600019D0C8F140025046FFF777FF05460E4602
:10097000504659464246FFF761FF084305D0012023
:1009800004E020463946BDE8F08D0020054346EAE4
:10099000E0762C4337430A986305E40AA0EB08008D
:1009A0000022FD0A44EA47540A3002D500200146DD
:1009B000E9E7010510196941DDE9084500196941B8
:1009C000BDE8F04DA2E7C1F30A52C1F3130140F2B2
:1009D000FF3341F480119A4202DA00200146704749
:1009E00040F233439A42A2F2334202DC5242FFF712
:1009F00034BFFFF723BF0000064C074D06E0E06858
:100A000040F0010394E8070098471034AC42F6D355
:100A1000FFF7D0FBF89000081891000830B58C184B
:100A200010F8012B12F00F0301D110F8013B12094D
:100A300006D110F8012B03E010F8015B01F8015B0F
:100A40005B1EF9D101E001F8013B521EFBD1A1422E
:100A5000E6D3002030BD000010B500224FF4006145
:100A6000034802F0C9F9232000F0A0F810BD0000EF
:100A70000004024070B52DED108BB0EE408AF0EE10
:100A8000608A00269FED3C0BB0EE40FAF0EE60FA73
:100A9000002500249FED3A0B53EC102B51EC180B62
:100AA000FFF76AFE06D251EC180B81F0004141ECD1
:100AB000180B01263448007B18B13348007B03280B
:100AC00002D19FED329B14E02F48007B012803D018
:100AD0002D48007B042802D19FED2E9B09E02A4877
:100AE000007B022803D02848007B052801D19FED18
:100AF0002B9B2548007B38B12348007B012803D07D
:100B00002148007B022802D14FF4805501E04FF4C8
:100B100000652846FFF7D7FD41EC1E0B53EC182B60
:100B2000FFF7DFFC41EC1D0B9FED130B53EC102B7B
:100B3000FFF749FD41EC1C0B53EC192BFFF743FD6C
:100B400041EC1B0B9FED170B53EC102BFFF722FC16
:100B500041EC1A0BFFF7E3FD84B216B1281B84B2F7
:100B600001E0281984B24FF6FF7000EA0414204611
:100B7000BDEC108B70BD00000000000000000440C0
:100B80000000000000000000D00000200000000075
:100B900000000040000000000000104048E17A140E
:100BA000AE471140000000000000E03F00BF011E02
:100BB000A0F10100FBD1704700B587B000BF002055
:100BC00001902B48006840F002002949086008465F
:100BD000006800F00200019000BF00BF4FF43C40ED
:100BE000029001200390002004900320059002A9A8
:100BF000204801F0F3FF4FF4804002900020039062
:100C0000049002A91B4801F0E9FF00224FF42041A3
:100C1000184802F0F1F801224FF4E051154802F0B3
:100C2000EBF8012001F0CDFFFFF716FF012001F0E6
:100C3000C8FF04201049087300F088F80F4800F03E
:100C400041F8012001F0BDFF9FED0D0B0A4880ED3A
:100C5000000B4FF4003008498860886891ED001B54
:100C6000B0EE410AF0EE610A00F00EF807B000BDE8
:100C70003038024000040240D0000020050010007F
:100C8000A4703D0AD7A3FA3F70B52DED028BB0EEEC
:100C9000408AF0EE608A04460025094880ED008B0A
:100CA0008460B0EE480AF0EE680AFFF7E3FE0546FE
:100CB00044EA050000F006F8BDEC028B70BD0000B0
:100CC000D000002070B5044600224FF480511E4829
:100CD00002F092F82320FFF769FF002525E00122AA
:100CE0005103194802F088F82320FFF75FFF04F44E
:100CF000000028B10122D103134802F07DF805E07D
:100D000000224FF40041104802F076F82320FFF74C
:100D10004DFF00224FF400510B4802F06DF82320E4
:100D2000FFF744FF6400681CC5B2182DD7DB2320F1
:100D3000FFF73CFF01221103034802F05DF8232076
:100D4000FFF734FF70BD00000004024010B50649F3
:100D5000097B41F40020FFF7B5FF0349097B41F40B
:100D60002020FFF7AFFF10BDD000002070B5044673
:100D7000002544F4014040F0C0052946012000F060
:100D800048F870BD2DE9F04105460026002702F025
:100D9000FFFF902002F0C8FF03F04CF80446012C3E
:100DA00001D103F01FF8284602F0BEFF03F042F81D
:100DB0000446012C01D103F015F803F013F802F0FA
:100DC000E7FF912002F0B0FF03F034F80446012C55
:100DD00001D103F007F8204602F074FF064602F046
:100DE0000DFF204602F06EFF074602F007FF02F0FB
:100DF000F9FF47EA0620BDE8F08110B50020FFF7B3
:100E0000C1FF00B210BD10B504462046FFF7AEFF8B
:100E100010BD70B506460D46002402F0B9FF9020C3
:100E200002F082FF03F006F80446012C01D102F023
:100E3000D9FF304602F078FF02F0FCFF0446012C97
:100E400001D102F0CFFF280A02F06EFF02F0F2FF9C
:100E50000446012C01D102F0C5FFE8B202F064FFA4
:100E600002F0E8FF0446012C01D102F0BBFF02F0C2
:100E7000B9FF70BD70477047704770477047704743
:100E80007047704738B5002403F050F94FF4E12063
:100E900007F0CEFF4FF4E13007F0E0FF03F064F815
:100EA00003F040F84FF4E13007F0EEFF28480078F7
:100EB00020B94FF00061274803F05AF902F0D4FE40
:100EC000002006234FF4E0224FF4A001009000F030
:100ED000E1F8FFF771FE00F0E7FA04F045FF03F0D8
:100EE000E5F81D4804F0F8FD1C4804F0F5FD002469
:100EF00016E0642006F0BCFF00201949086019497B
:100F0000C1F88002642006F0B3FF01201449086094
:100F10001449C1F88002601C84B2192C00DB05E082
:100F20000421114801F060FF0028E2D000BF192C15
:100F300002DB05F095FA09E0012C05DB01200449EC
:100F4000087002F0AFFF01E002F0ACFF38BD000016
:100F500018000020B8640240C80300201C040020D0
:100F600084024142000041420008024010B52DEDCC
:100F7000068B04464248007800F0010090B994EDD9
:100F8000042BB0EE420AF0EE620A94ED002BB0EEB4
:100F9000421AF0EE621A53EC102B51EC110BFFF7D2
:100FA000EBFB03D80020BDEC068B10BD94ED041BB9
:100FB000B0EE410AF0EE610A9FED321B53EC112BAB
:100FC00051EC100BFFF7FFFA41EC1A0B94ED001BEC
:100FD000B0EE410AF0EE610A53EC102BFFF77EFAF7
:100FE00041EC190B94ED041BB0EE410AF0EE610ADE
:100FF0009FED241B53EC112B51EC100BFFF7E3FA80
:1010000041EC1A0B94ED001BB0EE410AF0EE610AC0
:1010100053EC102BFFF7BEF941EC180B1B4890ED79
:10102000000A10EE100AFFF793FB41EC1A0B53EC89
:10103000192BFFF7A1FB09D294ED061BB0EE410A74
:10104000F0EE610A0020FFF71FFE16E00F4890ED5A
:10105000000A10EE100AFFF77BFB41EC1A0B53EC71
:10106000182BFFF7A1FB08D294ED081BB0EE410A44
:10107000F0EE610A0020FFF707FE012093E7000071
:10108000140000200000000000000040E4000020E8
:1010900000BFFEE72DE9F0418AB004460D46164632
:1010A0001F46DDF840801A481A4908601A4808634C
:1010B0001A48486308464760C0F80880C460066163
:1010C000456100218161C16101620121416200210C
:1010D0008162C16201F034FA18B101200AB0BDE8A2
:1010E000F081002000900190029003900490059000
:1010F00006900120079008900E2009906946054847
:1011000001F0A0F808B10220E8E70020E6E70000BF
:1011100000640040E81A0020281B0020441B002027
:1011200010B503F0DBF8074801F024F90548006822
:10113000406940F0020003490968486103F0E0F8A3
:1011400010BD0000E81A002070B504460D46206866
:1011500000F5D87000EB0510006800F00400616B2A
:101160008860606B806860B9206800F5D87000EB1B
:101170000510006840F2FF7101EA5050616B086091
:101180000BE0206800F5D87000EB051000686FF0E8
:10119000604101EAD000616B4860206800F5D870BA
:1011A00000EB0510006800F00200616BC860206869
:1011B00000F5D87000EB0510406800F00F00616B7F
:1011C0000861206800F5D87000EB05104068C0F396
:1011D0000720616BC861206800F5D87000EB05102E
:1011E0008068616B0875206800F5D87000EB051009
:1011F0008068010A606B4175206800F5D87000EBCB
:1012000005108068010C606B8175206800F5D8704E
:1012100000EB05108068000E616BC875206800F552
:10122000D87000EB0510C068C1B2606B0176206811
:1012300000F5D87000EB0510C068010A606B4176BC
:10124000206800F5D87000EB0510C068010C606BD9
:101250008176206800F5D87000EB0510C068000E9C
:10126000616BC8764DB920202168C860206840694C
:1012700020F002002168486108E020202168086110
:101280002068406920F010002168486194F8380017
:1012900022281DD12068406920F4807021684861AF
:1012A0002068406920F40070216848612068406926
:1012B00020F48060216848612068406920F4006063
:1012C000216848612068406920F400402168486135
:1012D00094F83800322803D1122084F8380002E054
:1012E000012084F83800204601F04EFA002070BD3D
:1012F00010B504462068406920F00100216848616B
:1013000094F8380012281DD12068406920F48070BC
:10131000216848612068406920F4007021684861B4
:101320002068406920F48060216848612068406935
:1013300020F40060216848612068406920F4004082
:101340002168486194F83800322803D1222084F8BB
:10135000380002E0012084F83800204601F064FBE8
:10136000002010BD2DE9F0412DED048B4FF0000859
:10137000FF2400250026002700203E490870FEF7C4
:101380005BFF80462F2003F0D7FC102003F0D4FC35
:101390004046FEF755FF00203749086013E002F091
:1013A00079FD0F2006F064FD344800680544334899
:1013B00040680644314880680744601EC4B2012C6E
:1013C00001D102F073FE002CE9DC2846FFF76AF930
:1013D00041EC190B9FED2A0B53EC102BFFF7F3F8A0
:1013E00041EC180BFFF77CF9274908603046FFF7FE
:1013F00059F941EC190B9FED220B53EC102BFFF721
:10140000E2F841EC180BFFF76BF91F4948603846CA
:10141000FFF748F941EC190B9FED190B53EC102B1A
:10142000FFF7D1F841EC180BFFF75AF9164988601D
:101430000120114908609FED150B164880ED000B47
:10144000154880ED000B154880ED000B144880ED29
:10145000000B144880ED000B102003F0B3FA2F208E
:1014600003F0B0FA012003490870BDEC048BBDE81D
:10147000F08100001A00002080024142D81A0020AA
:101480000000000000E06F40A819002000000000EC
:101490000000000040000020380000203000002044
:1014A00028000020200000200320084981F8600067
:1014B0000321064880F8C8109FED050B80ED160B40
:1014C0009FED030B80ED300B70470000701800207B
:1014D00000000000000000009FED0A0B0B4880EDAB
:1014E000120B9FED080B80ED140B9FED060B80EDAA
:1014F000100B9FED040B80ED0C0B9FED020B80EDAC
:101500000E0B70470000000000000000B81900201A
:101510000146087810381823B0FBF3F20848805CC5
:101520004865032A05D908686FF30900001D08659E
:1015300003E008686FF309000865086D7047000054
:10154000BD8E000830B50468246824F48024056842
:101550002C60046863608468402C04D10468A26035
:101560000468E16003E00468A1600468E26030BDE3
:1015700030B52DED028B81B004460D4628785528F4
:101580007ED005DC58B101287BD002287AD1A2E2B6
:10159000562878D0572877D05828F7D1FCE3FE4852
:1015A00090F8600030B1012851D002286DD0032896
:1015B0006CD117E121780906627801EB0241A2782B
:1015C00001EB0221E2788818FFF76CF841EC180B68
:1015D0009FEDF20B53EC102BFEF7F5FFEE4AC2E93C
:1015E000100121790906627901EB0241A27901EB30
:1015F0000221E2798818FFF755F841EC180B9FEDAE
:10160000E70B53EC102BFEF7DEFF0A460146E248DB
:10161000C0E91212217A0906627A01EB0241A27A2C
:1016200001EB0221E27A8818FFF73CF841EC180B35
:101630009FEDDA0B53EC102BFEF7C5FFD64AC2E93B
:1016400014019FEDD80BD94880ED000BE8E021781C
:101650000906627801EB0241A27801EB0221E278EF
:101660008818FFF71FF841EC180B9FEDCC0B53ECDB
:10167000102BFEF7A8FFC84A03C22179090606E02D
:10168000D5E3CFE026E2E7E3F1E349E0C7E06279A2
:1016900001EB0241A27901EB0221E2798818FFF700
:1016A00001F841EC180B9FEDBD0B53EC102BFEF72E
:1016B0008AFFB94AC2E90201217A0906627A01EB7E
:1016C0000241A27A01EB0221E27A8818FEF7EAFFD2
:1016D00041EC180B9FEDB10B53EC102BFEF773FF91
:1016E000AD4AC2E90401217B0906627B01EB02419C
:1016F000A27B01EB0221E27B8818FEF7D3FF41ECCD
:10170000180B9FEDA60B53EC102BFEF75CFFA24AC3
:10171000C2E906019FEDA30BA44880ED000B7FE01A
:1017200021780906627801EB0241A27801EB0221DF
:10173000E2788818FEF7B6FF41EC180B9FED970B87
:1017400053EC102BFEF73FFF934AC2E908012179C1
:101750000906627901EB0241A27901EB0221E279EB
:101760008818FEF79FFF41EC180B9FED8C0B53EC94
:10177000102BFEF728FF884AC2E90A01217A0906E0
:10178000627A01EB0241A27A01EB0221E27A881827
:10179000FEF788FF41EC180B9FED800B53EC102BEC
:1017A000FEF711FF7C4AC2E90C01217B0906627B2E
:1017B00001EB0241A27B01EB0221E27B8818FEF7DC
:1017C00071FF41EC180B9FED750B53EC102BFEF7DE
:1017D000FAFE714AC2E90E019FED720B734880ED6B
:1017E000000B1DE021780906627801EB0241A27826
:1017F00001EB0221E2788818FEF754FF41EC180B48
:101800009FED660B53EC102BFEF7DDFE624AC2E93A
:1018100016019FED640B654880ED000B00E000BFF2
:1018200000BF57E15C4890F8C80030B1012856D09D
:1018300002287CD003287BD12DE12178090662782B
:1018400001EB0241A27801EB0221E2788818FEF751
:1018500029FF41EC180B9FED510B53EC102BFEF7B9
:10186000B2FE4D4A6832C2E9100121790906627957
:1018700001EB0241A27901EB0221E2798818FEF71F
:1018800011FF41EC180B9FED450B53EC102BFEF7AD
:101890009AFE0A46014640486830C0E91212217A91
:1018A0000906627A01EB0241A27A01EB0221E27A97
:1018B0008818FEF7F7FE41EC180B9FED380B53EC40
:1018C000102BFEF780FE0A46014633486830C0E917
:1018D00014129FED340B364880ED000BF9E02178AF
:1018E0000906627801EB0241A27801EB0221E2785D
:1018F0008818FEF7D7FE41EC180B9FED280B53EC30
:10190000102BFEF760FE244AC2E91A01217909066C
:10191000627901EB0241A27901EB0221E279881898
:10192000FEF7C0FE41EC180B9FED1C0B01E04AE0F6
:10193000CEE053EC102BFEF746FE174AC2E91C011D
:10194000217A0906627A01EB0241A27A01EB0221B7
:10195000E27A8818FEF7A6FE41EC180B9FED0F0BFC
:1019600053EC102BFEF72FFE0B4AC2E91E01217B20
:101970000906627B01EB0241A27B01EB0221E27BC3
:101980008818FEF78FFE41EC180B9FED040B53EC0B
:10199000102BFEF718FE0DE070180020000000006C
:1019A0000000594000000000000000006800002016
:1019B00070000020F94AC2E906011FED060BF84845
:1019C00080ED000B85E021780906627801EB024189
:1019D000A27801EB0221E2788818FEF763FE41EC61
:1019E000180B1FED120B53EC102BFEF7ECFDEB4A1E
:1019F000C2E9080121790906627901EB0241A27965
:101A000001EB0221E2798818FEF74CFE41EC180B3D
:101A10001FED1E0B53EC102BFEF7D5FD0A460146B9
:101A2000DE48C0E90A12217A0906627A01EB024116
:101A3000A27A01EB0221E27A8818FEF733FE41EC2C
:101A4000180B1FED2A0B53EC102BFEF7BCFD0A46BA
:101A50000146D248C0E90C12217B0906627B01EBEA
:101A60000241A27B01EB0221E27B8818FEF71AFEFD
:101A700041EC180B1FED370B53EC102BFEF7A3FDB9
:101A80000A460146C548C0E90E121FED3A0BC4488C
:101A900080ED000B1DE021790906627901EB02411E
:101AA000A27901EB0221E2798818FEF7FBFD41ECF7
:101AB000180B1FED460B53EC102BFEF784FDB74AB5
:101AC000C2E916011FED490BB54880ED000B00E09F
:101AD00000BF00BFDEE2B148683890F8300130B195
:101AE000012864D002287DD003287CD15CE12178D4
:101AF0000906627801EB0241A27801EB0221E2784B
:101B00008818FEF7CFFD41EC180B1FED5C0B53EC72
:101B1000102BFEF758FDA14AC2E91001683AC2E94C
:101B2000100121790906627901EB0241A27901EBEA
:101B30000221E2798818FEF7B5FD41EC180B1FED84
:101B4000690B53EC102BFEF73EFD0A460146934805
:101B5000C0E912126838C0E91212217A0906627AC5
:101B600001EB0241A27A01EB0221E27A8818FEF72A
:101B700099FD41EC180B1FED770B53EC102BFEF782
:101B800022FD0A4601468548C0E914126838C0E9BA
:101B90001412002180F8C81080F860101FED7F0B30
:101BA0007F4880ED000B7F4880ED000B3DE1217800
:101BB0000906627801EB0241A27801EB0221E2788A
:101BC0008818FEF76FFD41EC180B1FED8C0B53ECE2
:101BD000102BFEF7F8FC714A683AC2E91A0103C2F9
:101BE000217901E05CE01FE10906627901EB024125
:101BF000A27901EB0221E2798818FEF753FD41EC4E
:101C0000180B1FED9A0B53EC102BFEF7DCFC634A0C
:101C1000683AC2E91C01C2E90201217A0906627A26
:101C200001EB0241A27A01EB0221E27A8818FEF769
:101C300039FD41EC180B1FEDA70B53EC102BFEF7F1
:101C4000C2FC564A683AC2E91E01C2E90401217B7E
:101C50000906627B01EB0241A27B01EB0221E27BE0
:101C60008818FEF71FFD41EC180B1FEDB40B53EC69
:101C7000102BFEF7A8FC494AC2E90601683AC2E9FE
:101C800006010121104680F8C81080F860101FED91
:101C9000BB0B434880ED000B424880ED000BC4E0D5
:101CA00021780906627801EB0241A27801EB02215A
:101CB000E2788818FEF7F6FC41EC180B1FEDC90B13
:101CC00053EC102BFEF77FFC344AC2E90801683A56
:101CD000C2E9080121790906627901EB0241A27982
:101CE00001EB0221E2798818FEF7DCFC41EC180BCD
:101CF0001FEDD60B53EC102BFEF765FC0A46014690
:101D00002648C0E90A126838C0E90A12217A090691
:101D1000627A01EB0241A27A01EB0221E27A881891
:101D2000FEF7C0FC41EC180B1FEDE40B53EC102B3D
:101D3000FEF749FC0A4601461848C0E90C1268380B
:101D4000C0E90C12217B0906627B01EB0241A27BF8
:101D500001EB0221E27B8818FEF7A4FC41EC180B92
:101D60001FEDF20B53EC102BFEF72DFC0A4601463B
:101D70000A48C0E90E126838C0E90E12022180F844
:101D8000C81080F860101FEDF90B054880ED000BBE
:101D9000044880ED000B48E06DE10000D8180020F9
:101DA000700000206800002021780906627801EBAD
:101DB0000241A27801EB0221E2788818FEF772FC5A
:101DC00041EC180B9FEDB60B53EC102BFEF7FBFB11
:101DD000B54AC2E9160121790906627901EB02418F
:101DE000A27901EB0221E2798818FEF75BFC41EC55
:101DF000180B9FEDAB0B53EC102BFEF7E4FBAA4A3C
:101E00006832C2E916010320A74981F86000032166
:101E1000A54880F8C8109FEDA50BA64880ED000BE3
:101E2000A54880ED000B00E000BF00BF32E1207844
:101E3000432810D1607841280DD1A07852280AD1CA
:101E4000E0784C2807D12079492804D160794228CC
:101E500001D1FFF787FA1DE1207800F0800038B14A
:101E60009648007860B901209449087008E03FE086
:101E70009248007820B1FFF72FFB00208F490870AF
:101E8000207800F0400018B101208D49087002E070
:101E900000208B490870207800F02000D8B19FED19
:101EA000830B814880ED160B9FED800B80ED300B8E
:101EB00003207D4981F8600003217B4880F8C81029
:101EC00000209FED7A0BFEF7DFFE4FF400309FED10
:101ED000770BFEF7D9FE207800F0100008B1FFF76D
:101EE00041FA207800F0080008B101F0A3F8D1E031
:101EF0002078E8BB00207349087060788DF80000F6
:101F0000A0788DF80100E0788DF8020020798DF836
:101F100003009DED000A10EE101A0846FEF718FCAB
:101F2000694AC2E90401607A8DF80000A07A8DF850
:101F30000100E07A8DF80200207B8DF803009DED12
:101F4000000A10EE101A0846FEF702FC5E4AC2E9CB
:101F50000601607B8DF80000A07B8DF80100E07B1E
:101F60008DF80200207C8DF803009DED000A00E052
:101F700021E010EE101A0846FEF7EAFB524AC2E9C9
:101F80000801607C8DF80000A07C8DF80100E07CE9
:101F90008DF80200207D8DF803009DED000A10EE03
:101FA000101A0846FEF7D4FB474AC2E90A01607DD1
:101FB000114608705EE0207801285BD14149087025
:101FC00060788DF80000A0788DF80100E0788DF839
:101FD000020020798DF803009DED000A10EE101A22
:101FE0000846FEF7B5FB394A03C260798DF8000058
:101FF000A0798DF80100E0798DF80200207A8DF843
:1020000003009DED000A10EE101A0846FEF7A0FB33
:102010002E4AC2E90401607A8DF80000A07A8DF89A
:102020000100E07A8DF80200207B8DF803009DED21
:10203000000A10EE101A0846FEF78AFB234AC2E98E
:102040000601607B8DF80000A07B8DF80100E07B2D
:102050008DF80200207C8DF803009DED000A10EE43
:10206000101A0846FEF774FB184AC2E90801607DA1
:10207000114608720EE09FED0D0B154880ED000B28
:1020800094ED000A10EE101A0846FEF761FB114AA3
:1020900003C200BF00BF01B0BDEC028B30BD000029
:1020A00000000000000059407018002000000000EF
:1020B00000000000700000206800002019000020CF
:1020C0001800002078000020B8190020881A00208D
:1020D000400000208000002038B5044696E04F48BC
:1020E000007838B994F85000AA2803D101204B4950
:1020F00008708BE049480078012807D194F8500017
:10210000AA2803D10220454908707FE0434800789F
:10211000022807D103204149087094F85000404933
:10212000087073E03D480078032807D104203B493C
:10213000087094F850003B49087067E03748007811
:10214000042835D1052035490870354800783649CE
:10215000098888421ED13348007830B101280AD05E
:1021600002280ED0552813D111E094F850002F49C1
:1021700081F860000DE094F850102C4880F8C810E9
:1021800007E094F85010294880F8301101E000E091
:1021900000BF03E094F850002549087004F1500096
:1021A00001F09CFF234908700020234908702DE0AE
:1021B0001A480078052826D194F850101E48027855
:1021C0000078401C1C4B18701C488154184600783D
:1021D00018490978884219D1002010490870104820
:1021E000007811490988884204D10E491348FFF745
:1021F000BFF90BE00F48114B0D4A0A4900900848FF
:1022000003F09EFE02E0002004490870204603F01F
:1022100019FC00287FF463AF38BD00005B0000208C
:10222000600000205D0000201600002070180020D3
:102230005F0000205E0000205C00002050030020B2
:102240007047000030B5034600220C7D012000FAE3
:1022500004F24648006840F00100444C20602046EB
:10226000006820F47C502060204600684C6A40EAF8
:1022700004203E4C20603D481C30006890433B4C9D
:102280001C342060C869D8B938480C3000689043C5
:10229000364C0C342060888880B28C8940EA044433
:1022A000324840304D6940F83540088880B20C898A
:1022B00040EA04442D4840304D6900EBC5004460BD
:1022C000C86901281BD129480C3000681043274CED
:1022D0000C342060888880B20C8840EA044423488B
:1022E00040304D6940F83540888980B20C8940EA19
:1022F00004441E4840304D6900EBC50044608869C5
:1023000038B91A48001D00689043184C241D2060FD
:1023100006E01648001D00681043144C241D206080
:10232000086930B911481430006890430F4C1434D8
:1023300020600869012806D10C4814300068104359
:102340000A4C14342060086A012806D107481C3062
:1023500000681043054C1C3420600448006820F0DD
:102360000100024C2060002030BD000000660040EB
:10237000704700002DE9F0410446002500260027A3
:102380002068406900F0010018B32068806869493E
:102390000840884201D1012000E000200546206865
:1023A000806865490840884201D1012000E0002092
:1023B00006462068806861490840884201D10120B2
:1023C00000E0002007460DB906B917B12046FEF718
:1023D0008FFF2068C06800F0030520684069C0F3E3
:1023E000400625B11EB100212046FEF7ADFE206853
:1023F000006900F0030520684069C0F3001625B1AC
:102400001EB101212046FEF79FFE2068806900F082
:10241000010520684069C0F3002620684069C0F3C8
:10242000C0372DB126B11FB1E06B40F00100E06371
:1024300020688069C0F3400520684069C0F34026E9
:1024400020684069C0F3C0372DB126B11FB1E06BE1
:1024500040F00200E06320688069C0F380052068D6
:102460004069C0F3802620684069C0F3C0372DB1B1
:1024700026B11FB1E06B40F00400E0632068806982
:1024800000F0700008B9012000E000200546206837
:102490004069C0F3C02620684069C0F3C03795BBCF
:1024A0008EB387B32068806900F07005402D1BD083
:1024B00006DC102D09D0202D0CD0302D24D10EE0BB
:1024C000502D16D0602D1FD118E0E06B40F00800B1
:1024D000E0631AE0E06B40F01000E06315E0E06BB1
:1024E00040F02000E06310E0E06B40F04000E0636B
:1024F0000BE0E06B40F08000E06306E0E06B40F44E
:102500008070E06301E007E000BF00BF20688069E1
:1025100020F0700021688861E06B40B104202168E0
:102520004860012084F838002046FFF721FFBDE80D
:10253000F081000003000004000300080000031005
:1025400070B50446032600250CB9012070BD94F82F
:10255000380028B9002084F83900204600F0D0F86F
:10256000022084F838002068006820F0020021680A
:1025700008602068006840F001002168086000F0F1
:1025800041FC05460EE000F03DFC401B0A2809D93D
:10259000032084F8380000BF002084F8390000BF11
:1025A0000320D3E72068406800F001000028EAD04B
:1025B0002068406800F0010008B9002692E0A06998
:1025C000012806D12068006840F08000216808607A
:1025D00005E02068006820F0800021680860E0695C
:1025E000012806D12068006840F04000216808609A
:1025F00005E02068006820F0400021680860206A3B
:10260000012806D12068006840F020002168086099
:1026100005E02068006820F0200021680860606AFA
:10262000012806D12068006840F010002168086089
:1026300005E02068006820F0100021680860A06AAA
:10264000012806D12068006840F008002168086071
:1026500005E02068006820F0080021680860E06A52
:10266000012806D12068006840F004002168086055
:1026700005E02068006820F0040021680860D4E9C3
:102680000201084321690843616908436168491EE2
:1026900008432168C8612068006820F001002168B3
:1026A000086000F0AFFB05460EE000F0ABFB401BFE
:1026B0000A2809D9032084F8380000BF002084F8D4
:1026C000390000BF032041E72068406800F00100A6
:1026D0000028EAD12068406800F0010008B1002617
:1026E00000E00126012E06D10020E063012084F8DD
:1026F000380000202AE7042084F83800012025E76C
:1027000010B586B0044600BF002000901B4800684A
:1027100040F00070194908600846006800F0007039
:10272000009000BF00BF00BF002000901348103889
:10273000006840F00100114910390860084600683F
:1027400000F00100009000BF00BF4FF4C0500190A6
:10275000022002900120039002200490092005909D
:1027600001A9074800F03AFA06480068406940F0BD
:10277000020004490968486106B010BD40380240B3
:1027800000000240E81A002070B5054600240C48FD
:102790000068406940F0020009490968486108E0A2
:1027A0000748406B14302246641C815C054803F0E6
:1027B0006FF90348406B0069A042F1D870BD00007A
:1027C000E81A00201C0400202DE9F04104460E46C2
:1027D0000525002700BF94F83900012802D1022006
:1027E000BDE8F081012084F8390000BF94F838007A
:1027F000222803D1322084F8380002E0122084F825
:1028000038002068806800F08060B0F1806F01D1EE
:10281000002512E02068806800F00060B0F1006FD1
:1028200001D1012509E02068806800F08050B0F1F6
:10283000805F01D1022500E00425042D7ED02068B0
:1028400000F5C07000EB0510006800F00101206881
:1028500000F5C07000EB05100160206B806898B92E
:10286000206800F5C07000EB05100068216BC96896
:10287000226B128841EA42510843216801F5C07178
:1028800001EB0511086015E0206800F5C07000EB51
:1028900005100068216B8968226B526841EAC20109
:1028A000226BD26811430843216801F5C07101EB26
:1028B00005110860206B007C00F00F00216B08619F
:1028C000206800F5C07000EB0510406820F00F0193
:1028D000206800F5C07000EB05104160206800F52D
:1028E000C07000EB05104068216B0969084321683E
:1028F00001F5C07101EB05114860206BC07D010638
:10290000206B807D41EA0041206B407D41EA00213F
:10291000206B007D0143206800F5C07000EB0510BE
:102920008160206BC07E0106206B807E41EA004101
:10293000206B407E41EA0020216B00E063E0097ECD
:102940000843216801F5C07101EB0511C8602068DA
:1029500000F5C07000EB0510006840F00101206830
:1029600000F5C07000EB0510016000F04BFA07465F
:1029700011E0701C78B126B100F044FAC01BB042DF
:1029800009D9032084F8380000BF002084F83900FA
:1029900000BF032024E74DB9206880681F49084024
:1029A000884201D1012016E0002014E0012D09D158
:1029B000206880681A490840884201D101200AE055
:1029C000002008E02068806816490840884201D14C
:1029D000012000E000200028CBD094F838003228F5
:1029E00007D1222084F8380000BF002084F8390085
:1029F00007E0012084F8380000BF002084F8390087
:102A000000BF0020ECE6042084F8380000BF00205E
:102A100084F8390000BF0120E2E600000300000452
:102A20000003000800000310704770B5044600253D
:102A30002068006820F001002168086000F0E2F9D9
:102A4000054612E000F0DEF9401BB0F57A7F0CD9A4
:102A5000E06C40F02000E06400BF002084F8340007
:102A600000BF032084F8350070BD2068006800F0C6
:102A700001000028E6D100BF84F8340000BF012027
:102A800084F835000020EFE770B504460CB901204A
:102A900070BD94F83500022801D10120F8E72068C4
:102AA000006820F0010021680860002021680860AB
:102AB00021684860216888602168C86021680861D1
:102AC0002120216848612046FEF722FD054694F842
:102AD00054103F208840A8600020E06484F835004E
:102AE00000BF84F8340000BF00BFD1E770B50446D2
:102AF00000250CB9012070BD606A00B100BF022042
:102B000084F835002068056818480540D4E90101BB
:102B10000843E16808432169084361690843A169E2
:102B20000843E1690843216A08430543606A0428B1
:102B300003D1D4E90B0108430543206805602068F0
:102B4000456925F00705606A0543606A042801D1DC
:102B5000A06A0543206845612046FEF7D9FC0020A5
:102B6000E064012084F835000020C4E73F8010F0C5
:102B70002DE9F04104460D4616461F4600BF94F865
:102B80003400012802D10220BDE8F081012084F840
:102B9000340000BF022084F835002068006820F06F
:102BA0000100216808603B46324629462046FEF770
:102BB000C9FC2068006840F001002168086000201E
:102BC000E2E731B5002400F01DF9044600BF00F033
:102BD00019F9001B00998842F9D338BDF8B50246AF
:102BE0000B460025002400200021E1E0012606FA22
:102BF00001F51E6806EA0504AC4273D15E68022E38
:102C000002D05E68122E13D1CF0802F1200656F8CA
:102C100027004E07F70E0F26BE40B0434F07FF0EAA
:102C20001E69BE403043CF0802F1200646F8270057
:102C300010684F000326BE40B0431E7906F003061D
:102C40004F00BE40304310605E68012E08D05E68C1
:102C5000022E05D05E68112E02D05E68122E13D1AE
:102C600090684F000326BE40B0434F00DE68BE4070
:102C700030439060506801268E40B0431E79C6F301
:102C800000168E4030435060D0684F000326BE408F
:102C9000B0434F009E68BE403043D0605E6806F08F
:102CA0008056B6F1805FA8D100BF00260096424E44
:102CB000366846F48046404F3E603E46366806F42D
:102CC0008046009600BF00BF3C4E8F0856F8270094
:102CD0008E07370F0F26BE40B043394EB24202D1A5
:102CE000002629E063E0374EB24201D1012623E0FD
:102CF000354EB24201D102261EE0344EB24201D11D
:102D0000032619E0324EB24201D1042614E0314EBE
:102D1000B24201D105260FE02F4EB24201D1062664
:102D20000AE02E4EB24201D1072605E02C4EB242F7
:102D300001D1082600E009268F073F0FBE4030432F
:102D40001E4E8F0846F82700264E3068A0435E6866
:102D500006F48036B6F5803F00D12043214E306026
:102D6000361D3068A0435E6806F40036B6F5003FB5
:102D700000D120431B4E361D3060361D3068A04305
:102D80005E6806F48016B6F5801F00D12043154E0C
:102D900008363060361D3068A0435E6806F40016C1
:102DA000B6F5001F00D120430E4E0C363060491C92
:102DB0001029FFF41BAFF8BD443802400838014029
:102DC000000002400004024000080240000C0240E3
:102DD000001002400014024000180240001C024093
:102DE00000200240003C0140024613690B400BB139
:102DF000012000E0002070470AB1816101E00B046E
:102E0000836170470148006870470000F8000020A7
:102E100010B504460CB9012010BD607B20B900201C
:102E20002073204600F01AF80220607345F25550D6
:102E3000216808602068406820F007006168084346
:102E400021684860206880686FF30B00A168084320
:102E500021688860012060730020DDE7704770B54D
:102E60000446002500BF207B012801D1022070BD4F
:102E70000120207300BF02206073FFF7C3FF0546E7
:102E80000DE0FFF7BFFF401BB0F57A7F07D90320A5
:102E9000607300BF0020207300BF0320E7E72068B5
:102EA000C068C0F340000028EBD14AF6AA20216890
:102EB00008600120607300BF0020207300BF00BFC6
:102EC000D5E7014600BF087B012801D102207047E9
:102ED0000120087300BF022048734CF6CC400A68FA
:102EE00010604AF6AA200A6810600120487300BFEB
:102EF0000020087300BF00BFE9E700000248006837
:102F0000401C014908607047F800002010B50D48CA
:102F1000006840F400700B4908600846006840F4FF
:102F2000806008600846006840F4807008600520F2
:102F300000F06CF80F2000F007F800F017F8002000
:102F400010BD0000003C024070B5044600F0ECF9F2
:102F50004FF47A71B0FBF1F5284600F09FFC002297
:102F60002146501E00F014F8002070BD08B5002066
:102F7000009000BF08BD00BF00F01F02012191407A
:102F80004209920002F1E022C2F8001100BF70472E
:102F90002DE9F05F80460D461646002701F052F9F4
:102FA000074639462A46334601F00700C0F1070AB2
:102FB000BAF1040F02D94FF0040A01E0C0F1070A88
:102FC000D14600F1040ABAF1070F02D24FF0000A0D
:102FD00001E0A0F1030AD4464FF0010A0AFA09FA07
:102FE000AAF1010A0AEA020A0AFA0CFA4FF0010BE6
:102FF0000BFA0CFBABF1010B0BEA030B4AEA0B04D7
:103000002146404601F026F9BDE8F09F00BF00F0E0
:103010000702064B19684FF6FF031940044B0B4398
:1030200043EA0221014B196000BF70470CED00E03C
:103030000000FA0500BF00BF00BF00BF00BFBFF324
:103040004F8F00BF00BF00BF0948006800F4E06078
:1030500008490843001D0649086000BF00BF00BFC3
:10306000BFF34F8F00BF00BF00BF00BF00BFFDE731
:103070000CED00E00000FA0570B504460E46002590
:10308000A748006800F00F00B0426FD2A4490E704C
:103090000846006800F00F00B04201D0012070BD6A
:1030A000207800F00200022807D19E48006820F036
:1030B000F000A16808439B490860207800F00100F7
:1030C00000283ED06068012807D19648083800687B
:1030D000C0F34040B8B90120E1E76068022802D09F
:1030E0006068032807D18F4808380068C0F3406043
:1030F00048B90120D3E78B4808380068C0F3400086
:1031000008B90120CBE78748006820F00300616818
:10311000084384490860FFF775FE0546606801288A
:1031200010D108E0FFF76EFE401B41F28831884263
:1031300001D90320B3E77B48006800F00C000428A5
:10314000F0D1CDE06068022811D108E0FFF75AFE07
:10315000401B41F28831884201D903209FE7714822
:10316000006800F00C000828F0D1B9E024E06068A5
:10317000032810D108E0FFF745FE401B41F28831DB
:10318000884201D903208AE76648006800F00C00F5
:103190000328F0D1A4E008E0FFF734FE401B41F221
:1031A0008831884201D9032079E75E48006800F041
:1031B0000C000028F0D193E0207800F002000228F3
:1031C00007D15848006820F0F000A168084355492D
:1031D0000860207800F00100002877D0606801289E
:1031E00007D1504808380068C0F34040B8B9012002
:1031F00055E76068022802D06068032807D1494873
:1032000008380068C0F3406048B9012047E74548E6
:1032100008380068C0F3400008B901203FE7414882
:10322000006820F00300616808433E490860FFF72A
:10323000E9FD05466068012810D108E0FFF7E2FDCE
:10324000401B41F28831884201D9032027E73548E5
:10325000006800F00C000428F0D137E06068022814
:1032600010D108E0FFF7CEFD401B41F288318842C3
:1032700001D9032013E72B48006800F00C00082850
:10328000F0D123E06068032810D108E0FFF7BAFD11
:10329000401B41F28831884201D90320FFE62148D2
:1032A000006800F00C000328F0D10FE008E0FFF701
:1032B000A9FD401B41F28831884201D90320EEE686
:1032C0001848006800F00C000028F0D114490E7076
:1032D0000846006800F00F00B04201D00120DEE691
:1032E000207800F00400042807D10E48006820F47C
:1032F000E050E16808430B490860207800F00800BE
:10330000082808D10748006820F46040216940EA95
:10331000C100044908600F20FFF716FE0020BEE63A
:10332000003C02400838024010B500F045F8094959
:10333000096801F0F001F02292FAA2F2B2FA82F2E8
:10334000D140054A515CC8400449086008460068FD
:1033500010BD000008380240C58E0008640000203F
:1033600010B5FFF7E1FF0749096801F4E0514FF498
:10337000E05292FAA2F2B2FA82F2D140024A515CD1
:10338000C84010BD08380240C58E000810B5FFF7D0
:10339000CBFF0749096801F460414FF4604292FA9B
:1033A000A2F2B2FA82F2D140024A515CC84010BD8A
:1033B00008380240C58E000870B5002100220023A5
:1033C0000020274C246804F00C0424B1042C04D001
:1033D000082C41D103E0234840E023483EE0204C44
:1033E000241F246804F03F011D4C241F246804F4AA
:1033F000800484B11C4CB4FBF1F5194C241F2468E3
:1034000047F6C076344096FAA6F6B6FA86F6F44049
:1034100005FB04F20FE0134CB4FBF1F5104C241F34
:10342000246847F6C076344096FAA6F6B6FA86F6D1
:10343000F44005FB04F20A4C241F246804F44034D1
:103440004FF4403595FAA5F5B5FA85F5EC40641CC6
:103450006300B2FBF3F001E0024800BF00BF70BDA3
:10346000083802400024F40040787D0138B5044655
:103470000025207800F00100002866D0F748006899
:1034800000F00C0004280DD0F448006800F00C0097
:10349000082813D1F148001F006800F48000B0F53F
:1034A000800F0BD1ED4808380068C0F34040002879
:1034B0004BD06068002848D1012038BD0020E74982
:1034C000891F0870FFF79EFC054608E0FFF79AFC8D
:1034D000401B41F28831884201D90320EDE7DF48E3
:1034E00008380068C0F340400028EFD12079DB495C
:1034F000891F08706068A0B1FFF784FC054608E0EA
:10350000FFF780FC401B41F28831884201D903203B
:10351000D3E7D24808380068C0F340400028EFD015
:1035200013E0FFF76FFC054608E0FFF76BFC401B5C
:1035300041F28831884201D90320BEE7C7480838E4
:103540000068C0F340400028EFD1207800F002006E
:10355000022869D1C148006800F00C0058B1BF488A
:10356000006800F00C00082821D1BC48001F00684A
:1035700000F48000D8B9B94808380068C0F34000AA
:1035800020B1E068012801D0012096E7B34808384F
:10359000006820F0F800F82292FAA2F2B2FA82F261
:1035A000216991400843AD49083908603CE0E06872
:1035B00028B30120AA490860FFF724FC054606E06D
:1035C000FFF720FC401B642801D9032075E7A348BE
:1035D00008380068C0F340000028F1D09F48083840
:1035E000006820F0F800F82292FAA2F2B2FA82F211
:1035F00021699140084399490839086014E0002086
:1036000097490860FFF7FEFB054606E0FFF7FAFB67
:10361000401B642801D903204FE790480838006810
:10362000C0F340000028F1D1207800F008000828FD
:103630002CD16069A8B101208A490860FFF7E2FB3C
:10364000054606E0FFF7DEFB401B642801D9032096
:1036500033E782486C300068C0F340000028F1D0A6
:1036600014E000207F490860FFF7CCFB054606E028
:10367000FFF7C8FB401B642801D903201DE77748EA
:103680006C300068C0F340000028F1D1207800F0D1
:10369000040004286FD100BF002000906F4838302C
:1036A000006840F080506D49383108600846006875
:1036B00000F08050009000BF00BF6B48006840F4ED
:1036C000807069490860FFF79DFB054606E0FFF73B
:1036D00099FB401B642801D90320EEE6624800688C
:1036E00000F480700028F2D000205C496831087036
:1036F000FFF788FB054608E0FFF784FB401B41F21B
:103700008831884201D90320D7E6544868300068E0
:10371000C0F340000028EFD1207A5049683108708A
:10372000A068A0B1FFF76EFB054608E0FFF76AFB53
:10373000401B41F28831884201D90320BDE6474849
:1037400068300068C0F340000028EFD013E0FFF7B6
:1037500059FB054608E0FFF755FB401B41F2883155
:10376000884201D90320A8E63C4868300068C0F3CD
:1037700040000028EFD1A069F0B33848006800F09D
:103780000C00082872D0A069022850D100203449CA
:103790000866FFF737FB054606E0FFF733FB401BE3
:1037A000642801D9032088E62C4808380068C0F353
:1037B00040600028F1D1D4E90701084347F6C07200
:1037C00092FAA2F2B2FA82F2616A914008430122AF
:1037D000A16AC2EB51014FF4403292FAA2F2B2FA5E
:1037E00082F2914008434FF0706292FAA2F2B2FA6C
:1037F00082F2E16A914000E03AE008431749091F6C
:103800000860012016490866FFF7FCFA054606E045
:10381000FFF7F8FA401B642801D903204DE60F4852
:1038200008380068C0F340600028F1D020E0002094
:103830000B490866FFF7E6FA054606E0FFF7E2FAED
:10384000401B642801D9032037E604480838006883
:10385000C0F340600028F1D10AE007E008380240D8
:1038600000004742800E474200700040012024E6DD
:10387000002022E6042808D14FF0E021096941F038
:1038800004014FF0E022116107E04FF0E0210969E7
:1038900021F004014FF0E0221161704770B5044639
:1038A0002546681EB0F1807F01D301200FE0681E1D
:1038B0004FF0E02148610F214FF0FF3000F0CAFCCB
:1038C00000204FF0E021886107200861002070BDD2
:1038D00010B504462068406920F0800021684861E6
:1038E0002068406920F0400021684861206B10B1D9
:1038F000206BFFF79AF8606B10B1606BFFF795F8DB
:10390000012084F83900002010BD10B504460CB920
:10391000012010BDA06900B100E000BF94F839009B
:1039200028B9002084F83800204600F025F802204D
:1039300084F839002068C06820F400502168C8600D
:10394000204602F0A1FB2068006920F49040216825
:1039500008612068406920F02A00216848612068D9
:10396000C06840F400502168C8600020E063012076
:1039700084F839000020CCE710B586B004465B49D6
:10398000206888423DD100BF002000905848006860
:1039900040F00100564908600846006800F0010048
:1039A000009000BF00BF00BF0020009050481430BE
:1039B000006840F010004E49143108600846006865
:1039C00000F01000009000BF00BF481501900220D9
:1039D000029001200390022004900720059001A985
:1039E0004448FFF7FBF84FF48060019001A941487B
:1039F000FFF7F4F82068C06840F020002168C86034
:103A000071E03D492068884226D100BF0020009027
:103A100037481030006840F40030354910310860F4
:103A20000846006800F40030009000BF00BF0C2082
:103A300001900220029001200390032004900720AF
:103A4000059001A92B48FFF7C9F82068C06840F02D
:103A500020002168C86046E028492068884242D199
:103A600000BF0020009022481030006840F4802001
:103A70001F49103108600846006800F4802000905B
:103A800000BF00BF4FF4406001900220029001206F
:103A90000390032004900720059001A91848FFF720
:103AA0009DF82068C06840F020002168C86000BF11
:103AB000002000900E48006840F008000C490860A3
:103AC0000846006800F00800009000BF00BF042016
:103AD000019001200290022003900320049001A98C
:103AE0000848FFF77BF806B010BD00000010014049
:103AF00030380240000002400044004000480040CE
:103B000000080240000C02402DE9F04704460D4633
:103B1000164699464FF0000894F83980B8F1010F25
:103B200002D0B8F1220F65D105B116B90120BDE868
:103B3000F08700BF94F83800012801D10220F6E791
:103B4000012084F8380000BF0020E06394F83900B9
:103B5000222803D1322084F8390002E0122084F8B0
:103B60003900A684E68428E0E08C401EE084A0684A
:103B7000B0F5805F14D14B4600228021204602F030
:103B800095FB08B10320D2E72F463888C0F3080020
:103B900021684860206908B9AD1C0EE06D1C0CE07E
:103BA0004B4600228021204602F080FB08B1032012
:103BB000BDE715F8010B21684860E08C0028D3DCD4
:103BC0004B4600224021204602F070FB08B1032042
:103BD000ADE794F83900322803D1222084F8390067
:103BE00002E0012084F8390000BF002084F838008A
:103BF00000BF9CE702209AE700BFFEE700B5002067
:103C00000F4908600F48006820F440400D490860E3
:103C10000846006840F48040086000200A49C1F866
:103C20009C02142000F012F80120054908600220CF
:103C300000F00CF800200449C1F8980200BD000013
:103C400098824042000402400080404206E0102179
:103C500000BF0A1EA1F1010399B2FAD1021EA0F120
:103C60000103D8B2F3D1704700B587B000BF002080
:103C700001901048006840F002000E4908600846B4
:103C8000006800F00200019000BF00BFC020029059
:103C900011200390002004900320059002A90648FB
:103CA000FEF79CFF0120054908600549C1F898020C
:103CB00007B000BD30380240000402409C82404200
:103CC0000080404270B5064600241448006820F485
:103CD000404012490860084600680860002519E065
:103CE00000200F4908600520FFF7B0FF01200D49B3
:103CF000C1F898026006040E0520FFF7A7FF0848E8
:103D00007C38006808B1601CC4B20520FFF79EFF34
:103D1000681CC5B2082DE3DB204670BD00040240DC
:103D2000988240420080404230B504461548006801
:103D300020F44040134908600846006840F4804081
:103D40000860002010490860002517E0E0090E49CE
:103D5000091D08606006040E0520FFF777FF0120AB
:103D60000A49C1F898020520FFF770FF00200649B4
:103D700008600520FFF76AFF681CC5B2082DE5DB67
:103D800030BD000000040240988240420080404262
:103D900000B51148006820F440400F49086008460B
:103DA000006840F48040086001200C4908600C491C
:103DB000C1F898020420FFF749FF00200749086076
:103DC0000420FFF743FF00200549C1F898020420B2
:103DD000FFF73CFF00BD0000000402409C8240420F
:103DE0000080404200B51048006820F440400E4971
:103DF00008600846006840F48040086000200B49D5
:103E000008600B49C1F89C020420FFF71FFF012046
:103E100006490860FFF71AFF01200549C1F89C0216
:103E20000420FFF713FF00BD0004024098824042C7
:103E30000080404210B500241348006820F4404040
:103E40001149086008460068086001200F490860B1
:103E5000FFF7FCFE01200E49C1F89802FFF7F6FEBD
:103E600008E0601C84B2B4F5FA7F03DDFFF7BAFF07
:103E7000012010BD0548803800680028F1D10349B1
:103E8000091F086000BFF4E7000402409C82404222
:103E90000080404210B50248FEF7E1FF10BD00006F
:103EA0008C1C002010B508480849086004204860B0
:103EB0004FF47A7105488160FEF7AAFF08B100BF90
:103EC000FEE700F005F810BD003000408C1C00201B
:103ED00010B50024FCF7B0F904460348FEF7F1FFE3
:103EE0002046FCF7ADF910BD8C1C002070B50020F9
:103EF0004FF0E021086188610848006808490840DF
:103F0000B0F1005F08D105480468456800BF84F33C
:103F1000088800BF2E46B04770BD00000000FF1F9C
:103F20000000FE2F00B587B000BF002001900C48B4
:103F3000006840F004000A4908600846006800F084
:103F40000400019000BF00BF0420029000200390F5
:103F50000120049002A90348FEF740FE07B000BD0F
:103F6000303802400008024000B587B000BF002092
:103F700001900F48006840F004000D4908600846B1
:103F8000006800F00400019000BF00BF0320029011
:103F90000120039004900320059002A90548FEF734
:103FA0001DFE012203210348FEF726FF07B000BDD6
:103FB000303802400008024010B52DED0A8B04464F
:103FC0009FED2D0AB0EE408A20784D283AD16078D6
:103FD000312837D1A0782C2834D1E17930394FF409
:103FE0007A7211FB02F2217A303901EBC10303EB43
:103FF000011102EB8102617A303901EB810102EBA0
:104000004101A27A1144A1F13000FCF74BFB9FED76
:104010001B0B53EC102BFCF7D6FA41EC1A0B627910
:104020002179303901EB810102EB4101A1F130002E
:10403000FCF738FB53EC1A2BFCF7ACF9FCF7CCFB84
:1040400008EE100AE0782D2803D1B1EE480AB0EE50
:10405000408ABDEEC80A10EE100AF43018B99FED80
:10406000090AB0EE408A084880ED008AB0EE480A9E
:10407000BDEC0A8B10BD0000000000000000000035
:104080000088C340F3FFC7C2E400002008B505A0C4
:10409000006800906423032269460348FFF734FD5B
:1040A00008BD00004D310D00A81B002008B507A079
:1040B000006800906423032269460548FFF724FD49
:1040C0009FED040A044880ED000A08BD56310D003A
:1040D000A81B002000000000E400002001460A7830
:1040E000552A17D007DC6AB1012A0DD0022A0DD05B
:1040F000032A17D10CE0562A0ED0572A0ED0582A80
:1041000010D10DE00C200FE010200DE010200BE08E
:10411000082009E0062007E0012005E0162003E062
:10412000142001E0002000BF00BF704710B500223E
:1041300011463620FEF72CFF3620FEF71CFF00222A
:1041400001212520FEF724FF2520FEF714FF002281
:1041500002212620FEF71CFF2620FEF70CFF00227E
:1041600003211420FEF714FF1420FEF704FF10BDF6
:1041700038B504460D46244884420FD900BF0020BC
:1041800000902248006840F48000204908600846FA
:10419000006800F48000009000BF0FE000BF002026
:1041A00000901A48006840F400101849086008465A
:1041B000006800F40010009000BF00BF00BF14486A
:1041C0001449086308461249886300BF0846046022
:1041D0004560402181600021C1604FF48061016130
:1041E000002141618161C1614FF480310162002190
:1041F0004162032181620021C1620163FEF744FC38
:104200000348FEF773FC38BD0064024030380240BA
:10421000341C0020681B002070B504460E4615466D
:1042200021680A1D2B463146206BFEF7A1FC206851
:10423000406940F080002168486170BD00BFFEE722
:104240007047000002480068C0F302207047000079
:104250000CED00E010B5002807DA0A07140E054A35
:1042600000F00F031B1FD45403E00A07130E024A89
:10427000135410BD18ED00E000E400E010B500F0AC
:1042800013F800F0B9FF00F0E5FF01F005F800F0C9
:1042900083FF00F043FF01F099F801F03DF801F0D1
:1042A00063F800F019F810BD0848802102E0491EAB
:1042B000002204C00029FAD1054A064B1A601A46AA
:1042C000126822F007021A6070470000BC2B002021
:1042D000BC2D0020480100207047000006480078EF
:1042E000012808D105480078FF2804D20348007847
:1042F000401C02490870704722010020150100206F
:1043000010B500241A480078012830D1FBF794FF3B
:1043100004461848007820B116480078401E154918
:10432000087014480078F8B913480078E0B901F033
:10433000AFF812481249097850F821001149086075
:104340000F4800781049097888420DD00D48006860
:10435000C06B401C0B490968C8630C480068401CCE
:104360000A490860FBF788FF2046FBF769FF10BD8C
:10437000220100201501002016010020CC2200207F
:10438000180100203001002017010020FC0000204F
:1043900070B5054600261048007808B1002070BDB1
:1043A000FBF74AFF06460D480468006820B10B4839
:1043B00000684068094908603046FBF741FF4CB18E
:1043C0000120207000202081656005A060612046EA
:1043D00000F096FE2046E2E71501002000010020D3
:1043E0003F0000002DE9F04105460F4614464FF00E
:1043F00000082878012804D0012020700020BDE8A2
:10440000F0813748007818B1022020700020F6E7CC
:104410003448007818B10D2020700020EFE7FBF73A
:104420000BFF80466E6846B1002068604046FBF78F
:1044300007FF002020703046E1E72B48006890F825
:10444000340040F002002849096881F83400002057
:104450002549096881F83500234800680763284624
:1044600000F010FE4046FBF7EBFE00F0D7FFFBF735
:10447000E3FE80461C48006890F8350020B1012812
:104480000DD002280AD105E017480068466A0020CE
:1044900020700DE000260E20207009E000BF2946A4
:1044A0001148006800F0BAFD00260A20207000BF05
:1044B00000BF00200C49096881F834000A490968E6
:1044C00081F8350008490968C86107490968086228
:1044D0000549096848624046FBF7B2FE30468EE760
:1044E00015010020160100202801002070B50446A7
:1044F0000D4600262078012801D0012070BDFBF771
:104500009BFE0646A07A60B100230222294620467F
:1045100000F03CFD3046FBF793FE00F07FFF0020EB
:10452000ECE7606820B13046FBF78AFE1420E5E72F
:1045300065603046FBF784FE0020DFE72DE9F0419F
:1045400006460F464FF000082048007810B10020C2
:10455000BDE8F081FBF770FE80461D4804680068E6
:1045600020B11B4800684068194908604046FBF7C5
:1045700067FEFCB1FBF760FE804616480568D5B1C2
:1045800000680068134908604046FBF759FE6E60FA
:1045900006EB8700A860EE602E61AF820020E88203
:1045A000022020700020208165600BA06061204601
:1045B00000F0A6FD08E0064800686060044804605A
:1045C0004046FBF73DFE00242046C1E715010020D0
:1045D000000100203C0100203F00000010B5002435
:1045E0000B480078012811D1FBF726FE0446094844
:1045F000007840B908480078FF2804D206480078BF
:10460000401C054908702046FBF71AFE10BD00004B
:1046100022010020150100201601002010B5002401
:1046200013480078012821D1FBF706FE0446114803
:104630000078C0B91048007888B10F480078401E53
:104640000D4908700846007828B92046FBF7F8FDA8
:1046500000F0E4FE0AE02046FBF7F2FD06E020460B
:10466000FBF7EEFD02E02046FBF7EAFD10BD00007F
:1046700022010020150100201601002010B50B4872
:10468000007890B900F004FF0948007809490870E3
:1046900009480749097850F8210008490860084688
:1046A000006807490860FBF7CEFD10BD220100201D
:1046B0001801002017010020CC220020300100202A
:1046C0002801002010B50024022000F0A7FBFBF712
:1046D000B3FD044600200B4908602046FBF7B0FDFF
:1046E000642000F09BFBFBF7A7FD0446054800682B
:1046F000054908600120054908702046FBF7A0FD28
:1047000010BD0000240100200C0100201401002035
:1047100010B504462046FCF7ADFB10BD2DE9F04F67
:1047200085B081468A4693461C46DDE90F78129D86
:1047300000200390FBF780FD03902348007830B100
:104740000398FBF77DFD3C2005B0BDE8F08F1F48C6
:1047500050F8240088BB01201C4941F8240003982C
:10476000FBF76EFD2A464146384600F0D5FF2B4642
:104770005A465146484600F0CBF904901198CDE9CD
:10478000008002953A4620460E9B049900F096FE62
:10479000064636B90E48007801280CD100F03EFEDE
:1047A00009E0FBF749FD03900020084941F8240087
:1047B0000398FBF745FD3046C6E7FFE70398FBF794
:1047C0003FFD2820C0E7000015010020CC2200207A
:1047D0002201002010B504462046FCF74CFB10BD1A
:1047E0002DE9F041054600274A48007810B14020E5
:1047F000BDE8F0813F2D01D13E20F9E7FBF71CFD1C
:104800000746FF2D03D14448006890F836504348CE
:1048100050F8254024B93846FBF712FD4320E7E75E
:10482000012C04D13846FBF70BFD3D20E0E714F8DE
:10483000380F3B49085C617888432178384A5054E6
:1048400014F838091146085C30B994F83A10354824
:104850000078884333490870E06918B12046E1695F
:1048600000F0DCFB206A18B12046216A00F0EDFB65
:10487000A66A16B1304600F07DFC0020206384F863
:10488000340084F8350028480078FF2804D22648F0
:104890000078401C244908703846FBF7D1FC00F032
:1048A00073FBFBF7C9FC07461F48007820B11E4880
:1048B0000078401E1C490870204600F041F81B4853
:1048C0000078401E194908700020144941F825005D
:1048D000A06930B900206169886115496069086084
:1048E00005E0D4E905014861D4E905108861114863
:1048F000006860610F4804600FA020653846FBF730
:104900009FFC0E480078012801D100F087FD0020AF
:104910006EE700001501002028010020CC220020B5
:104920001A01002019010020160100202301002097
:10493000340100202C0100203F0000002201002053
:1049400010B504462046FCF797FA10BD10B5FCF7E9
:1049500094FA10BD2DE9F04106460F4614464FF07B
:1049600000081548007818B112202070BDE8F081C9
:10497000FBF762FC8046FF2E03D11048006890F8D8
:1049800036600F4850F826502DB94046FBF758FCCA
:1049900043202070EAE7012D05D14046FBF750FC8B
:1049A00043202070E2E72F654046FBF749FC0020DA
:1049B000207000BFDAE70000150100202801002068
:1049C000CC22002070B505460026FBF735FC0646D4
:1049D000244850F8254024B93046FBF731FC4620E6
:1049E00070BD012C04D13046FBF72AFC4320F7E7C9
:1049F00094F8340000F0080070B314F8340F00F09D
:104A0000F700207014F8340900F03700F8B9206B73
:104A1000C8B93834A0781449097808431249087095
:104A200020781249085C6178084314F838190F4A55
:104A300050543046FBF704FC0D480078012809D19A
:104A400000F0ECFC06E03046FBF7FAFB02E03046F3
:104A5000FBF7F6FB0020C3E73046FBF7F1FB4420F1
:104A6000BEE70000CC220020190100201A0100201E
:104A70002201002010B504462046FCF7FFF910BDC6
:104A800010B5FCF7FCF910BD2DE9F04707460D46BF
:104A90004FF0000A002028606860FBF7CDFB8246DB
:104AA000FF2F03D11848006890F83670174850F867
:104AB00027402CB95046FBF7C3FB4320BDE8F087E5
:104AC000012C04D15046FBF7BBFB4320F6E7207CCA
:104AD00000F0010020B95046FBF7B2FB4520EDE79E
:104AE0000026D4F80C90D4F808805046FBF7A8FBB9
:104AF00000E0761C58F8041B0029FAD02E60A9EBC0
:104B0000060068600020D9E728010020CC220020A0
:104B100070B50446101D20F007004FF08076051F89
:104B200028462E60051F28462C60684E051F284623
:104B30002E604FF01236051F28462E604FF00336C8
:104B4000051F28462E604FF00236051F28462E60AE
:104B50007610051F28462E60051F284629604FF055
:104B60001136051F28462E604FF01036051F2846C7
:104B70002E604FF00936051F28462E604FF008368C
:104B8000051F28462E604FF00736051F28462E6069
:104B90004FF00636051F28462E604FF00536051FDC
:104BA00028462E604FF00436051F28462E6003F07D
:104BB0000405002D7ED0F605051F28462E60444EC4
:104BC000051F28462E60434E051F28462E60424E84
:104BD000051F28462E60414E051F28462E60404E78
:104BE000051F28462E603F4E051F28462E603E4E6C
:104BF000051F28462E603D4E051F28462E603C4E60
:104C0000051F28462E603B4E051F28462E603A4E53
:104C1000051F28462E60394E051F28462E60384E47
:104C2000051F28462E60374E051F28462E60364E3B
:104C3000051F28462E604FF08346051F28462E602C
:104C4000324E051F28462E60314E051F28462E6025
:104C5000304E051F28462E602F4E051F28462E6019
:104C60002E4E051F28462E602D4E051F28462E600D
:104C70002C4E051F28462E604FF08246051F284601
:104C80002E60294E051F28462E60284E051F2846F7
:104C90002E60274E051F28462E604FF08146051FC7
:104CA00028462E60234E051F28462E603602051F1B
:104CB000284600E009E02E604FF07E56051F28468A
:104CC0002E600026051F28462E6070BD2556000860
:104CD0000000F8410000F0410000E8410000E04120
:104CE0000000D8410000D0410000C8410000C04190
:104CF0000000B8410000B0410000A8410000A04100
:104D0000000098410000904100008841000070417F
:104D1000000060410000504100004041000030416F
:104D200000002041000010410000E0400000C040B1
:104D30000000A040000040402DE9F04105464FF042
:104D40000008FBF779FA8046FF2D05D1204800685E
:104D500090F83650012608E01D48006890F83600AB
:104D6000A84201D1012600E000261A4850F825404B
:104D70002CB94046FBF764FA4820BDE8F081012CCD
:104D800004D14046FBF75CFA4320F6E794F838700C
:104D90001148C05D94F8391088430F49C85508463A
:104DA000C05D30B994F83A100C48007888430B493C
:104DB000087094F8340040F0080084F8340040464D
:104DC000FBF73EFA012E01D100F028FB0020D4E7CA
:104DD00028010020CC2200201A0100201901002007
:104DE00010B50C480068007C00F0040020B10949AF
:104DF00009680868FBF70AFA07480068007C00F0B9
:104E0000040020B1044909680868FBF70CFAFCF7B4
:104E100037F810BD280100203001002070B505468C
:104E200000261748007800B170BD1648007800B120
:104E3000FAE71DB3FBF700FA06461348006890F83E
:104E400038401248005D1049096891F839108843CC
:104E50000E4908550846005D40B90B48006890F8B7
:104E60003A100B48007888430949087006480068E2
:104E700005633046FBF7E4F900F0D0FA00BFD3E752
:104E80001501002016010020280100201A01002031
:104E90001901002070B5002600F072F8FBF7CCF97C
:104EA000064631480068401C2F4908603046FBF731
:104EB000C7F92E480078012853D12D48007820B139
:104EC000012804D0022809D103E001250BE00025C8
:104ED00009E0012501202649087004E00125002091
:104EE0002349087000BF00BF05B970BD21480468A0
:104EF00033E0FBF7A1F90646206B50B3206B401E50
:104F00002063206B28BB94F8340000F0370040B1D8
:104F100014F8340F00F0C800207001206070343C99
:104F200002E0002084F8350094F8340000F0080016
:104F300078B93834A0781049097808430E490870C8
:104F400020780E49085C6178084314F838190B4A38
:104F5000505464693046FBF773F994F836003F28E3
:104F6000C7D100BFC1E7000044010020220100209A
:104F70003801002034010020190100201A0100200E
:104F800010B5FBF77EFF10BD704700002DE9F04F14
:104F900005460F4690469946A87A1C490E5C05F1D5
:104FA0000B00805D11F800B00BEBC60000F0FF0AAB
:104FB000174850F82A4000202434E0602760207C05
:104FC00020EA0800207484F81190207C243C00F032
:104FD000080068B994F83A000E49097808430D4969
:104FE00008700D48805D94F8391008430A498855C7
:104FF0002946204600F012F8206A20B12046216A96
:1050000000F023F8E5615046BDE8F08FD58E00082A
:10501000CC220020190100201A01002010B590F8C0
:10502000382001F10B039B5C90F83940A34301F158
:105030000B04A35423469B5C23B98B7A90F83A4027
:10504000A3438B720023C36110BDF0B5024612F872
:10505000384F95785678383A0B4618680FE000F1CB
:105060000B073F5DB74300F10B0C0CF8047067466B
:105070003F5D17B9877AAF4387721B1D18680028F8
:10508000EDD1F0BD10B51B4A1268D061194A126803
:1050900092F8383000F10B02D25C164B1B6893F883
:1050A00039301A43134B1B6893F8384000F10B0357
:1050B0001A55827A0F4B1B6893F83A301A43827262
:1050C0000C4A126892F838100B4A525C094B1B6864
:1050D00093F839309A43084B5A541A46525C42B9F5
:1050E000044A126892F83A30044A12789A43034B01
:1050F0001A7010BD280100201A010020190100209B
:10510000014600228A72002005E0002301F10B0213
:105110001354421CD0B20828F7D370472DE9F04150
:105120005021114800F048F900250DE0681C86B2B6
:105130000D4800EB051400EB061700202070676097
:105140000AA0E060681C85B2042DEFD3064800EB8E
:10515000051400202070606004A0E060024804494B
:105160000860BDE8F08100007C1E00203F000000C8
:105170000401002030B501464A6808682AB9CC68A5
:10518000606028B10025456002E0106000B1426017
:105190008B6800259D6230BD70B54FF4F0711348E7
:1051A00000F00AF9002411E0601C85B204EB440011
:1051B0000E4901EBC00305EB450001EBC0060020E2
:1051C00018705E600AA05861601C84B2132CEBD387
:1051D00004EB4400054901EBC0030020187058603F
:1051E00003A0586108460349086070BD9C1C00205C
:1051F0003F0000000001002000200B4908600B491F
:1052000008700B4908700B4908700B4908700B496E
:1052100008600B4908600B4908600B4908600B499E
:1052200008700B49087070474401002015010020E8
:10523000160100202301002022010020FC00002094
:1052400024010020100100200C0100201401002086
:105250004001002000210A4A1170002004E00021D2
:10526000084A1154411CC8B20828F8D30021064A44
:105270001170064A1170064A1160064A11607047A3
:10528000190100201A010020170100201801002038
:10529000300100202801002070B54FF4F261194858
:1052A00000F08AF84FF48071174800F085F8002468
:1052B00013E0601CC5B204EB440000EBC4001149CC
:1052C00001EBC00305EB450000EBC50001EBC00698
:1052D0005E610EA01865601CC4B2152CE9D304EB06
:1052E000440000EBC400074901EBC00300205861F3
:1052F00006A01865002006490860024805490860B4
:1053000070BD0000CC230020CC2200203F00000014
:10531000340100202C01002000B587B003200021BB
:1053200080220A4BCDE90132CDE903104FF6FF7020
:105330003F23074A00900748FFF7F0F906AA06A1A5
:105340003F20FFF707FB07B000BD0000CC20002086
:10535000C8220020FD55000875432F4F532D4949A1
:105360002049646C6500000000B587B0032000216F
:1053700080220A4BCDE90132CDE903104FF6FE70D1
:105380003E23074A00900748FFF7C8F906AA06A17E
:105390003E20FFF7DFFA07B000BD0000CC1E002062
:1053A000C82000203D56000875432F4F532D494912
:1053B000205374617400000004E0002200F8012B07
:1053C0004A1E91B20029F8D1704700002DE9F04142
:1053D00060211048FFF7F0FF00240DE0601C86B24A
:1053E00004EB44000B4901EBC00506EB460001EB62
:1053F000C0072F60601C84B2032CEFD304EB440081
:10540000044901EBC00500202860084602490860F5
:10541000BDE8F0815C2B00203C01002010B5002489
:10542000FAF70AFF044613480078F8B912480078E2
:10543000E0B900F02DF811481149097850F8210021
:10544000104908600E4800780F49097888420DD04D
:105450000C480068C06B401C0A490968C8630B48C7
:105460000068401C09490860FAF701FF2046FAF776
:10547000E7FE10BD1501002016010020CC220020FF
:10548000180100203001002017010020FC0000203E
:105490000649074A1278885C0649095C034A515C50
:1054A00001EBC001044A117070470000D58E00085E
:1054B000190100201A010020180100202DE9F84FE1
:1054C00005460F4690469946DDE90AAB002000905C
:1054D000FAF7B2FE009042480468002C7BD01C34DE
:1054E00054F8080C3E4908600098FAF7A9FE44F801
:1054F0001C7CA576002020766076606144F818BC9C
:1055000044F810AC44F8148C0C9824F80C0C24F8D3
:105510000A9C0020E077E810207705F00700E0768D
:10552000217F01208840A077E17E012088406077BC
:10553000002020606060E060A0602062A062606285
:10554000E062206327A060631C3C002606E0002187
:1055500004F1540040F82610701CC6B2002EF6D09C
:105560002046FFF7D5F8FAF767FE00901E4840F88E
:1055700025400098FAF764FE2046FFF72BF9FAF76A
:105580005BFE00901948006860610020A061174828
:10559000006810B11548006884611448046038340C
:1055A000A0781349097808431149087020781149F7
:1055B000085C6178084314F838190E4A50540E48B4
:1055C0000078401C0C4908700098FAF739FE00205A
:1055D000BDE8F88FFFE70098FAF732FE4220F7E7C0
:1055E0002C0100203F000000CC22002034010020CC
:1055F000190100201A01002023010020002400BF0F
:1056000000BFFAF719FE044605480068401C04492B
:1056100008602046FAF714FEFFF798F9F1E700005A
:105620002401002010B504480068FFF723FAFF208A
:10563000FFF7D6F810BD00002801002000BF00BF12
:1056400002E0C820FFF7EAFB1F4800780028F8D0E6
:105650001E4800686421B0FBF1F01C490860084650
:10566000006828B900201A490870FF20FFF764FB82
:10567000FAF7E2FD044615480068642148431549DD
:1056800008602046FAF7DCFD00BFFAF7D5FD0446B6
:10569000104800681049086000200E490860204644
:1056A000FAF7CEFD0C48006808490968B0FBF1F034
:1056B000C0F1640006490870FFF7E2F900F00EF847
:1056C0006420FFF7ABFBE0E7140100200C01002091
:1056D0000801002024010020100100207CB50025D5
:1056E00014E069462846FFF7CFF9064666B909482F
:1056F00050F8254044B1012C06D0D4E9020100EB5A
:105700008100A0640198E064681CC5B23F2DE8D90F
:105710007CBD0000CC22002002F0010343B102F066
:1057200002032BB102E0491E002308C00029FAD170
:10573000704700002DE9F0412DED088B04462078DC
:1057400028BBB14890ED000B84ED020BAF48007808
:1057500000F0010028B19FEDAE0BBDEC088BBDE859
:10576000F081AD4890ED000AF3EE0E0AB4EEE00AC7
:10577000F1EE10FA08DC90ED000AFBEE0E0AB4EE32
:10578000E00AF1EE10FA29D29FEDA10BE5E72078AF
:10579000012805D1A14890ED000B84ED020B1DE01E
:1057A0002078022805D19E4890ED000B84ED020B75
:1057B00014E02078032805D19A4890ED000B84ED81
:1057C000020B0BE02078042805D1974890ED000BE0
:1057D00084ED020B02E09FED8E0BBEE794ED161BED
:1057E000B0EE410AF0EE610A9FED901B53EC112BD5
:1057F00051EC100BFAF7E7FE41EC180B94ED041B8B
:10580000B0EE410AF0EE610A53EC102BFAF766FE97
:105810008846074694ED161BB0EE410AF0EE610A89
:105820009FED821B53EC112B51EC100BFAF7CBFEC2
:1058300041EC180B94ED041BB0EE410AF0EE610A46
:1058400053EC102BFAF7A6FD0E46054600BF00BF2D
:1058500094ED022BB0EE420AF0EE620A94ED042BB6
:10586000B0EE421AF0EE621A53EC102B51EC110B11
:10587000FAF731FEC4E9140194ED181BB0EE410AA9
:10588000F0EE610A9FED6B1B53EC112B51EC100BEA
:10589000FAF78AFF22D294ED181BB0EE410AF0EE1F
:1058A000610A9FED661B53EC112B51EC100BFAF7BC
:1058B00063FF13D294ED142BB0EE420AF0EE620AAD
:1058C00094ED102BB0EE421AF0EE621A53EC102B4E
:1058D00051EC110BFAF75EFDC4E9100194ED0E2BAB
:1058E000B0EE420AF0EE620A94ED0C2BB0EE421AD2
:1058F000F0EE621A53EC102B51EC110BFAF7EBFDA2
:10590000C4E9120194ED0C0B84ED0E0B94ED140B15
:1059100084ED0C0B94ED122BB0EE420AF0EE620A0D
:1059200094ED0A2BB0EE421AF0EE621A53EC102BF3
:1059300051EC110BFAF7D5FD41EC180B94ED102B3F
:10594000B0EE420AF0EE620A94ED082BB0EE421A75
:10595000F0EE621A53EC102B51EC110BFAF7C1FD6B
:1059600041EC1A0B94ED142BB0EE420AF0EE620AF1
:1059700094ED062BB0EE421AF0EE621A53EC102BA7
:1059800051EC110BFAF7ADFD41EC1B0B53EC1A2B4C
:10599000FAF700FD41EC190B53EC182BFAF7FAFC5F
:1059A000C4E9180194ED181BB0EE410AF0EE610A4B
:1059B0009FED221B53EC112B51EC100BFAF7F4FE68
:1059C00003D29FED1E0B84ED180B94ED181BB0EE67
:1059D000410AF0EE610A9FED171B53EC112B51ECBD
:1059E000100BFAF7C9FE03D29FED120B84ED180BD2
:1059F00094ED181BB0EE410AF0EE610A0020FBF7AF
:105A000043F994ED180BA8E63000002014000020A4
:105A10000000000000000000E4000020280000203A
:105A20002000002038000020480000200000000076
:105A3000000000400000000000000CC0000000005A
:105A400000000C40014691F85100F8B10A68501C62
:105A50000860107881F8500091F85100022802D1B6
:105A6000012081F851008A680868904201D9C8680D
:105A70000860D1E90002904206D191F85100012856
:105A800002D1002081F85100012070470020FCE77E
:105A9000024692F8510002281CD092F8510010B929
:105AA000012082F851005368581C50601970D2E9E7
:105AB0000103984201D9D0685060D2E90030984281
:105AC00006D192F85100012802D1022082F851003B
:105AD000012070470020FCE700F1100101604160E7
